:100000000C946B000C947D000C947D000C947D008E
:100010000C947D000C947D000C947D000C947D006C
:100020000C947D000C947D000C947D000C947D005C
:100030000C947D000C947D000C947D000C947D004C
:100040000C9483010C947D000C947D000C947D0035
:100050000C947D000C947D000C947D000C947D002C
:100060000C947D000C947D0005A84CCDB2D44EB903
:100070003836A9020C50B9918688083CA6AAAA2A4B
:10008000BE000000803F00000008000201000003E5
:100090000407000000000000000000000000250030
:1000A00028002B0000000000240027002A00040480
:1000B0000404040404040202020202020303030310
:1000C00003030102040810204080010204081020EC
:1000D00001020408102011241FBECFEFD8E0DEBFBC
:1000E000CDBF21E0A0E0B1E001C01D92AD30B2076C
:1000F000E1F70E94CD010C942B050C94000090E0D8
:10010000FC01EE53FF4F2491FC01E255FF4F849117
:10011000882399F090E0880F991FFC01EC55FF4F60
:10012000A591B491FC01E656FF4F859194918FB74C
:10013000F894EC91E22BEC938FBF089590E0FC01D2
:10014000EA57FF4F2491FC01EE53FF4F3491FC011D
:10015000E255FF4FE491EE2309F43CC0222339F12C
:10016000233091F038F42130A9F0223001F584B524
:100170008F7D12C0273091F02830A1F02430B9F4DF
:10018000809180008F7D03C0809180008F77809365
:1001900080000DC084B58F7784BD09C08091B00008
:1001A0008F7703C08091B0008F7D8093B000F0E026
:1001B000EE0FFF1FE656FF4FA591B4919FB7F8943D
:1001C000611104C08C913095382302C0EC913E2B14
:1001D0003C939FBF08951F93CF93DF93182FEB019C
:1001E0000E947F00209711F460E004C0CF3FD1054A
:1001F00039F461E0812FDF91CF911F910C949E0023
:10020000E12FF0E0EA57FF4FE491E330F9F048F4D2
:10021000E130B9F0E230A1F584B5806284BDC8BD9B
:1002200034C0E730E9F0E83019F1E43049F5809165
:100230008000806280938000D0938B00C0938A00FE
:1002400024C084B5806884BDC7BD1FC08091800074
:10025000806880938000D0938900C093880015C087
:100260008091B00080688093B000C093B3000DC04F
:100270008091B00080628093B000C093B40005C04C
:10028000C038D1050CF0B5CFAFCFDF91CF911F9122
:100290000895CF92DF92EF92FF92CF93DF9300D039
:1002A00000D0CDB7DEB70E946C020E94770420E038
:1002B00030E04FE753E40E940A046B017C0120E028
:1002C00030E0A9010E94D103181624F0F7FAF09447
:1002D000F7F8F094AE014F5F5F4FC701B6010E947F
:1002E000D60369817A818B819C810E944A03CB016C
:1002F0000F900F900F900F90DF91CF91FF90EF90A4
:10030000DF90CF9008951F920F920FB60F92112495
:100310002F933F938F939F93AF93BF938091090146
:1003200090910A01A0910B01B0910C01309108014C
:1003300023E0230F2D3720F40196A11DB11D05C028
:1003400026E8230F0296A11DB11D2093080180937A
:10035000090190930A01A0930B01B0930C018091C5
:10036000040190910501A0910601B0910701019649
:10037000A11DB11D8093040190930501A093060176
:10038000B0930701BF91AF919F918F913F912F91B2
:100390000F900FBE0F901F901895789484B58260CF
:1003A00084BD84B5816084BD85B5826085BD85B519
:1003B000816085BD80916E00816080936E00109297
:1003C0008100809181008260809381008091810012
:1003D00081608093810080918000816080938000A3
:1003E0008091B10084608093B1008091B000816001
:1003F0008093B00080917A00846080937A0080912D
:100400007A00826080937A0080917A008160809384
:100410007A0080917A00806880937A001092C100FF
:1004200089E00E947F008AE00E947F008BE00E94AA
:100430007F00C0E0D0E0C0900001D0900101E090CA
:100440000201F090030120E030E040E450E4C701F5
:10045000B6010E94D80220E030E0A9010E944901C3
:10046000BC0189E00E94EB00A7019601C701B6011B
:100470000E946C0220E030E040E450E40E94D80288
:1004800020E030E0A9010E944901BC018AE00E94FD
:10049000EB002BED3FE049EC5FE3C701B6010E94A2
:1004A0004901BC018BE00E94EB0027E137EB41EDF5
:1004B00058E3C701B6010E946C026093000170937B
:1004C00001018093020190930301209709F4B3CFB7
:1004D0000E940000B0CF5058BB27AA270E94830279
:1004E0000C9497030E94890338F00E94900320F037
:1004F00039F49F3F19F426F40C9486030EF4E0952A
:10050000E7FB0C948003E92F0E94A80358F3BA1765
:10051000620773078407950720F079F4A6F50C9419
:10052000CA030EF4E0950B2EBA2FA02D0B01B901D2
:1005300090010C01CA01A0011124FF27591B99F059
:10054000593F50F4503E68F11A16F040A22F232F65
:10055000342F4427585FF3CF469537952795A795B5
:10056000F0405395C9F77EF41F16BA0B620B730B5C
:10057000840BBAF09150A1F0FF0FBB1F661F771FCD
:10058000881FC2F70EC0BA0F621F731F841F48F482
:10059000879577956795B795F7959E3F08F0B0CF0B
:1005A0009395880F08F09927EE0F979587950895F2
:1005B0000E94EC020C9497030E94900358F00E9452
:1005C000890340F029F45F3F29F00C948003511116
:1005D0000C94CB030C9486030E94A80368F3992320
:1005E000B1F3552391F3951B550BBB27AA2762172F
:1005F0007307840738F09F5F5F4F220F331F441F3C
:10060000AA1FA9F335D00E2E3AF0E0E832D091506F
:100610005040E695001CCAF72BD0FE2F29D0660F5C
:10062000771F881FBB1F261737074807AB07B0E89F
:1006300009F0BB0B802DBF01FF2793585F4F3AF0A5
:100640009E3F510578F00C9480030C94CB035F3FE0
:10065000E4F3983ED4F3869577956795B795F7952B
:100660009F5FC9F7880F911D9695879597F9089513
:10067000E1E0660F771F881FBB1F621773078407AF
:10068000BA0720F0621B730B840BBA0BEE1F88F7BE
:10069000E09508950E9451036894B1110C94CB0326
:1006A00008950E94B00388F09F5798F0B92F9927BA
:1006B000B751B0F0E1F0660F771F881F991F1AF04D
:1006C000BA95C9F714C0B13091F00E94CA03B1E0E5
:1006D00008950C94CA03672F782F8827B85F39F0E4
:1006E000B93FCCF3869577956795B395D9F73EF4E6
:1006F00090958095709561957F4F8F4F9F4F08958E
:1007000097F99F6780E870E060E008959FEF80ECC4
:10071000089500240A941616170618060906089567
:1007200000240A9412161306140605060895092ECD
:100730000394000C11F4882352F0BB0F40F4BF2B3C
:1007400011F460FF04C06F5F7F4F8F4F9F4F08957C
:1007500057FD9058440F551F59F05F3F71F0479572
:10076000880F97FB991F61F09F3F79F08795089557
:10077000121613061406551FF2CF4695F1DF08C076
:10078000161617061806991FF1CF86957105610593
:1007900008940895E894BB2766277727CB0197F93B
:1007A00008950E947F0408F48FEF0895FA01DC0198
:1007B000AA0FBB1F9B01AC01BF5728F42227332788
:1007C0004427507820C0B75190F4AB2F00244695B1
:1007D00037952795011CA395D2F3002071F0220FC5
:1007E000331F441FB395DAF30ED00C946B026130C3
:1007F0007105A0E88A07B94630F49B01AC01662771
:10080000772788279078309621F0208331834283A0
:10081000538308950E941D040C9497030E9489033A
:1008200038F00E94900320F0952311F00C9480037F
:100830000C94860311240C94CB030E94A80370F33C
:10084000959FC1F3950F50E0551F629FF001729F75
:10085000BB27F00DB11D639FAA27F00DB11DAA1F84
:10086000649F6627B00DA11D661F829F2227B00DD1
:10087000A11D621F739FB00DA11D621F839FA00D5C
:10088000611D221F749F3327A00D611D231F849FAC
:10089000600D211D822F762F6A2F11249F57504003
:1008A0009AF0F1F088234AF0EE0FFF1FBB1F661F7E
:1008B000771F881F91505040A9F79E3F510580F047
:1008C0000C9480030C94CB035F3FE4F3983ED4F385
:1008D000869577956795B795F795E7959F5FC1F7EB
:1008E000FE2B880F911D9695879597F908959F93F4
:1008F0000E94A5040F9007FCEE5F0C94CE04990FA4
:100900000008550FAA0BE0E8FEEF16161706E807D9
:10091000F907C0F012161306E407F50798F0621BFA
:10092000730B840B950B39F40A2661F0232B242BCF
:10093000252B21F408950A2609F4A140A6958FEFEE
:10094000811D811D08950C9486030E94B003D8F385
:10095000E894E0E0BB279F57F0F02AED3FE049EC38
:1009600006C0EE0FBB0F661F771F881F28F0B23A34
:1009700062077307840728F0B25A620B730B840B6B
:10098000E3959A9572F7803830F49A95BB0F661FFD
:10099000771F881FD2F790480C94E404EF93E0FF90
:1009A00007C0A2EA2AED3FE049EC5FEB0E94830218
:1009B0000E9497030F90039401FC9058E8E6F0E042
:1009C0000C94F0049F3F31F0915020F48795779577
:1009D0006795B795880F911D9695879597F9089516
:1009E0009F938F937F936F93FF93EF939B01AC0142
:1009F0000E940A04EF91FF910E9404052F913F91FC
:100A00004F915F910C940A04DF93CF931F930F9340
:100A1000FF92EF92DF927B018C01689406C0DA2E80
:100A2000EF010E941D04FE01E894A59125913591E6
:100A300045915591A6F3EF010E948302FE019701B3
:100A4000A801DA9469F7DF90EF90FF900F911F9162
:0A0A5000CF91DF910895F894FFCFD5
:00000001FF
