:100000000C945D000C9456030C942F030C94850003
:100010000C9485000C9485000C9485000C9485004C
:100020000C9485000C9485000C9485000C9485003C
:100030000C9485000C9485000C947D030C94850031
:100040000C94E5020C9485000C94B3020C948D0280
:100050000C9485000C9485000C9485000C9485000C
:100060000C9485000C94850000000008000201003B
:100070000003040700000000000000000000000072
:10008000250028002B0000000000240027002A0083
:10009000040404040404040402020202020203032E
:1000A0000303030301020408102040800102040836
:1000B0001020010204081020190411241FBECFEFE4
:1000C000D8E0DEBFCDBF22E0AAE8B1E001C01D92BA
:1000D000AE37B207E1F711E0A0E0B1E0E8E1FDE002
:1000E00002C005900D92AA38B107D9F710E0CDE50E
:1000F000D0E004C02197FE010E948406CC35D107D0
:10010000C9F70E9458040C948A060C94000090E0F1
:10011000FC01EC55FF4F249180579F4FFC018491C7
:10012000882399F090E0880F991FFC01EA57FF4F50
:10013000A591B491FC01E458FF4F859194918FB73C
:10014000F894EC91E22BEC938FBF0895AF92BF929D
:10015000CF92DF92EF92FF920F931F93CF93DF9393
:100160006C017B018B01040F151FEB015E01AE18C2
:10017000BF08C017D10759F06991D601ED91FC91E4
:100180000190F081E02DC6010995892B79F7C50111
:10019000DF91CF911F910F91FF90EF90DF90CF9063
:1001A000BF90AF900895FC01538D448D252F30E012
:1001B000842F90E0821B930B541710F0CF96089574
:1001C00001970895FC01918D828D981761F0A28DA1
:1001D000AE0FBF2FB11D5D968C91928D9F5F9F7367
:1001E000928F90E008958FEF9FEF0895FC01918D1D
:1001F000828D981731F0828DE80FF11D858D90E08A
:1002000008958FEF9FEF0895FC01918D228D892F26
:1002100090E0805C9F4F821B91098F73992708950E
:100220008BE991E00E94040121E0892B09F420E090
:10023000822F089580E090E0892B29F00E94100120
:1002400081110C9400000895FC01A48DA80FB92F12
:10025000B11DA35ABF4F2C91848D90E001968F73EE
:100260009927848FA689B7892C93A089B1898C910D
:10027000837080648C93938D848D981306C002885C
:10028000F389E02D80818F7D80830895EF92FF9226
:100290000F931F93CF93DF93EC0181E0888F9B8DA9
:1002A0008C8D98131AC0E889F989808185FF15C063
:1002B0009FB7F894EE89FF896083E889F989808186
:1002C0008370806480839FBF81E090E0DF91CF9155
:1002D0001F910F91FF90EF900895F62E0B8D10E077
:1002E0000F5F1F4F0F731127E02E8C8D8E110CC0E6
:1002F0000FB607FCFACFE889F989808185FFF5CF31
:10030000CE010E942401F1CFEB8DEC0FFD2FF11DEA
:10031000E35AFF4FF0829FB7F8940B8FEA89FB896D
:1003200080818062CFCFCF93DF93EC01888D8823CB
:10033000B9F0AA89BB89E889F9898C9185FD03C048
:10034000808186FD0DC00FB607FCF7CF8C9185FF2D
:10035000F2CF808185FFEDCFCE010E942401E9CF4D
:10036000DF91CF9108953FB7F894809193019091D8
:100370009401A0919501B091960126B5A89B05C066
:100380002F3F19F00196A11DB11D3FBFBA2FA92F14
:10039000982F8827BC01CD01620F711D811D911D11
:1003A00042E0660F771F881F991F4A95D1F708957D
:1003B0002FB7F89460918F01709190018091910115
:1003C000909192012FBF0895089510928D01089584
:1003D00080918D018830E1F080918D018F5F809355
:1003E0008D01E0918D010E2E000CFF0BE95BFE4F9D
:1003F000E0810E2E000CFF0BE15CFE4F80819927FF
:1004000081950CF4909590938C0180938B010895C5
:1004100080E0E5CFFC0101900020E9F73197AF01C2
:10042000481B590BBC018BE991E00C94A6008F92FC
:100430009F92AF92BF920F931F93CF93DF93CDB74D
:10044000DEB7A1970FB6F894DEBF0FBECDBF19A2DD
:10045000423008F44AE08E010F5D1F4F842E912C2C
:10046000B12CA12CA50194010E946206E62FB901CE
:10047000CA01EA30F4F4E05DD801EE938D01232B3C
:10048000242B252B79F790E080E0109719F0CD010F
:100490000E940A02A1960FB6F894DEBF0FBECDBF30
:1004A000DF91CF911F910F91BF90AF909F908F9050
:1004B0000895E95CE1CFF89414BC15BC84B5826062
:1004C00084BD85B5826085BD88E287BDEEE6F0E03B
:1004D00080818260808316BC7894E898A3E3B1E0C1
:1004E00084EE91E011969C938E9385EE91E01196A7
:1004F0009C938E93E9E6F0E080818C7F826080831C
:10050000E89A88EE91E013969C938E9312978081DF
:10051000837F88608083E99A08951F920F920FB6B7
:100520000F9211242F933F934F935F936F937F9379
:100530008F939F93AF93BF93EF93FF938BE991E0DA
:100540000E942401FF91EF91BF91AF919F918F91F4
:100550007F916F915F914F913F912F910F900FBEBF
:100560000F901F9018951F920F920FB60F921124A3
:100570002F938F939F93EF93FF93E091AB01F091B3
:10058000AC018081E091B101F091B20182FD1BC00C
:1005900090818091B4018F5F8F732091B501821794
:1005A00041F0E091B401F0E0E556FE4F958F809365
:1005B000B401FF91EF919F918F912F910F900FBEFA
:1005C0000F901F9018958081F4CF1F920F920FB655
:1005D0000F9211242F933F938F939F93AF93BF93C9
:1005E00080918F0190919001A0919101B091920121
:1005F00030918E0123E0230F2D3758F50196A11D70
:10060000B11D20938E0180938F0190939001A09350
:100610009101B09392018091930190919401A091E6
:100620009501B09196010196A11DB11D8093930192
:1006300090939401A0939501B0939601BF91AF91CF
:100640009F918F913F912F910F900FBE0F901F9010
:10065000189526E8230F0296A11DB11DD2CF1F9237
:100660000F920FB60F9211242F933F934F935F93E6
:100670006F937F938F939F93AF93BF93EF93FF936A
:10068000E0913501F09136010995FF91EF91BF910D
:10069000AF919F918F917F916F915F914F913F911A
:1006A0002F910F900FBE0F901F9018951F920F92D1
:1006B0000FB60F9211242F933F934F935F936F9335
:1006C0007F938F939F93AF93BF93EF93FF93E091AB
:1006D0003301F09134010995FF91EF91BF91AF91F2
:1006E0009F918F917F916F915F914F913F912F914A
:1006F0000F900FBE0F901F9018951F920F920FB67C
:100700000F9211242F933F938F939F93AF93BF9397
:10071000EF93FF93F89480918B0190918C018F3F20
:100720009F4F0CF461C08091320120918B01309178
:100730008C01082E000C990B821793070CF454C0FF
:10074000E0918B01F0918C01E050FF4F2081E0910E
:100750008D010E2E000CFF0BE95BFE4FE0810E2E8B
:10076000000CFF0BE95CFE4F80812823EDE6F0E0F2
:100770009491E9EAF0E08491E5E9F0E0E491EE2378
:10078000E1F0992351F0933009F43AC078F59130B3
:1007900009F43CC0923009F43DC0F0E0EE0FFF1FB9
:1007A000E458FF4FA591B4919FB7F894EC912111B3
:1007B0003EC080958E238C939FBF80918B0190913A
:1007C0008C01019690938C0180938B017894FF911A
:1007D000EF91BF91AF919F918F913F912F910F908A
:1007E0000FBE0F901F90189520E0C0CF9730A9F052
:1007F0009830C9F0943089F6909180009F7D03C0B5
:10080000909180009F7790938000C7CF94B59F7799
:1008100094BDC3CF94B59F7DFBCF9091B0009F77DF
:100820009093B000BACF9091B0009F7DF9CF8E2BFE
:10083000C2CFEBE9F1E01382128288EE93E0A0E0F0
:10084000B0E084839583A683B78383E591E09183A9
:10085000808385EC90E09587848784EC90E097878F
:10086000868780EC90E0918B808B81EC90E0938B7D
:10087000828B82EC90E0958B848B86EC90E0978B5A
:10088000868B118E128E138E148EE8E3F2E01682A0
:100890001782108611861286138614861586168690
:1008A0001786108A118A128A138A148A158A089563
:1008B000789484B5826084BD84B5816084BD85B53B
:1008C000826085BD85B5816085BD80916E00816047
:1008D00080936E00109281008091810082608093ED
:1008E00081008091810081608093810080918000EF
:1008F0008160809380008091B10084608093B1001A
:100900008091B00081608093B00080917A00846013
:1009100080937A0080917A00826080937A0080913F
:100920007A00816080937A0080917A008068809359
:100930007A001092C10010927A0210927B021092FB
:100940007C0210927D0210923A0210923B021092A9
:100950003C0210923D020E94D8016B017C014B01C8
:100960005C0128EB820E2BE0921EA11CB11C0E94A0
:10097000D8016C157D058E059F0528F08616970613
:10098000A806B906A0F70E94B3014B015C0198EEDE
:10099000C92E93E0D92EE12CF12C0E94B3016819E5
:1009A00079098A099B09683E734081059105A8F37E
:1009B00031E0C31AD108E108F10848EE840E43E0A3
:1009C000941EA11CB11CC114D104E104F10429F747
:1009D000E091AB01F091AC0182E08083E091A7014E
:1009E000F091A8011082E091A901F091AA0180E1A3
:1009F00080831092B301E091AF01F091B00186E0E5
:100A00008083E091AD01F091AE01808180618083AF
:100A1000E091AD01F091AE01808188608083E0912A
:100A2000AD01F091AE01808180688083E091AD01DD
:100A3000F091AE0180818F7D80830E94D801609308
:100A40003A0270933B0280933C0290933D0281E610
:100A500091E00E940A020E94D8016B017C014B01C7
:100A60005C018AE0880E911CA11CB11C0E94D80177
:100A70006C157D058E059F0528F086169706A8063D
:100A8000B906A0F781E080934E028DE00E948700B6
:100A900085E00E9487008BE592E09093340180937B
:100AA0003301809169008C7F80936900E89AC0E0EF
:100AB000D0E084EF882E99249394A12CB12C0E942D
:100AC000D801672B682B692B09F4E0C00E94D8017C
:100AD000C0909701D0909801E0909901F0909A0110
:100AE0006C157D058E059F0508F4E3C0C090970145
:100AF000D0909801E0909901F0909A019B01AC018F
:100B00002C193D094E095F0969017A013AEFC316B4
:100B1000D104E104F10408F4C1C06093970170931B
:100B200098018093990190939A0180924602909245
:100B30004702A0924802B092490210924A021092D3
:100B40004B0210924C0210924D0280913E02909105
:100B50003F02A0914002B0914102809342029093E3
:100B60004302A0934402B09345020E94D8016093CF
:100B70003E0270933F0280934002909341020E9494
:100B8000D80160933A0270933B0280933C029093A9
:100B90003D020E94D8016B017C0182E791E00E9436
:100BA0000A024AE061E070E080E090E00E941702F3
:100BB00089E791E00E940A024AE0C701B6010E945B
:100BC00017028BE791E00E940A0280913E02909109
:100BD0003F02A0914002B0914102A7019601281B5B
:100BE000390B4A0B5B0BCA01B9014AE00E9417029C
:100BF0008BE791E00E940A0260913E0270913F02F1
:100C00008091400290914102C0904202D0904302F4
:100C1000E0904402F09045026C197D098E099F090D
:100C20004AE00E9417028DE791E00E940A020E94AA
:100C3000D8014AE00E9417028FE791E00E940A0261
:100C400086E891E00E940A020E94D8012B013C0133
:100C50007C016B0135E0C30ED11CE11CF11C0E942C
:100C6000D801641575058605970528F0C616D706C0
:100C7000E806F906A0F70E94D80160933E0270933F
:100C80003F02809340029093410208C00E94D80125
:100C9000623071058105910508F018CF209709F49D
:100CA0000ECF0E941001882309F409CF0E94000092
:100CB00006CF609397017093980180939901909368
:100CC0009A0114CFA1E21A2EAA1BBB1BFD010DC075
:100CD000AA1FBB1FEE1FFF1FA217B307E407F507EC
:100CE00020F0A21BB30BE40BF50B661F771F881FC8
:100CF000991F1A9469F760957095809590959B015E
:100D0000AC01BD01CF010895EE0FFF1F0590F491D6
:080D1000E02D0994F894FFCFD7
:100D1800FFFFC3C3C3C3FFFF00C6C7C7FFFFFFC0B2
:100D280000000000000000000000000000000000BB
:100D380000000000000000000000000000000000AB
:100D4800000010E401E4010102040810204080655D
:100D5800727A646E5E61570006050403020107009B
:100D68000000004601A600D30093010401E200F64A
:100D780000564D4450565F317C315F564D445056B5
:100D88000A00564D4450455F003A323A007C005FF5
:0A0D9800564D445045000D0A0000BE
:107E0000112484B714BE81FFF0D085E080938100F7
:107E100082E08093C00088E18093C10086E0809377
:107E2000C20080E18093C4008EE0C9D0259A86E02C
:107E300020E33CEF91E0309385002093840096BBD3
:107E4000B09BFECF1D9AA8958150A9F7CC24DD24C4
:107E500088248394B5E0AB2EA1E19A2EF3E0BF2EE7
:107E6000A2D0813461F49FD0082FAFD0023811F036
:107E7000013811F484E001C083E08DD089C08234E0
:107E800011F484E103C0853419F485E0A6D080C0E4
:107E9000853579F488D0E82EFF2485D0082F10E0AE
:107EA000102F00270E291F29000F111F8ED06801E7
:107EB0006FC0863521F484E090D080E0DECF843638
:107EC00009F040C070D06FD0082F6DD080E0C81688
:107ED00080E7D80618F4F601B7BEE895C0E0D1E017
:107EE00062D089930C17E1F7F0E0CF16F0E7DF06D8
:107EF00018F0F601B7BEE89568D007B600FCFDCFD4
:107F0000A601A0E0B1E02C9130E011968C91119780
:107F100090E0982F8827822B932B1296FA010C0160
:107F200087BEE89511244E5F5F4FF1E0A038BF0790
:107F300051F7F601A7BEE89507B600FCFDCF97BE46
:107F4000E89526C08437B1F42ED02DD0F82E2BD052
:107F50003CD0F601EF2C8F010F5F1F4F84911BD097
:107F6000EA94F801C1F70894C11CD11CFA94CF0C13
:107F7000D11C0EC0853739F428D08EE10CD085E9AC
:107F80000AD08FE07ACF813511F488E018D01DD067
:107F900080E101D065CF982F8091C00085FFFCCF94
:107FA0009093C60008958091C00087FFFCCF809118
:107FB000C00084FD01C0A8958091C6000895E0E648
:107FC000F0E098E1908380830895EDDF803219F02E
:107FD00088E0F5DFFFCF84E1DECF1F93182FE3DFCA
:107FE0001150E9F7F2DF1F91089580E0E8DFEE27F6
:047FF000FF270994CA
:027FFE00040479
:0400000300007E007B
:00000001FF