:100000000C945D000C9485000C9485000C94850084
:100010000C9485000C9485000C9485000C9485004C
:100020000C9485000C9485000C9485000C9485003C
:100030000C9485000C9485000C9485000C9485002C
:100040000C9451030C9485000C941F030C94F9023A
:100050000C9485000C9485000C9485000C9485000C
:100060000C9485000C94850000000008000201003B
:100070000003040700000000000000000000000072
:10008000250028002B0000000000240027002A0083
:10009000040404040404040402020202020203032E
:1000A0000303030301020408102040800102040836
:1000B00010200102040810209B0311241FBECFEF63
:1000C000D8E0DEBFCDBF22E0A8E3B1E001C01D92C1
:1000D000AC32B207E1F711E0A0E0B1E0E0ECFCE007
:1000E00002C005900D92A833B107D9F710E0CDE515
:1000F000D0E004C02197FE010E945306CC35D10701
:10010000C9F70E94DA030C945E060C94000090E09C
:10011000FC01EC55FF4F2491FC01E057FF4F849107
:10012000882399F090E0880F991FFC01EA57FF4F50
:10013000A591B491FC01E458FF4F859194918FB73C
:10014000F894EC91E22BEC938FBF0895CF92DF925D
:10015000EF92FF920F931F93CF93DF936C017A017D
:100160008B01C0E0D0E0CE15DF0581F0D8016D91A4
:100170008D01D601ED91FC910190F081E02DC60139
:100180000995892B11F02196EECF7E01C701DF91F1
:10019000CF911F910F91FF90EF90DF90CF90089536
:1001A000089580E090E00895FC01538D448D252F43
:1001B00030E0842F90E0821B930B541710F0CF9601
:1001C000089501970895FC01918D828D981761F033
:1001D000828DDF01A80FB11D5D968C91928D9F5F7E
:1001E0009F73928F90E008958FEF9FEF0895FC0129
:1001F000918D828D981731F0828DE80FF11D858DDC
:1002000090E008958FEF9FEF0895FC01918D228D6E
:10021000892F90E0805C9F4F821B91098F739927F3
:10022000089587E491E00E94050121E0892B09F4FB
:1002300020E0822F0895FC01848DDF01A80FB11DFD
:10024000A35ABF4F2C91848D90E001968F7399270C
:10025000848FA689B7892C93A089B1898C918370EA
:1002600080648C93938D848D981306C00288F389E3
:10027000E02D80818F7D80830895EF92FF920F9310
:100280001F93CF93DF93EC0181E0888F9B8D8C8D42
:10029000981305C0E889F989808185FD26C0F62E6E
:1002A0000B8D10E00F5F1F4F0F731127E02E8C8D09
:1002B000E8120CC00FB607FCFACFE889F9898081F3
:1002C00085FFF5CFCE010E941B01F1CF8B8DFE0182
:1002D000E80FF11DE35AFF4FF0829FB7F8940B8FA0
:1002E000EA89FB89808180620AC09FB7F894EE8911
:1002F000FF896083E889F9898081837080648083C5
:100300009FBF81E090E0DF91CF911F910F91FF900F
:10031000EF900895CF93DF93EC01888D8823C9F087
:10032000EA89FB89808185FD05C0A889B9898C91FE
:1003300086FD0FC00FB607FCF5CF808185FFF2CF99
:10034000A889B9898C9185FFEDCFCE010E941B0150
:10035000E7CFDF91CF91089580E090E0892B29F0DD
:100360000E94110181110C940000089590E0FC019D
:10037000E859FF4F2491FC01EC55FF4F3491FC01EB
:10038000E057FF4FE491EE2309F43CC0222339F1FA
:10039000233091F038F42130A9F0223001F584B5F2
:1003A0008F7D12C0273091F02830A1F02430B9F4AD
:1003B000809180008F7D03C0809180008F77809333
:1003C00080000DC084B58F7784BD09C08091B000D6
:1003D0008F7703C08091B0008F7D8093B000F0E0F4
:1003E000EE0FFF1FE458FF4FA591B4919FB7F8940B
:1003F000611104C08C913095382302C0EC913E2BE2
:100400003C939FBF08953FB7F89480913D01909130
:100410003E01A0913F01B091400126B5A89B05C0C7
:100420002F3F19F00196A11DB11D3FBFBA2FA92F73
:10043000982F8827820F911DA11DB11DBC01CD01F0
:1004400042E0660F771F881F991F4A95D1F70895DC
:100450002FB7F8946091390170913A0180913B0176
:1004600090913C012FBF08956115710579F0FB0152
:1004700001900020E9F73197AF01461B570BDC01D3
:10048000ED91FC910280F381E02D099480E090E0F1
:1004900008958F929F92AF92BF92EF92FF920F9327
:1004A0001F93CF93DF93CDB7DEB7A1970FB6F89424
:1004B000DEBF0FBECDBF7C01FA01CB0119A22230F5
:1004C00008F42AE08E010F5D1F4F822E912CA12C83
:1004D000B12CBF01A50194010E943106F901CA01A6
:1004E000015011096A3014F4605D01C0695CD801E3
:1004F0006C93232B242B252B61F7B801C7010E9495
:100500003402A1960FB6F894DEBF0FBECDBFDF91C7
:10051000CF911F910F91FF90EF90BF90AF909F9060
:100520008F900895CF93DF93EC0189E00E948700BC
:10053000209711F460E004C0CF3FD10529F461E0B9
:1005400089E00E94B60143C0E1E7F0E0E491E330C6
:10055000F9F048F4E130B9F0E230A1F584B58062F9
:1005600084BDC8BD34C0E730E9F0E83019F1E430AB
:1005700049F580918000806280938000D0938B0049
:10058000C0938A0024C084B5806884BDC7BD1FC0E5
:1005900080918000806880938000D0938900C09310
:1005A000880015C08091B00080688093B000C0932F
:1005B000B3000DC08091B00080628093B000C09302
:1005C000B40005C0C038D1050CF0B9CFB3CF8AE074
:1005D0000E94870061E08AE00E94B6018BE00E94E1
:1005E000870061E08BE0DF91CF910C94B6010E940F
:1005F00059061F920F920FB60F9211242F933F931B
:100600004F935F936F937F938F939F93AF93BF931A
:10061000EF93FF9387E491E00E941B01FF91EF911C
:10062000BF91AF919F918F917F916F915F914F910A
:100630003F912F910F900FBE0F901F9018951F9212
:100640000F920FB60F9211242F938F939F93EF93D6
:10065000FF93E0915701F09158018081E0915D0195
:10066000F0915E0182FD12C09081809160018F5FE8
:100670008F7320916101821751F0E0916001F0E0E9
:10068000E95BFE4F958F8093600101C08081FF91EF
:10069000EF919F918F912F910F900FBE0F901F9010
:1006A00018951F920F920FB60F9211242F933F931C
:1006B0008F939F93AF93BF938091390190913A01AB
:1006C000A0913B01B0913C013091380123E0230F10
:1006D0002D3720F40196A11DB11D05C026E8230F7A
:1006E0000296A11DB11D209338018093390190938A
:1006F0003A01A0933B01B0933C0180913D01909160
:100700003E01A0913F01B09140010196A11DB11D94
:1007100080933D0190933E01A0933F01B09340012F
:10072000BF91AF919F918F913F912F910F900FBEED
:100730000F901F901895E7E4F1E01382128288EE83
:1007400093E0A0E0B0E084839583A683B78384E040
:1007500091E09183808385EC90E09587848784EC99
:1007600090E09787868780EC90E0918B808B81EC7E
:1007700090E0938B828B82EC90E0958B848B86EC5F
:1007800090E0978B868B118E128E138E148EE4EE72
:10079000F1E016821782108611861286138614865F
:1007A000158616861786108A118A128A138A148A69
:1007B000158A0895789484B5826084BD84B581607B
:1007C00084BD85B5826085BD85B5816085BD80911C
:1007D0006E00816080936E00109281008091810094
:1007E000826080938100809181008160809381008C
:1007F000809180008160809380008091B10084604E
:100800008093B1008091B00081608093B0008091AE
:100810007A00846080937A0080917A00826080936D
:100820007A0080917A00816080937A0080917A00CA
:10083000806880937A001092C10010922802109272
:10084000290210922A0210922B021092E6011092B5
:10085000E7011092E8011092E9010E9428026B0161
:100860007C014B015C0128EB820E2BE0921EA11C47
:10087000B11C0E9428026C157D058E059F0528F08D
:1008800086169706A806B906A0F787E491E090932C
:10089000270280932602E0915701F091580182E0EF
:1008A0008083E0915301F09154011082E091550151
:1008B000F091560180E1808310925F01E0915B012D
:1008C000F0915C0186E08083E0915901F0915A013A
:1008D000808180618083E0915901F0915A0180818B
:1008E00088608083E0915901F0915A01808180688D
:1008F0008083E0915901F0915A0180818F7D80833E
:100900000E9428026093E6017093E7018093E8015A
:100910009093E90162E171E08091260290912702B3
:100920000E9434020E9428026B017C014B015C0191
:100930003AE0830E911CA11CB11C0E9428026C1588
:100940007D058E059F0528F086169706A806B90630
:10095000A0F781E08093FA0189E00E9487008AE095
:100960000E9487008BE00E94870094EF892E9924D3
:100970009394A12CB12CCFEFDFEF0E942802672BBC
:10098000682B692B41F40E942802623071058105B1
:10099000910508F410C10E942802C0904301D09034
:1009A0004401E0904501F09046016C157D058E05EF
:1009B0009F0540F460934301709344018093450187
:1009C00090934601C0904301D0904401E0904501CE
:1009D000F09046019B01AC012C193D094E095F09BD
:1009E00069017A013AEFC316D104E104F10408F475
:1009F000E2C060934301709344018093450190935A
:100A000046018092F2019092F301A092F401B0921B
:100A1000F5011092F6011092F7011092F801109270
:100A2000F9018091EA019091EB01A091EC01B09164
:100A3000ED018093EE019093EF01A093F001B0934C
:100A4000F1010E9428026093EA017093EB01809308
:100A5000EC019093ED010E9428026093E6017093EF
:100A6000E7018093E8019093E9010E9428026B015D
:100A70007C0164E271E080912602909127020E943D
:100A800034022AE041E050E060E070E0809126020C
:100A9000909127020E9449026BE271E08091260248
:100AA000909127020E9434022AE0B701A6018091AA
:100AB0002602909127020E9449026DE271E0809126
:100AC0002602909127020E9434028091EA019091BF
:100AD000EB01A091EC01B091ED01B701A601481B1B
:100AE000590B6A0B7B0B2AE080912602909127021A
:100AF0000E9449026DE271E08091260290912702E6
:100B00000E9434024091EA015091EB016091EC01A6
:100B10007091ED018091EE019091EF01A091F001B3
:100B2000B091F101481B590B6A0B7B0B2AE08091B5
:100B30002602909127020E9449026FE271E08091A3
:100B40002602909127020E9434020E942802AB01E3
:100B5000BC012AE080912602909127020E9449025E
:100B6000E0902602F090270261E371E0C7010E9445
:100B7000340261E271E0C7010E9434020E9428023F
:100B80002B013C016B017C0145E0C40ED11CE11C32
:100B9000F11C0E942802641575058605970508F06A
:100BA00059C00E9428026093EA017093EB01809380
:100BB000EC019093ED0180914101909142018130CF
:100BC000910541F08230910551F0892B81F488EC38
:100BD00090E002C084E690E00E94920208C08FE09C
:100BE00090E00E949202D0934201C0934101809113
:100BF00041019091420101969093420180934101FD
:100C00000E9403022B013C0184EFC82EDD24D39403
:100C1000E12CF12C0E940302DC01CB01841995091F
:100C2000A609B709883E9340A105B10598F351E0A4
:100C3000C51AD108E108F10888EE480E83E0581E75
:100C4000611C711CC114D104E104F10419F70E9464
:100C5000AC0193CEC616D706E806F90608F099CF80
:100C6000A0CFA1E21A2EAA1BBB1BFD010DC0AA1F1B
:100C7000BB1FEE1FFF1FA217B307E407F50720F005
:100C8000A21BB30BE40BF50B661F771F881F991F80
:100C90001A9469F760957095809590959B01AC01C9
:100CA000BD01CF010895EE0FFF1F0590F491E02DD7
:100CB000099481E090E0F8940C945E06F894FFCFDC
:100CC000000000003D01A600D4008A010501E300F8
:100CD000F700564D4450565F317C315F564D4450BD
:100CE000560D0A00564D4450455F003A323A007C9A
:080CF000005F564D4450450021
:00000001FF
