:100000000C945D000C9485000C9485000C94850084
:100010000C9485000C9485000C9485000C9485004C
:100020000C9485000C9485000C9485000C9485003C
:100030000C9485000C9485000C9485000C9485002C
:100040000C9414030C9485000C94E2020C94BC02F2
:100050000C9485000C9485000C9485000C9485000C
:100060000C9485000C94850000000008000201003B
:100070000003040700000000000000000000000072
:10008000250028002B0000000000240027002A0083
:10009000040404040404040402020202020203032E
:1000A0000303030301020408102040800102040836
:1000B00010200102040810205E0311241FBECFEFA0
:1000C000D8E0DEBFCDBF22E0AEE5B1E001C01D92B9
:1000D000A735B207E1F711E0A0E0B1E0ECE3FDE005
:1000E00002C005900D92AE35B107D9F710E0CDE50D
:1000F000D0E004C02197FE010E949106CC35D107C3
:10010000C9F70E949D030C949C060C940000E2E742
:10011000F1E0A089B18982E08C93A485B5851C9219
:10012000A685B7858FEC8C93108EA489B58986E05F
:100130008C93A289B3898C9180618C93A289B389B5
:100140008C9188608C93A289B3898C9180688C9300
:100150000288F389E02D80818F7D8083089590E06F
:10016000FC01EC55FF4F2491FC01E057FF4F8491B7
:10017000882399F090E0880F991FFC01EA57FF4F00
:10018000A591B491FC01E458FF4F859194918FB7EC
:10019000F894EC91E22BEC938FBF0895CF92DF920D
:1001A000EF92FF920F931F93CF93DF936C017A012D
:1001B0008B01C0E0D0E0CE15DF0581F0D8016D9154
:1001C0008D01D601ED91FC910190F081E02DC601E9
:1001D0000995892B11F02196EECF7E01C701DF91A1
:1001E000CF911F910F91FF90EF90DF90CF900895E6
:1001F000089580E090E00895FC01538D448D252FF3
:1002000030E0842F90E0821B930B541710F0CF96B0
:10021000089501970895FC01918D828D981761F0E2
:10022000828DDF01A80FB11D5D968C91928D9F5F2D
:100230009F73928F90E008958FEF9FEF0895FC01D8
:10024000918D828D981731F0828DE80FF11D858D8B
:1002500090E008958FEF9FEF0895FC01918D228D1E
:10026000892F90E0805C9F4F821B91098F739927A3
:10027000089582E791E00E942D0121E0892B09F485
:1002800020E0822F0895FC01848DDF01A80FB11DAD
:10029000A35ABF4F2C91848D90E001968F739927BC
:1002A000848FA689B7892C93A089B1898C9183709A
:1002B00080648C93938D848D981306C00288F38993
:1002C000E02D80818F7D80830895EF92FF920F93C0
:1002D0001F93CF93DF93EC0181E0888F9B8D8C8DF2
:1002E000981305C0E889F989808185FD26C0F62E1E
:1002F0000B8D10E00F5F1F4F0F731127E02E8C8DB9
:10030000E8120CC00FB607FCFACFE889F9898081A2
:1003100085FFF5CFCE010E944301F1CF8B8DFE0109
:10032000E80FF11DE35AFF4FF0829FB7F8940B8F4F
:10033000EA89FB89808180620AC09FB7F894EE89C0
:10034000FF896083E889F989808183708064808374
:100350009FBF81E090E0DF91CF911F910F91FF90BF
:10036000EF900895CF93DF93EC01888D8823C9F037
:10037000EA89FB89808185FD05C0A889B9898C91AE
:1003800086FD0FC00FB607FCF5CF808185FFF2CF49
:10039000A889B9898C9185FFEDCFCE010E944301D8
:1003A000E7CFDF91CF91089580E090E0892B29F08D
:1003B0000E94390181110C940000089590E0FC0125
:1003C000E859FF4F2491FC01EC55FF4F3491FC019B
:1003D000E057FF4FE491EE2309F43CC0222339F1AA
:1003E000233091F038F42130A9F0223001F584B5A2
:1003F0008F7D12C0273091F02830A1F02430B9F45D
:10040000809180008F7D03C0809180008F778093E2
:1004100080000DC084B58F7784BD09C08091B00085
:100420008F7703C08091B0008F7D8093B000F0E0A3
:10043000EE0FFF1FE458FF4FA591B4919FB7F894BA
:10044000611104C08C913095382302C0EC913E2B91
:100450003C939FBF08953FB7F894809163019091BA
:100460006401A0916501B091660126B5A89B05C005
:100470002F3F19F00196A11DB11D3FBFBA2FA92F23
:10048000982F8827820F911DA11DB11DBC01CD01A0
:1004900042E0660F771F881F991F4A95D1F708958C
:1004A0002FB7F89460915F017091600180916101B4
:1004B000909162012FBF08950E9497066115710502
:1004C00079F0FB0101900020E9F73197AF01461B5D
:1004D000570BDC01ED91FC910280F381E02D099432
:1004E00080E090E008958F929F92AF92BF92EF923A
:1004F000FF920F931F93CF93DF93CDB7DEB7A197F2
:100500000FB6F894DEBF0FBECDBF7C01FA01CB0160
:1005100019A2223008F42AE08E010F5D1F4F822EAF
:10052000912CA12CB12CBF01A50194010E9447067A
:10053000F901CA01015011096A3014F4605D01C06B
:10054000695CD8016C93232B242B252B61F7B80110
:10055000C7010E945E02A1960FB6F894DEBF0FBEDF
:10056000CDBFDF91CF911F910F91FF90EF90BF9082
:10057000AF909F908F9008951F920F920FB60F9299
:1005800011242F933F934F935F936F937F938F9398
:100590009F93AF93BF93EF93FF9382E791E00E9405
:1005A0004301FF91EF91BF91AF919F918F917F9107
:1005B0006F915F914F913F912F910F900FBE0F90D0
:1005C0001F9018951F920F920FB60F9211242F9320
:1005D0008F939F93EF93FF93E0918201F0918301BA
:1005E0008081E0918801F091890182FD12C09081A3
:1005F00080918B018F5F8F7320918C01821751F056
:10060000E0918B01F0E0EE58FE4F958F80938B01C7
:1006100001C08081FF91EF919F918F912F910F9059
:100620000FBE0F901F9018951F920F920FB60F924A
:1006300011242F933F938F939F93AF93BF938091F8
:100640005F0190916001A0916101B09162013091D0
:100650005E0123E0230F2D3720F40196A11DB11D6B
:1006600005C026E8230F0296A11DB11D20935E014F
:1006700080935F0190936001A0936101B093620148
:100680008091630190916401A0916501B091660130
:100690000196A11DB11D8093630190936401A09305
:1006A0006501B0936601BF91AF919F918F913F918A
:1006B0002F910F900FBE0F901F901895E2E7F1E079
:1006C0001382128288EE93E0A0E0B0E084839583E9
:1006D000A683B78384E091E09183808385EC90E0EA
:1006E0009587848784EC90E09787868780EC90E0FC
:1006F000918B808B81EC90E0938B828B82EC90E0ED
:10070000958B848B86EC90E0978B868B118E128E66
:10071000138E148EEFE0F2E0168217821086118697
:10072000128613861486158616861786108A118AF5
:10073000128A138A148A158A0895789484B582607F
:1007400084BD84B5816084BD85B5826085BD85B575
:10075000816085BD80916E00816080936E001092F3
:10076000810080918100826080938100809181006E
:1007700081608093810080918000816080938000FF
:100780008091B10084608093B1008091B00081605D
:100790008093B00080917A00846080937A00809189
:1007A0007A00826080937A0080917A0081608093E1
:1007B0007A0080917A00806880937A001092C1005C
:1007C0001092530210925402109255021092560247
:1007D000109211021092120210921302109214023F
:1007E0000E9450026B017C014B015C0128EB820EE0
:1007F0002BE0921EA11CB11C0E9450026C157D05BD
:100800008E059F0528F086169706A806B906A0F75C
:1008100082E791E090935202809351020E948700F8
:100820000E9450026093110270931202809313028F
:100830009093140262E171E0809151029091520212
:100840000E945E020E9450026B017C014B015C0120
:100850003AE0830E911CA11CB11C0E9450026C1541
:100860007D058E059F0528F086169706A806B90611
:10087000A0F781E08093250284E00E94AF0085E02C
:100880000E94AF0086E00E94AF0087E00E94AF00A8
:1008900088E00E94AF000E94870064E271E082E776
:1008A00091E00E945E0261E271E082E791E00E94C5
:1008B0005E0282E791E00E942D01892BD1F382E74D
:1008C00091E00E940B018093690182E791E00E9410
:1008D000B201E0918401F091850180818F7E808357
:1008E000E0918401F09185018081877F8083E09190
:1008F0008401F091850180818F778083E09184016C
:10090000F091850180818F7D808380918C0180931F
:100910008B0194EF492E55245394612C712CC1E026
:1009200026E0222E312C0AE010E00E945002672BB4
:10093000682B692B41F40E945002623071058105D9
:10094000910508F410C10E945002C0906E01D09031
:100950006F01E0907001F09071016C157D058E05BE
:100960009F0540F460936E0170936F018093700156
:1009700090937101C0906E01D0906F01E090700172
:10098000F09071019B01AC012C193D094E095F09E2
:1009900069017A013AEFC316D104E104F10408F4C5
:1009A000E2C060936E0170936F0180937001909329
:1009B000710140921D0250921E0260921F027092BD
:1009C0002002109221021092220210922302109211
:1009D00024028091150290911602A0911702B09105
:1009E00018028093190290931A02A0931B02B093ED
:1009F0001C020E94500260931502709316028093AD
:100A00001702909318020E94500260931102709393
:100A1000120280931302909314020E9450026B0101
:100A20007C0169E471E080915102909152020E9430
:100A30005E022AE041E050E060E070E08091510207
:100A4000909152020E94730260E571E08091510220
:100A5000909152020E945E022AE0B701A6018091A5
:100A60005102909152020E94730262E571E08091FE
:100A70005102909152020E945E0280911502909163
:100A80001602A0911702B0911802B701A601481BE7
:100A9000590B6A0B7B0B2AE0809151029091520214
:100AA0000E94730262E571E08091510290915202BE
:100AB0000E945E0240911502509116026091170249
:100AC000709118028091190290911A02A0911B0254
:100AD000B0911C02481B590B6A0B7B0B2AE08091DA
:100AE0005102909152020E94730264E571E080917C
:100AF0005102909152020E945E020E945002AB018C
:100B0000BC012AE080915102909152020E9473022E
:100B1000E0905102F090520266E571E0C7010E9438
:100B20005E0261E271E0C7010E945E020E94500213
:100B30004B015C016B017C0145E0C40ED11CE11C42
:100B4000F11C0E945002681579058A059B0508F082
:100B500097C00E9450026093150270931602809312
:100B600017029093180260916A016C2760936A01E2
:100B700084E00E94DE01F0906901F0FE12C08091D5
:100B800067019091680162E070E00E946906892B1C
:100B900041F460916B016C2760936B0185E00E94CA
:100BA000DE01F1FE11C08091670190916801B101F1
:100BB0000E946906892B41F460916C016C27609357
:100BC0006C0186E00E94DE01F2FE11C08091670197
:100BD00090916801B8010E946906892B41F46091E7
:100BE0006D016C2760936D0187E00E94DE01F3FECA
:100BF00014C020916D01211109C08091670190916D
:100C00006801B8010E946906892B39F4622F6C27AC
:100C100060936D0188E00E94DE01809167019091F0
:100C20006801019690936801809367010E942B02EE
:100C30004B015C0184EFC82EDD24D394E12CF12C10
:100C40000E942B02DC01CB0188199909AA09BB0972
:100C5000883E9340A105B10598F351E0C51AD1082B
:100C6000E108F10888EE880E83E0981EA11CB11CF3
:100C7000C114D104E104F10419F70E94D40155CE46
:100C8000C616D706E806F90608F05BCF62CFA1E2E8
:100C90001A2EAA1BBB1BFD010DC0AA1FBB1FEE1FF6
:100CA000FF1FA217B307E407F50720F0A21BB30B41
:100CB000E40BF50B661F771F881F991F1A9469F7BD
:100CC00060957095809590959B01AC01BD01CF0119
:100CD000089597FB072E16F4009407D077FD09D0EE
:100CE0000E947D0607FC05D03EF4909581959F4FAC
:100CF0000895709561957F4F0895AA1BBB1B51E124
:100D000007C0AA1FBB1FA617B70710F0A61BB70B7B
:100D1000881F991F5A95A9F780959095BC01CD0120
:100D20000895EE0FFF1F0590F491E02D099481E0E6
:0C0D300090E0F8940C949C06F894FFCF1F
:100D3C00000000006501CE00FC00B2012D010B018A
:100D4C001F01564D4450565F317C315F564D445017
:100D5C00560D0A00456E746572206E756D62657273
:100D6C00202D2D3E202862696E292C20776869631E
:100D7C0068206C6564206F6E00564D4450455F00D2
:0E0D8C003A323A007C005F564D44504500005C
:00000001FF
