:100000000C94BA3918950000189500001895000056
:10001000189500001895000018950000189500002C
:100020001895000018950000189500000C942E0DEE
:10003000189500000C94DA27189500001895000018
:1000400018950000189500001895000018950000FC
:100050001895000000EF04EE041BFEFEFEFE90EF7C
:10006000044A1F7F04EE064390EF83090008AF0B9C
:10007000000A00050006000700EF0CEE90EF80007C
:10008000B0EF024900EF017F81E102E276E283E115
:10009000C698C39824E030E028D7C49AC69A21E3D2
:1000A00030E023D7CDEFDDEF23D0CDEFDDEF20D053
:1000B00023E430E01AD7E4E5F0E00AE00093BE0064
:1000C00068D026E030E011D7E8E6F0E004E10093E4
:1000D000BE005FD021E330E008D7C1E0D0E808D00F
:1000E000C0E9DFEE05D0C0E0D0E002D0C39A0895A9
:1000F000C398C49ADFB9779BFECFCFB9779BFECF69
:100100000895C398C0E9DFEEF3DFC0E0D5E0F0DF8B
:10011000C0E0D6E0EDDFC0E0D7E0EADFC0ECDAE532
:10012000C398C4982FB92DD0C150D040C9F7C39AF5
:100130000895C0E9DFEEDCDF98E0832FEC01D8DF23
:1001400099E0842FA82F8A95830FEC01D1DF95E0E9
:1001500080E0EC01CDDF9AE0822FEC01C9DF9BE06B
:10016000852FB82F8A95820FEC01C2DF0895E1DF59
:10017000AB9FE001CF5FDF4FEE0FFF1FDF01A0D08D
:100180000895779BFECF089529E030E0AED6C6985B
:10019000089500E000933A05C591D591A9DF00913B
:1001A0003A05039500933A0500913A051091BE0077
:1001B000011790F3089500E0E02E02E0F02ED7DF63
:1001C0000895315248E0349FC001E0E8F4E0E80FC0
:1001D000F91F38E0059028E0001C60F4C398C4982B
:1001E00000917E000FB9CDDF2A95B1F73A9591F7CE
:1001F00053950895C398C498009182000FB9C1DF48
:10020000F3CF5527B695A795CA2FDB2FC50F10E062
:10021000D11F388103D05E11F7CF6FC0315248E053
:10022000349FC001E0E8F4E0E80FF91F38E0F490F3
:100230007FD0F4907DD0EF5FFF4F3A95C1F7539593
:1002400008955527EA2FFB2FE50F10E0F11F349199
:10025000E5DF5E11F7CF51C05527B695A795CA2F98
:10026000DB2FC50F10E0D11F3881315248E0349F99
:10027000C001E0E8F4E0E80FF91F38E0F49078D02E
:10028000F49076D0EF5FFF4F3A95C1F753955E112A
:10029000E6CF33C0C0E8D2E5FD01C498C3986590AD
:1002A000759010E0611659F16FB8779BFECFC15081
:1002B000D0407A94B1F7C03010E0D10781F71DC06B
:1002C00016E0F11609F49DCF15E0F11629F214E0BD
:1002D000F11609F4B6CF13E0F116E1F212E0F116CF
:1002E00091F0552711E0F116C1F0FD01E50F10E086
:1002F000F11F349166DF5E11F8CFC39A0895009123
:1003000082000FB9D2CFB695A795C398C498AFB95C
:1003100038DFC150D040C9F7F0CFB695A795ED01B1
:10032000C50F10E0D11F38814CDF5E11F8CFE5CF4B
:1003300028E0F7FE10C0C398C49800917E000FB962
:1003400020DFC398C49800917E000FB91ADFFF0C1C
:100350002A9579F70895C398C498009182000FB93F
:1003600010DFC398C498009182000FB90ADFEFCF65
:1003700028E0F7FE1CC0C398C49800917E000FB916
:1003800000DFC398C49800917E000FB9FADEC398CD
:10039000C49800917E000FB9F4DEC398C498009110
:1003A0007E000FB9EEDEFF0C2A9519F70895C39869
:1003B000C498009182000FB9E4DEC398C4980091FC
:1003C00082000FB9DEDEC398C498009182000FB995
:1003D000D8DEC398C498009182000FB9D2DEE3CF73
:1003E00020D6C2C5D2202020D4CECDC020202020AF
:1003F00020D6C2C5D2202020D1C5D2CAC8202020F4
:1004000020D6C2C5D2202020D6C5CDD2D0C0202033
:1004100020D6C2C5D2202020CBD3D7C02020202078
:1004200020D6C2C5D2202020D1D2D0CECAC820200A
:1004300020CCC0D0CAC5D020D1D2C0D0D2C02020BC
:1004400020CCC0D0CAC5D020C0CDC0CBC8C7C0202A
:1004500020D6C2C5D2202020D0C0CCCAC82020209F
:1004600020DFD0CACED1D2DC20C4C8D1CFCBC5DFEB
:1004700020C7C2D3CACEC2CEC920D1C8C3CDC0CB3B
:100480000000065F5F06000000030700000703008E
:10049000147F7F147F7F140000242E6B6B3A1200B0
:1004A000466630180C666200307A4F5D377A480035
:1004B000000004070300000000001C3E6341000030
:1004C000000041633E1C0000082A3E1C1C3E2A0816
:1004D0000008083E3E080800000080E060000000C0
:1004E000000808080808080000000060600000001C
:1004F0006030180C060301003E7F5149457F3E00E5
:100500000040427F7F40400042637159496F66005E
:1005100022634949497F3600181C16537F7F5000DB
:100520002F6F4949497931003C7E4B494978300069
:10053000030371790D070300367F4949497F36006F
:10054000064F4949693F1E00000000666600000032
:10055000000080E6660000000000081C36634100D1
:100560000024242424242400004163361C080000B5
:10057000020301595D0702003E7F415D5D1F1E00C1
:100580007C7E0B090B7E7C00417F7F49497F3600D2
:100590001C3E634141632200417F7F41633E1C005A
:1005A000417F7F495D416300417F7F491D01030019
:1005B0001C3E6341513372007F7F0808087F7F0033
:1005C0000000417F7F410000307040417F3F0100CB
:1005D000417F7F081C776300417F7F41406070004E
:1005E0007F7F0E1C0E7F7F007F7F060C187F7F00B1
:1005F0003E7F4141417F3E00417F7F49090F060018
:100600003E7F4141E1FFBE00417F7F09197F6600C7
:1006100022674D49597322000007437F7F4307003B
:100620003F7F4040407F3F001F3F6040603F1F00D2
:100630003F7F6038607F3F0063771C081C77630052
:1006400000074F78784F0700476371594D67730073
:1006500000007F7F414100000103060C183060005C
:10066000000041417F7F0000080C0603060C0800D3
:10067000808080808080808000000103060400006C
:10068000207454543C784000417F3F44447C3800FF
:10069000387C4444446C2800387C44453F7F40000B
:1006A000387C5454545C1800487E7F49090302008A
:1006B00098BCA4A4F87C0400417F7F08047C7800E7
:1006C0000000447D7D4000000060E08080FD7D00F2
:1006D000417F7F10386C44000000417F7F40000064
:1006E0007C7C0C780C7C7800047C7804047C78009A
:1006F000387C4444447C380084FCF8A4243C180032
:10070000183C24A4F8FC8400447C784C040C0800B9
:10071000485C54545474240004043F7F4464200013
:100720003C7C40403C7C40001C3C6040603C1C00E9
:100730003C7C6038607C3C00446C3810386C440071
:100740009CBCA0A0A0FC7C00004C64745C4C6400C9
:100750000008083E774141000000007F7F00000054
:10076000004141773E0808001804041820201800B2
:1007700070784C464C7870000000000F0F08080895
:1007800038EE82828282828282828282828282FEAB
:10079000083E495D49413E000109117F5048400033
:1007A0004048447F05090100492A1C7F1C2A49084A
:1007B00008080808080808000014227F2214000016
:1007C00022227F3E3E1C0C0606061C386060381C48
:1007D0000A0AFAFA02FAFA0A0000FFFF00FBFB0A13
:1007E0000A0A0A0A0A0A0A0A0A0AFBFB00FBFB0AAF
:1007F0000A0A0A0B0B0A0A0A08080F0F080F0F084B
:100800000A0A0AFAFA0A0A0A0808F8F808F8F808B8
:1008100000000F0F080F0F080000000F0F0A0A0A50
:10082000000000FEFE0A0A0A0000F8F808F8F808BE
:100830000808FFFF08FFFF080A0A0AFFFF0A0A0A62
:100840000808080F0F000000000000F8F80808086A
:10085000FFFFFFFFFFFFFFFFF8F8F8F8F8F8F8F8E0
:10086000FFFFFFFF0000000000000000FFFFFFFF90
:100870000707070707070707427F7F4A4B436600C2
:10088000387D5554555D18001C3E6B494963220064
:1008900000387C5454446C2800437E7E43000000A2
:1008A00001417C7C41010000266E4949497E3E00A1
:1008B0001CBDA3A2A3FD7C00417F7F495D41630075
:1008C00000010118190100000000001010000000D4
:1008D000001030607F7F01007F7E0C187F7F05074E
:1008E0005A7E2424247E5A0000003C3C3C3C0000FC
:1008F000000000000000000000AA005500AA0055FA
:10090000AA55AA55AA55AA5555FFAAFF55FFAAFFF1
:10091000000000FFFF000000080808FFFF000000C3
:100920000A0A0AFFFF0000000808FFFF00FFFF009F
:100930000808F8F808F8F800387D5554555D180097
:100940007F06187F0A0D0A000000FFFF00FFFF006E
:100950000A0AFAFA02FEFE000A0A0B0B080F0F0041
:1009600008080F0F080F0F000A0A0A0F0F000000F7
:10097000080808F8F80000007C7E1311117F7F0042
:10098000417F7F49497B3300417F7F49497F360062
:10099000417F7F4101030300C0FC7E43417FFFC0D4
:1009A000417F7F495D41630063771C7F1C77630053
:1009B00022634949497F36007F7F30180C7F7F00D2
:1009C0007E7E31190D7E7E00417F7F081C7763009B
:1009D000407C3E03017F7F007F7F0E1C0E7F7F00E7
:1009E0007F7F0808087F7F003E7F4141417F3E00B6
:1009F0007F7F0101017F7F00417F7F51111F0E002A
:100A00003E7F4141416322000003417F7F4103005B
:100A1000276F4848487F3F000E1F517F511F0E002F
:100A200063771C081C7763007F7F40407FFFC00016
:100A3000070F0808087F7F007F7F407F407F7F008F
:100A40007F7F407F407FFFC007037F7F4878300073
:100A50007F7F4878307F7F00017F7F494878300072
:100A6000224149496B3E1C007F7F087F417F3E0049
:100A70004E7F3111117F7F00207454543C78400028
:100A8000347E4A4A4A7B3100447C7C54547C2800A2
:100A9000447C7C44040C0C00C0F87C447CFCC0000A
:100AA000387C5454545C1800446C387C386C4400D6
:100AB000286C4454547C28007C7C6030187C7C007A
:100AC0007C7C62321A7C7C00447C7C10386C440054
:100AD00040787C04047C7C007C7C1838187C7C008A
:100AE0007C7C1010107C7C00387C4444447C3800B2
:100AF0007C7C0404047C7C0084FCFCA4243C180062
:100B0000387C4444446C28000C447C7C440C000039
:100B10001CBCA0A0A0FC7C00183CA4FCA43C1800B9
:100B2000446C3810386C44007C7C40407CFCC00035
:100B30000C1C1010107C7C007C7C407C407C7C0079
:100B40007C7C407C407CFCC00C047C7C5070200091
:100B50007C7C5070207C7C00447C7C545070200055
:100B6000286C4454547C38007C7C107C447C3800D5
:100B7000487C3414147C7C0000000000000000005D
:100B80000000000000000000000000000000000065
:100B90000000000000000000000000000000000055
:100BA0000000000000000000000000000000000045
:100BB0000000000000000000000000000000000035
:100BC0000000000000000000000000000000000025
:100BD0000000000000000000000000000000000015
:100BE0000000000000000000000000000000000005
:100BF00000000000000000000000000000000000F5
:100C000000000000000000000000000000000000E4
:100C100000000000000000000000000000000000D4
:100C200000000000000000000000000000000000C4
:100C300000000000000000000000000000000000B4
:100C400000000000000000000000000000000000A4
:100C50000000000000000000000000000000000094
:100C60000000000000000000000000000000000084
:100C70000000000000000000000000000000000074
:100C8000C2FBEAEBFEF7E5EDE8E5D1E1F0EEF1209D
:100C9000EDE0F1F2F0EEE5EA2E2EC1E0F2E0F0E553
:100CA000FF20F0E0E7F0FFE6E5EDE0216669726D18
:100CB000776172654C533032305F323031323031CF
:100CC00031322A2E357573202A31757320202A324D
:100CD000757320202A36757320202A3130757320D1
:100CE0002A32307573202A35307573202A2E316DE3
:100CF00073202A2E326D73202A2E356D73202A31EF
:100D00006D7320202A326D7320202A356D732020C8
:100D10002A31306D73202A32306D73202A35306DC0
:100D200073202A302E317320302E357573202031F8
:100D30007573202020327573202020367573202093
:100D40002031307573202032307573202035307596
:100D50007320302E316D7320302E326D7320302E83
:100D6000356D732020316D73202020326D7320206B
:100D700020356D7320202031306D73202032306D8E
:100D800073202035306D732020302E3173202A31AE
:100D9000305620202A20355620202A203256202066
:100DA0002A20315620202A302E3556202A302E3245
:100DB00056202A302E3156202A35306D56202031CB
:100DC000305620202020355620202020325620204A
:100DD00020203156202020302E35562020302E3233
:100DE000562020302E3156202035306D562020865A
:100DF000872031002086872032002086872033001C
:100E0000208687882000208687882000202D444364
:100E10002000207E41432000C0E2F2EE8420C0E2A8
:100E2000F2EE8520CEE4ED2E8420CEE4ED2E85205A
:100E3000457874838420457874838520536E2D35DE
:100E40003020536E2D343520536E2D343020536EA8
:100E50002D333520536E2D333020536E2D323520F7
:100E6000536E2D323020536E2D313520536E2D317F
:100E70003020536E202D3520536E20302020536EAD
:100E8000202B3520536E2B313020536E2B313520E3
:100E9000536E2B323020536E2B323520536E2B3352
:100EA0003020536E2B333520536E2B343020536E4D
:100EB0002B343520536E2B353020CDC0D1D2D0CE3F
:100EC000C9CAC8003C2D3C3E20CFF0EEEAF0F3F258
:100ED000EAE020312DE920ECE0F0EAE5F0202032D4
:100EE0002DE920ECE0F0EAE5F02003EA1EE00150F5
:100EF0001040E9F70000000004EA1EE00150104035
:100F0000E9F700000000000021503040A9F7000080
:100F10000895EEE4FFE010913205E10F10E0F11FBB
:100F200004910093BF0000913B0500933A050091A6
:100F30003A0500FF14C0DD9A00913A0501FF0BC08D
:100F4000DE9A00913A0502FF08C0DF9A089532192F
:100F50000A05FA643219DE98F4CFDF98F7CFDD98EE
:100F6000EBCF00913405003009F4C09A00913405AC
:100F7000013009F4C0980895F894A6ECB0E0C2E1FD
:100F8000D2E003B30D9300000000C150D040C9F778
:100F900000E000939A0078940895F894A6ECB0E0ED
:100FA000C2E1D2E003B30D9300E110E00150104024
:100FB000E9F7000000000000C150D04099F700E0C0
:100FC00000939A0078940895B50CDC0C7408BC0763
:100FD0005D083708CD0721080908F507E20C0A0D5E
:100FE000F80C1C0D9D0DCE0DA30CA6ECB0E0C2E1DB
:100FF000D2E003B30D9309EB10E001501040E9F784
:1010000000000000C150D040A1F700E000939A001A
:101010000895F894A6ECB0E0C2E1D2E003B30D93DA
:1010200008E410E001501040E9F700000000000063
:101030000000C150D04091F700E000939A007894EE
:101040000895F894A6ECB0E0C2E1D2E003B30D93AA
:1010500003E210E001501040E9F700000000C15029
:10106000D040A1F700E000939A0078940895F89496
:10107000A6ECB0E0C2E1D2E003B30D9300000000A3
:101080000000000000000000000000000000000060
:101090000000000000000000000000000000000050
:1010A00000000000000000000000C150D04021F707
:1010B00000E000939A0078940895F894A6ECB0E0CC
:1010C000C2E1D2E003B30D93000000000000000075
:1010D0000000000000000000C150D04099F700E07F
:1010E00000939A0078940895F894A6ECB0E003B3C6
:1010F0000D9303B30D9303B30D9303B30D9303B398
:101100000D9303B30D9303B30D9303B30D9303B387
:101110000D9303B30D9303B30D9303B30D9303B377
:101120000D9303B30D9303B30D9303B30D9303B367
:101930000D9303B30D9300E000939A0078940895FB
:101940000DE602BF1AC105E003BF0091C200083DC9
:101950000091C300024041F406EC0093C20000E095
:101960000093C30000E002BF089526D004D000E039
:1019700000939A000895A3EDB1E0C0EED2E08C91FF
:1019800090E0A150B0408883229706EC0A1700E04F
:101990000B07A8F38D9190E0AF5FBF4F1C91810FB3
:1019A00010E0911FA150B040969587958D93A13E70
:1019B00012E0B10778F3089597DBDDDF00E00093D4
:1019C0009A000895A6ECB0E0C2E1D2E003B30D9313
:1019D00004E711E001501040E9F7000000000000AA
:1019E0000000C150D04091F700E000939A000895A4
:1019F00003E003BF0091C200083D0091C300024014
:101A000041F406EC0093C20000E00093C30000E044
:101A100002BF089503E003BF0091C200083D00919A
:101A2000C300024041F406EC0093C20000E00093C2
:101A3000C30000E002BF089503E003BF0091C200AD
:101A4000083D0091C300024041F406EC0093C2003F
:101A500000E00093C30000E002BF08950F930FB7AA
:101A60000F931F932F933F934F930F921F92AF9318
:101A7000BF93CF93DF93EF93FF938F929F92AF9299
:101A8000BF92CF92009178000030F1F400913C05B4
:101A90000B3009F470C000913C050C3009F468C0AB
:101AA00000913C050D3009F460C000913C050E30FA
:101AB00009F455C000913C050F3009F453C0009162
:101AC0003C05003109F43CCF05E003BF0091C200A2
:101AD000083D0091C300024061F406EC0093C2008F
:101AE00000E00093C30000E003BF02BF00939A0030
:101AF000000000916F000F5F00936F000091700075
:101B00000F4F00937000009171000F4F0093710010
:101B1000CF90BF90AF909F908F90FF91EF91DF910A
:101B2000CF91BF91AF911F900F904F913F912F9107
:101B30001F910F910FBF0F91189504E003BF009103
:101B4000C200083D0091C300024041F406EC00933E
:101B5000C20000E00093C30000E002BF08950CE85B
:101B600002BF0BC006EB02BF08C004E102BF05C004
:101B70000AE802BF02C000ED02BFA091C200B0910E
:101B8000C30003B30C930091C2000F5F0093C20027
:101B90000091C3000F4F0093C30098CF05E003BF2F
:101BA0000091C200083D0091C300024041F406ECE0
:101BB0000093C20000E00093C30000E002BF08955C
:101BC000A2ECBCE011C400E000936F000093700031
:101BD0000093710089C0B1991CC00091380500398B
:101BE000009139050140E8F5009138050F5F009339
:101BF0003805009139050F4F0093390500913905DB
:101C00000BBD009138050ABD0E944D3D21E330E037
:101C10006CD9CA991EC002E010913805011700E086
:101C2000109139050107B0F4009138050150009377
:101C300038050091390500400093390500913905B8
:101C40000BBD009138050ABD0E944D3D21E330E0F7
:101C50004CD931C302E00093380500E00093390508
:101C6000F8CF00E90093380501E000933905D1CFA2
:101C700000E00093A2000091330500933C05C4C22C
:101C800000918800013009F4D6C201E00093880079
:101C900000912E05003031F000912E05013009F43D
:101CA000A2C1C9C20091A100013009F4A0C2F4CFC1
:101CB0000EE110913A050117F8F000913A05003055
:101CC000C1F000919F00003071F100919F00013040
:101CD00009F468C100919F00023009F469C10091C4
:101CE0009F00033009F467C1089527EC30E0FDD868
:101CF0006ACF0E94F321E5CF0091A0000330A9F341
:101D00000091A000023059F00091A000013009F4C8
:101D100044C10091A000003009F455CFE5CF21E384
:101D200030E0E3D850CFCA9B53C1DECF8610FA1CF7
:101D3000D73B82992CC000918C00013021F100E04A
:101D400000933005009331050E94F32101E00093D8
:101D50008C00009395000093990000917800039502
:101D60000093780000917800023028F000E00093A2
:101D7000780000939A000E94A03DE6E9FEE04091C1
:101D8000780009D0089512D0829BD5CFF4CF00E01F
:101D900000938C00F0CFEE0FFF1F440FE40F10E014
:101DA000F11F05901590F0010995089500913005F7
:101DB000083E009131050340E9F520E030E050EBAA
:101DC00044E80E949900209182000E9481000091C5
:101DD0007A0003BD28E03EE350EA40E104E0F02E43
:101DE0000AE0E02EE0E4F6E00E94B7000E94F32152
:101DF0002BED35E07AD804E103BD20E030E050EB74
:101E000044E80E9499000E94A43C2FEF0E948100A8
:101E10000E94C4000E94F3212FE430E066D80E94A3
:101E2000F3212FE430E061D8C298829BFECF2BE2F1
:101E300031E05BD8009130050F5F009330050091D1
:101E400031050F4F0093310505EA1EE001501040A7
:101E5000E9F70000000000000895C398C4980091BD
:101E600082000FB90E94C1002AC000919900013080
:101E700061F00091E4021091E60201170091E50281
:101E80001091E702010709F471C021E033E05FE837
:101E900048E00E949900CAEED2E01091E402C10F1E
:101EA0001091E502D11F3FE8099028E0001CA8F638
:101EB000C398C49800917E000FB90E94C1002A9572
:101EC000A9F73A9589F705EA1EE001501040E9F7B5
:101ED0000000000000000091E6021091E4020117EA
:101EE0000091E7021091E502010708F44BC0009150
:101EF000E4021091E60201170091E5021091E70259
:101F00000107A8F10091E4021091E6020117009187
:101F1000E5021091E702010709F0BDCFC39A00E086
:101F2000009399002BE23DE052E342E0E0917B0018
:101F3000F0E00E94DB002BE230E052E342E0E0916F
:101F40007B00F0E00E94DB002BE232E052E04DE04B
:101F5000E0917B00F0E00E94DB002BE531E052E0F5
:101F60004EE0E0917B00F0E00E94DB0008950091DC
:101F7000E4020F5F0093E4020091E5020F4F00932B
:101F8000E502C0CF0091E40201500093E402009109
:101F9000E50200400093E502B5CF2DE130E00E945C
:101FA000750711CEB19B01C09FCECA9907C09CCEC8
:101FB000C99B04C099CECB9B01C096CE2EE030E0E9
:101FC0000E94750700913A05039500933A0570CE7B
:101FD000B199F4CF89CE00E00093A10000913205C1
:101FE00000933B0511C10091A200013009F4FFC02C
:101FF00058CE0091A100013009F439C11CC000E0A5
:102000000093A2000091330500933C053DC100E020
:102010000093A1000091320500933B0535C100916A
:102020008900013009F447C101E000938900009163
:102030002E050030F1F200912E05013009F03BC170
:102040000091A200013009F412C1F9CF02E000931F
:10205000A0002FC100E000932E050093E60200933C
:10206000E7020E94F32179C006E000932E0500E20A
:102070000093E60201E00093E7020E94F3218FC083
:102080009ED10AEE0093E80202E00093E90250E3D9
:10209000459F0091E802000D0093E8020091E902DB
:1020A000011D0093E90256E0259FA00DB11D06E039
:1020B000E02E5527FD01E50F10E0F11F349131525C
:1020C00048E0349FC001E0E8F4E0E80FF91F38E091
:1020D000C091E802D091E902059008820091E802DF
:1020E0000F5F0093E8020091E9020F4F0093E902AD
:1020F0003A9571F753955E11DDCF089500E0009396
:102100008A002BC000E000938B0049C001D00895E5
:1021100040912E0554D1CB99F1CF00918A00013026
:10212000E1F001E000938A000091E60200320091A4
:10213000E702014009F48ECF0E94F32100912E05A1
:10214000039500932E050091E602005D0093E602E0
:102150000091E7020F4F0093E702C999D3CF009196
:102160008B000130E1F001E000938B000091E6026A
:1021700000300091E702004009F476CF0E94F3217D
:1021800000912E050A9500932E050091E60200535A
:102190000093E6020091E70200400093E7020091FD
:1021A0002E05063009F417CD00912E05033009F4F1
:1021B0004DC100E000933A05CA9940C100918D00DD
:1021C000013009F43EC1B19B3CC10E944D3DA2E3E8
:1021D000B5E010912E05A10F10E0B11F0C911091E8
:1021E0002F05011709F4E3C00C9103950C9301E04E
:1021F0000093990000912E05003009F4ECCE009177
:102200002E05013009F434CD40912E052C9138DF94
:102210002CDE00912E05043009F4B6C000E00093D6
:102220009F0000912E05043009F49FC003E0009345
:10223000A0003EDDC1CF00E000933A05B19902C194
:1022400000918D00013009F400C1CA9BFEC00E94BC
:102250004D3DA2E3B5E010912E05A10F10E0B11F96
:102260000C91003009F49BC00C910A950C9301E08D
:102270000093990000912E05003009F4C8CE00911A
:102280002E05013009F4BBCE40912E052C91F8DECD
:10229000ECDD00912E05043009F46BC001E00093E1
:1022A0009F0000912E05043009F4D0CE03E0009386
:1022B000A000FEDCC3CF00912E05003009F1009193
:1022C0002E050130E9F000912E050630C9F0CDDD74
:1022D000089510E11EBB10E01FBBE09A0DB3009300
:1022E000380511E11EBB10E01FBBE09A0DB300934F
:1022F0003905009139050BBD009138050ABD20C094
:10230000CA992CC0B199E3CF00918D00003009F03B
:10231000DECF01E000938D000093A30000939900AD
:1023200000912E05013079F000912E05063089F2DA
:1023300001E00093A10040E020913205A1DE95DD8F
:102340000E94F321C4CF01E00093A20000E00093BB
:102350003C0541E02091330593DEF1CFB19901C0F6
:10236000B6CF00E000938D00B2CF02E00093A00052
:1023700060CF00E000939A000093A3000E947229AE
:1023800001E00093A3008ACF00E000939A0000933D
:10239000A3000E94722901E00093A3003FCF0091A7
:1023A0002E05023009F03BCE01E00C9360CF009186
:1023B0002E05023009F064CC00E00C9318CF439551
:1023C000413049F40091A1000130A9F1AEEBBDE02C
:1023D00007E000932F05423051F40091A200013034
:1023E00009F4EECBA8E2BDE000E100932F054330F5
:1023F00029F4ACE0BEE001E000932F05443029F45D
:10240000A8E1BEE006E000932F05453029F4ACE3D7
:10241000BEE004E100932F05463029F4AEEEBDE0A6
:1024200002E000932F05473029F4A0E0BEE001E070
:1024300000932F050895AEE8BDE0CACF00E00093F9
:102440008800F9CE00E00093890035CFCA991EC0FC
:102450000E94F321A2E3B5E010912E05A10F10E038
:10246000B11F01E0009399000C9103950C930C911E
:1024700010912F05011711F400E00C9340912E05E7
:102480002C91FEDD2BE231E00E947507B19909C065
:102490000E94F3212BE231E00E94750700E00093D7
:1024A000940009CF007800780078007800780078F0
:1024B000007800780078007800580301001F0014AD
:1024C000FF1E0017FF0E0303FF0D00110012FF2275
:1024D0000013FF100303FF0F000F0011FF01032380
:1024E0000011FF110303FF10000E0010FF02032371
:1024F000FF01000FFF120303FF11000D000FFF0388
:102500000302FF1F0302FF02000DFF130303FF126C
:10251000000C000FFF030302FF1F0302FF02000D68
:10252000FF130303FF12000C000EFF040302FF1F42
:102530000302FF03000BFF140303FF13000B000E45
:10254000FF040302FF0BE004FF100302FF03000B74
:10255000FF140303FF13000B000EFF040302FF0B25
:10256000E006FF0E0302FF03000BFF140303FF133B
:10257000000B000EFF040302FF0BE007FF04100234
:10258000FF070302FF03000BFF140303FF13000BFD
:10259000000EFF040302FF0EE005FF011004FF0719
:1025A0000302FF03000BFF140303FF13000B000ED5
:1025B000FF040302B701FF01FF0EE0021004FF0950
:1025C0000302FF03000BFF0BFF01AD018001A90116
:1025D000D601FF04E007FF0F000B000EFF04030409
:1025E0009301FF01FF0C1004FF0B0302FF03000B1C
:1025F000FF0BAD018004D201FF03E009FF0D000BCA
:10260000000EFF0403054B01FF01FF091004E00267
:10261000FF0B0302FF03000BFF0B8001FB01FF0216
:10262000FB018001FF030301E009FF0C000B000E1A
:10263000FF0403026F0103034B01FF01FF051005B7
:10264000FF01E004FF0280080302FF03000BFF0B01
:10265000D2018004AD01FF030303FF03E005FF0B7C
:10266000000B000EFF040302FF01930103036F013F
:10267000FF031005FF04E003FF0280080302FF03CD
:10268000000BFF0CD601A9018001AD01FF01FF0382
:102690000303FF05E003FF0B000B000EFF04030222
:1026A000FF026F010303DB011004FF07E003FF0AD1
:1026B0000302FF03000BFF0BD601FB01FF0703031F
:1026C000FF05E004FF0A000B000EFF040302FF02F7
:1026D000DB0103021004FF09E003FF03D2018001C4
:1026E000A901D601FF030302FF03000BFF0B8001CA
:1026F000FF01FB01AD018001D601FF030303FF06CB
:10270000E003FF0A000B000EFF040302FF021005A6
:10271000FF0BE003FF02D6018004D601FF02030293
:10272000FF03000BFF0BA9018005FF030303FF0656
:10273000E004FF09000B000EFF040302FF02100378
:102740000302FF0BE003FF028001D601FF02FB0141
:102750008001FF020302FF03000BFF0BFB01A90135
:10276000AD01FB01FF01D601FF030303FF07E003F7
:10277000FF09000B000EFF040302FF030304FF0B1D
:10278000E003FF028001FF03FB018001FF0203025F
:10279000FF03000BFF140303FF07E003FF09000B17
:1027A000000EFF040302FF02FF0103036F01FF0B92
:1027B000E003FF02FF01FF01FF060302FF03000B1E
:1027C000FF0CD2018001A901D601FF040303FF071A
:1027D000E003FF09000B000EFF040302FF02B70134
:1027E0000303B701FF0BE003FF07D201FF0203025F
:1027F000FF03000BFF0BD6018004D601FF03030388
:10280000FF07E003FF09000B000EFF040302FF02B5
:102810004B010303FF01FF0BE003FF028007FB01F5
:102820000302FF03000BFF0B8001D601FF02FB0137
:102830008001FF030303FF07E003FF09000B000E05
:10284000FF040302FF016F0103039301FF0BE00488
:10285000FF028007AD010302FF03000BFF0B8001A5
:10286000FF03FB018001FF030303FF07E003FF09F0
:10287000000B000EFF0403024B0103036F01FF0C6A
:10288000E003FF088001FF0180010302FF03000B4A
:10289000FF0BFF01FF01FF070303FF07E003FF0931
:1028A000000B000EFF0403056F01FF0CE004FF0A9C
:1028B000AD010302FF03000BFF140303FF07E00356
:1028C000FF09000B000EFF040304B701FF0DE00336
:1028D000FF0C0302FF03000BFF140303FF07E003D9
:1028E000FF09000B000EFF040302DB01FF01FF0CD8
:1028F000E005FF0C0302FF03000BFF140303FF06B8
:10290000E004FF09000B000EFF040302FF0CE006C9
:10291000FF0D0302FF03000BFF140303FF06E00398
:10292000FF0A000B000EFF040302FF0BE006FF0E80
:102930000302FF03000BFF140303FF05E004FF0A7B
:10294000000B000EFF040302FF0BE004FF10030264
:10295000FF03000BFF140303FF05E003FF0B000B55
:10296000000EFF040302FF0BE001FF130302FF034D
:10297000000BFF140303FF03E005FF0B000B000E29
:10298000FF040302FF1F0302FF03000BFF140303F6
:10299000FF01E006FF0C000B000EFF040302FF1F07
:1029A0000302FF03000BFF10E00DFF0D000B000EF4
:1029B000FF040323FF03000BFF0EE00DFF0F000BCE
:1029C000000EFF040323FF03000BFF0DE0080302CA
:1029D000E001FF12000B000EFF069002FF189002AC
:1029E000FF08000BFF0CE005FF030303FF13000BC0
:1029F000000EFF069002FF189002FF08000BFF0C6C
:102A0000E003FF050303FF13000B000EFF06900217
:102A1000FF189002FF08000BFF0BE004FF05030303
:102A2000FF13000B000EFF069002FF189002FF0834
:102A3000000BFF0BE003FF060303FF13000B000E68
:102A4000FF061003FF171003FF07000BFF0AE00447
:102A5000FF060303FF13000B000EFF051005FF1513
:102A60001005FF06000BFF0AE003FF070303FF1337
:102A7000000B000EFF041007FF131007FF05000BEB
:102A8000FF0AE003FF070303FF13000B000EFF0420
:102A90001007FF131007FF05000BFF0AE003FF07F5
:102AA0000303FF13000B000EFF041007FF131007B2
:102AB000FF05000BFF0AE003FF070303FF13000BF2
:102AC000000EFF051005FF151005FF06000BFF0A9D
:102AD000E003FF070303FF13000B000EFF061003C4
:102AE000FF171003FF07000BFF0AE003FF070303B4
:102AF000FF13000B000EFF2A000BFF0AE003FF0785
:102B00000303FF13000B000EFF07E009FF03E003C0
:102B1000FF04E009FF07000BFF0AE003FF070303C0
:102B2000FF13000B000EFF07E009FF03E003FF04A3
:102B3000E009FF07000BFF0AE003FF070303FF1391
:102B4000000B000EFF0EE006FF01E006FF0F000B7A
:102B5000FF0AE004FF060303FF13000B000EFF0F44
:102B6000E004FF03E004FF10000BFF0BE003FF068F
:102B70000303FF13000B000EFF2A000BFF0BE00402
:102B8000FF050303FF13000B000EFF2A000BFF0CD1
:102B9000E003FF050303FF13000B000EFF2A000BE9
:102BA000FF0CE005FF030303FF13000B000EFF12F1
:102BB000E002FF02E002FF12000BFF0DE00AFF132C
:102BC000000B000EFF12E002FF02E002FF12000BFA
:102BD000FF0EE009FF13000B000EFF12E002FF02E0
:102BE000E002FF12000BFF10E0040303FF13000BD1
:102BF000000EFF12E002FF02E002FF12000BFF14C2
:102C00000303FF13000B000EFF06E00EFF02E00BB4
:102C1000FF09000BFF140303FF13000B000EFF0658
:102C2000E00EFF02E00BFF09000BFF140303FF138C
:102C3000000B000EFF12E002FF02E002FF12000B89
:102C4000FF140303FF13000B000EFF12E002FF024C
:102C5000E002FF12000BFF140303FF13000B000E32
:102C6000FF12E002FF02E002FF12000BFF14030359
:102C7000FF13000B000FFF11E002FF02E002FF1143
:102C8000000DFF130303FF12000C000FFF28000DBF
:102C9000FF130303FF12000C0010FF26000FFF12AA
:102CA0000303FF11000D0011FF240011FF110303A6
:102CB000FF10000E0012FF220013FF100303FF0F8E
:102CC000000F0014FF1E0017FF0E0303FF0D00117D
:102CD00000580301001F0078007800780078007821
:102CE00000780078007800780014FF1E0017FF1E9F
:102CF00000110012FF220013FF22000F0011FF013C
:102D00000322FF010011FF24000E0010FF02032226
:102D1000FF02000FFF010324FF01000D000FFF035E
:102D20000302FF1E0302FF03000DFF020324FF0244
:102D3000000C000FFF030302FF1E0302FF03000D40
:102D4000FF020302FF200302FF02000C000EFF043B
:102D50000302FF0BE004FF0F0302FF04000BFF035D
:102D60000302FF200302FF03000B000EFF04030217
:102D7000FF0BE006FF0D0302FF04000BFF0303023D
:102D8000FF200302FF03000B000EFF040302FF0BF2
:102D9000E007FF041002FF060302FF04000BFF031D
:102DA0000302FF200302FF03000B000EFF040302D7
:102DB000FF0EE005FF011004FF060302FF04000BF5
:102DC000FF030302FF200302FF03000B000EFF04BA
:102DD0000302B701FF01FF0EE0021004FF08030227
:102DE000FF04000BFF030302FF200302FF03000B9D
:102DF000000EFF0403049301FF01FF0C1004FF0AFF
:102E00000302FF04000BFF030302FF200302FF0382
:102E1000000B000EFF0403054B01FF01FF09100426
:102E2000E002FF0A0302FF04000BFF030302FF207E
:102E30000302FF03000B000EFF0403026F010303F4
:102E40004B01FF01FF051005FF01E004FF0903022C
:102E5000FF04000BFF030302FF200302FF03000B2C
:102E6000000EFF040302FF01930103036F01FF0340
:102E70001005FF04E003FF04FF01D601AD01FF02CE
:102E80000302FF04000BFF030302FF0CDB019301AD
:102E90004B0103026F01B701FF01FF0C0302FF03A7
:102EA000000B000EFF040302FF026F010303DB01AE
:102EB0001004FF07E003FF01FB01D601AD01800311
:102EC000FF020302FF04000BFF030302FF0AFF01DE
:102ED0006F0103089301FF0B0302FF03000B000EB9
:102EE000FF040302FF02DB0103021004FF09E003F9
:102EF000FF018003AD01FB01FF01FF020302FF049C
:102F0000000BFF030302FF09FF014B01030A6F01DE
:102F1000FF0A0302FF03000B000EFF040302FF027F
:102F20001005FF0BE003FF01FB01D601AD01AD0170
:102F3000D601FF01FF020302FF04000BFF0303029F
:102F4000FF08FF014B01030C6F01FF090302FF03A0
:102F5000000B000EFF040302FF0210030302FF0B2D
:102F6000E003FF04FF01D601AD01FF020302FF04ED
:102F7000000BFF030302FF08930103036F01DB0152
:102F8000FF01FF02FF01B7014B010303B701FF0877
:102F90000302FF03000B000EFF040302FF03030400
:102FA000FF0BE003FF01D6018001AD01FF01FF042B
:102FB0000302FF04000BFF030302FF07FF010303EB
:102FC0009301FF086F010303FF01FF070302FF03E3
:102FD000000B000EFF040302FF02FF0103036F0159
:102FE000FF0BE003FF01AD01FF018001AD01FF0117
:102FF0008001FF020302FF04000BFF030302FF072F
:10300000B70103026F01FF09FF014B010302DB015E
:10301000FF070302FF03000B000EFF040302FF0281
:10302000B7010303B701FF0BE003FF018006FF02B6
:103030000302FF04000BFF030302FF0793010302D7
:10304000DB01FF0AB70103029301FF070302FF033D
:10305000000B000EFF040302FF024B010303FF01FC
:10306000FF0BE003FF018005D601FF020302FF040E
:10307000000BFF030302FF070303FF0BFF01030223
:103080004B01FF070302FF03000B000EFF040302C6
:10309000FF016F0103039301FF0BE004FF0903022B
:1030A000FF04000BFF030302FF070303FF0C0303EE
:1030B000FF070302FF03000B000EFF0403024B0196
:1030C00003036F01FF0CE003FF0A0302FF04000B80
:1030D000FF030302FF070303FF0C0303FF070302C1
:1030E000FF03000B000EFF0403056F01FF0CE0045B
:1030F000FF0A0302FF04000BFF030302FF070303A1
:10310000DB01FF02FF01FF07FF010303FF070302CB
:10311000FF03000B000EFF040304B701FF0DE003E3
:10312000FF0B0302FF04000BFF030302FF076F0105
:103130000309FF04DB0103029301FF070302FF03FE
:10314000000B000EFF040302DB01FF01FF0CE00592
:10315000FF0B0302FF04000BFF030302FF079301B1
:103160000309FF046F010302B701FF070302FF0316
:10317000000B000EFF040302FF0CE006FF0C03022D
:10318000FF04000BFF030302FF07B7010309FF035E
:10319000B7010303FF01FF070302FF03000B000E4B
:1031A000FF040302FF0BE006FF0D0302FF04000B08
:1031B000FF030302FF07FF010309FF0F0302FF03E1
:1031C000000B000EFF040302FF0BE004FF0F0302DD
:1031D000FF04000BFF030302FF08DB01FF170302DC
:1031E000FF03000B000EFF040302FF0BE001FF12C0
:1031F0000302FF04000BFF030302FF200302FF038F
:10320000000B000EFF040302FF1E0302FF04000B6D
:10321000FF030302FF200302FF03000B000EFF0465
:103220000302FF1E0302FF04000BFF030302FF2043
:103230000302FF03000B000EFF040302FF1E030244
:10324000FF04000BFF030302FF200302FF03000B38
:10325000000EFF040322FF04000BFF030302FF2004
:103260000302FF03000B000EFF040322FF04000B08
:10327000FF030302FF200302FF03000B000EFF0603
:103280009002FF189002FF08000BFF030302FF20CB
:103290000302FF03000B000EFF069002FF10FB016C
:1032A000E901FF069002FF08000BFF030324FF0360
:1032B000000B000EFF069002FF0DFF01F601E90171
:1032C000E002FF069002FF08000BFF0303079002D5
:1032D000031190020308FF03000B000EFF0690028B
:1032E000FF0BFB01ED01E002E901F601F601FF062B
:1032F0009002FF08000BFF0A9002FF119002FF0BE3
:10330000000B000EFF061003FF07FB01F201E003B4
:10331000F201FB01FF091003FF07000BFF0A9002F7
:10332000FF119002FF0B000B000EFF051005FF04BC
:10333000F601E901E002ED01F601FF01FF0A1005C7
:10334000FF06000BFF0A9002FF119002FF0B000B1B
:10335000000EFF041007FF03E003FB01FF0C100742
:10336000FF05000BFF0A9002FF01E002FF0E900232
:10337000FF0B000B000EFF041007FF03E003F20138
:10338000FF01FF0B1007FF05000BFF0A9002FF0172
:10339000E002FF0E9002FF0B000B000EFF0410076F
:1033A000FF04F601ED01E002ED01FB01FF0910074A
:1033B000FF05000BFF0A9002FF02E002FF0D9002E2
:1033C000FF0B000B000EFF051005FF07FB01F201CC
:1033D000E002E901F601FF01FF071005FF06000BFF
:1033E000FF0A9002FF03E002FF0C9002FF0B000BAC
:1033F000000EFF061003FF0AFF01F601E901E002DB
:10340000F201F601FF061003FF07000BFF0A90020E
:10341000FF04E002FF0B9002FF0B000B000EFF16F3
:10342000FB01ED01E002FF10000BFF0A9002FF0517
:10343000E002FF0A9002FF0B000B000EFF18FB01D9
:10344000ED01FF10000BFF0A9002FF06E002FF09EA
:103450009002FF0B000B000EFF0EED01FB01FF1AA7
:10346000000BFF0A9002FF07E002FF089002FF0B2B
:10347000000B000EFF0EE002ED01FB01FF18000B38
:10348000FF0A9002FF08E002FF079002FF0B000B0B
:10349000000EFF0EF601F601E002E901F601FF0160
:1034A000FF15000BFF0A9002FF09E002FF069002E1
:1034B000FF0B000B000EFF10FF01E004F601FF01FF
:1034C000FF13000BFF0A9002FF0AE002FF059002C3
:1034D000FF0B000B000EFF11E002FB01ED01E0020B
:1034E000F201FB01FF11000BFF0A9002FF0BE0024B
:1034F000FF049002FF0B000B000EFF11E002FF0221
:10350000FB01F201E003FF10000BFF0A9002FF0233
:10351000E00DFF029002FF0B000B000EFF11E00216
:10352000FF02FB01F201E003FF10000BFF0A900213
:10353000FF02E00DFF029002FF0B000B000EFF11D7
:10354000E002FB01ED01E002F201FB01FF11000BC3
:10355000FF091003FF03E003FF0B1003FF0A000B3A
:10356000000EFF10FF01E004F601FF01FF13000B46
:10357000FF081005FF03E003FF091005FF09000B1A
:10358000000EFF0EFB01F601E002E901F601FF016A
:10359000FF15000BFF071007FF04E003FF061007ED
:1035A000FF08000B000EFF0EE002ED01F601FF1810
:1035B000000BFF071007FF05E003FF051007FF08DA
:1035C000000B000EFF0EED01FB01FF1A000BFF07C1
:1035D0001007FF07E003FF031007FF08000B000EB2
:1035E000FF2A000BFF081005FF09E003FF03100589
:1035F000FF09000B000EFF2A000BFF091003FF0C50
:10360000E003FF021003FF0A000B000EFF2A000B6D
:10361000FF0DE00EFF0F000B000FFF28000DFF0C49
:10362000E00EFF0E000C000FFF28000DFF28000C1D
:103630000010FF26000FFF26000D0011FF240011CF
:10364000FF24000E0012FF220013FF22000F0014BF
:10365000FF1E0017FF1E0011001F02010058007816
:10366000007800780078007800780078007800789A
:1036700000780078007800E000933D0500933E0557
:103680000E94C53DB19915C100918900013089F0B2
:10369000AAD601E00093890000913D05033049F06E
:1036A00000913D05039500933D0500913D05009374
:1036B0003E05CA9902C100918800013089F093D675
:1036C00001E00093880000913D05003049F0009131
:1036D0003D050A9500933D0500913D0500933E058B
:1036E00000913E05003099F520E03DE050EB48E7C1
:1036F00003E0F02E00E0E02EE2E5F2E10E94B700E8
:1037000026E03AE453E542E0E0917B00F0E00E94DD
:10371000DB0026E03EE753E542E0E0917B00F0E08D
:103720000E94DB0027E53AE452E045E3E0917B00AC
:10373000F0E00E94DB0025E03BE452E045E3E0914D
:103740007B00F0E00E94DB0005E000933E05009165
:103750003E05013099F520E03DE050EB48E703E0FD
:10376000F02E00E0E02EE2E5F2E10E94B70027E54E
:103770003AE453E542E0E0917B00F0E00E94DB0098
:1037800027E53EE753E542E0E0917B00F0E00E9450
:10379000DB0028EA3AE452E045E3E0917B00F0E008
:1037A0000E94DB0027E53AE452E045E3E0917B002C
:1037B000F0E00E94DB0005E000933E0500913E052D
:1037C000023099F520E03DE050EB48E703E0F02EB1
:1037D00000E0E02EE2E5F2E10E94B70026E034E1ED
:1037E00053E542E0E0917B00F0E00E94DB0026E040
:1037F00039E453E542E0E0917B00F0E00E94DB0019
:1038000027E534E152E047E3E0917B00F0E00E94DD
:10381000DB0025E034E152E047E3E0917B00F0E09B
:103820000E94DB0005E000933E0500913E05033059
:1038300099F520E03DE050EB48E703E0F02E00E092
:10384000E02EE2E5F2E10E94B70027E534E153E51E
:1038500042E0E0917B00F0E00E94DB0027E53AE4E3
:1038600053E542E0E0917B00F0E00E94DB0028EAB3
:1038700034E152E047E3E0917B00F0E00E94DB009E
:1038800027E534E152E047E3E0917B00F0E00E945D
:10389000DB0005E000933E05829B08C000E000933A
:1038A0003005009331050E948525ECCE0E94C53D70
:1038B000089500E000938900FCCE00E000938800AA
:1038C0000FCF0091420500934405009143050093FA
:1038D000450500E000934605009142050093470529
:1038E000009143050093480500914405109140055F
:1038F000011B009344050091450510914105010B02
:10390000009345050091460500400093460508E5F3
:1039100010914205011700E010914305010708F4DA
:10392000B7C106E7009362050EE91091440501173F
:1039300000E010914505010710914605010778F058
:103940002091400530E151E04091620502E0F02E07
:103950000AE0E02EE0917D00F0E00E94B7002091A7
:10396000420530E151E046E702E0F02E0AE0E02EA9
:10397000E0917C00F0E00E94B70020E035E050E6E6
:1039800048E000E0F02E0CE0E02EEFE6F7E00E94C9
:10399000B700CDD108950FE100933A0525C10FE19D
:1039A00000933A05F1C00FE100933A0562C100911E
:1039B000400500934205009141050093430520E036
:1039C00035E050E648E000E0F02E0CE0E02EE9E6BD
:1039D000F7E00E94B7002091400530E151E046E752
:1039E00002E0F02E0AE0E02EE0917D00F0E00E947F
:1039F000B7000895B19930C000913F05023009F435
:103A00006CC000918900013049F0EDD401E00093D1
:103A1000890000913F05039500933F05CA9920C096
:103A200000913F05003009F458C000918800013032
:103A300049F0D9D401E00093880000913F050A9530
:103A400000933F05E9E2FDE140913F050E94CB0E66
:103A50000895341D761DCF1D00E000938900DECF50
:103A600000E000938800EECFCB993AC00091E202CB
:103A70000E350091E302014061F00091E202065F21
:103A80000093E2020091E3020F4F0093E3020E94D1
:103A90004D3DC99926C00091E20200300091E30239
:103AA000004061F00091E2020A500093E2020091AE
:103AB000E30200400093E3020E944D3D0E942F3E2E
:103AC00020E035E050E648E000E0F02E0CE0E02E8B
:103AD000E3E6F7E00E94B70008950E944D3DB2CFA3
:103AE000D8CFECCF00E000938A0083C0CB99F6C01A
:103AF00000914005003A00914105004009F4C2C020
:103B0000009140050F5F00934005009141050F4F64
:103B1000009341050E942F3E00918A000130D9F1A7
:103B200046DF00E000933A0503E000939F0001E0C8
:103B300000938A0000E00093A0000E94580EC999EB
:103B4000D1C000914005003000914105004009F4CA
:103B5000A3C000914005015000934005009141052C
:103B60000040009341050E942F3E00918B000130E0
:103B700009F415CF1CDF00E000933A0502E0009342
:103B80009F0001E000938B0000E00093A0000E94E2
:103B9000580E0DDF08950FE100933A05CBCFCB9976
:103BA000A1CF00914205003A00914305004009F47D
:103BB00079C0009142050F5F0093420500914305D3
:103BC0000F4F009343050E942F3E00918A00013061
:103BD00009F4E1CE76DE00E000933A0503E00093BD
:103BE0009F0001E000938A0000E00093A0000E9483
:103BF000580EC99949C000914205003A0091430509
:103C0000004009F473C00091420500300091430563
:103C1000004009F443C00091420501500093420561
:103C20000091430500400093430500914205109127
:103C3000400501170091430510914105010740F42B
:103C40000091420500934005009143050093410512
:103C50000E942F3E00918B00013009F4A4CE31DE8A
:103C600000E000933A0502E000939F0001E000931A
:103C70008B0000E00093A0000E94580E22DE089501
:103C8000B2D3B7CFB0D35BCF00E000938B00F6CFB9
:103C90000AE50093620548CEA6D37BCF0E942F3E53
:103CA000A2D3ECCF0091E20202360091E302014080
:103CB00039F30091E2020F5F0093E2020091E30208
:103CC0000F4F0093E302009140050150009340051F
:103CD0000091410500400093410575CF00E000933D
:103CE0008A002DCF00E000938B0053CF0091E202B9
:103CF00000300091E302004009F485CF0091E20218
:103D000001500093E2020091E30200400093E302BD
:103D1000009140050F5F00934005009141050F4F52
:103D20000093410595CF05E0009362050CC008E5BE
:103D300010914205011700E010914305010798F327
:103D40000DE500936205A6ECB0E01091E202A10F30
:103D50001091E302B11F10914705A10F1091480582
:103D6000B11F0C910093470500E0009348050EEF4A
:103D700010914705011700E010914805010708F46C
:103D8000BDC1009147050B3000914805004008F483
:103D9000B5C1009147050B500093470500914805B8
:103DA0000040009348050091470500380091480500
:103DB000004008F0C8C1009147050058009347052E
:103DC0000091480500400093480500914705009583
:103DD00000934705009148050095009348058091A0
:103DE000470590914805E091BF00F0E03FD2209256
:103DF00047053092480500913205043008F48CC123
:103E0000C0E6D0E0209147053091480540E001E050
:103E1000F02EC0D10D810E830EE20D8300E20F83E0
:103E20000DE6088706E50987E092600020916205AB
:103E30003AE650E548E001E0F02E0AE0E02EE0E648
:103E4000F0E00E94B700EE27FF2710914405E10F34
:103E500010914505F11F8091C0009091C10006D2DC
:103E6000209244053092450540924605C0E6D0E0D8
:103E700009E010913305011708F472C1C0E6D0E0E3
:103E800020914405309145054091460501E0F02E12
:103E900081D105E708870D810E830091330500303D
:103EA00009F40DC10EE20D8300E20F8303E70987D9
:103EB000209162053AE750E548E001E0F02E0AE083
:103EC000E02EE0E6F0E00E94B700C0E6D0E009E0B6
:103ED00010913305011708F404C100913305003037
:103EE00009F47FC000E000934D0501EE00934E05FC
:103EF00005EF00934F0505E0009350050091440540
:103F0000009359050091450500935A050091460517
:103F100000935B0500E000935C05009144050030D0
:103F200000914505004000914605004009F426C176
:103F3000ABD10FE710915105011706E91091520519
:103F4000010708E910915305010700E0109154059D
:103F5000010708F453C00FE310915105011702E463
:103F60001091520501070FE010915305010700E081
:103F700010915405010708F48BC00FE01091510512
:103F8000011707E210915205010700E01091530557
:103F9000010710915405010708F466C0C0E6D0E09F
:103FA00020915105309152054091530501E0F02ECA
:103FB000F1D00D810E830EE20D8300E20F8308E441
:103FC00008870AE709872091620532E750E548E053
:103FD00001E0F02E0AE0E02EE0E6F0E00E94B700FB
:103FE000089500E000934D050AEC00934E050AE9A0
:103FF00000934F050BE30093500580CF08EE00932C
:10400000590503E000935A0500E000935B05009317
:104010005C050DD00C810D830B810C830A810B8311
:104020000EE20A8300E20E830DE40F83C8CF0091F5
:10403000510500934D050091520500934E050091E6
:10404000530500934F0500915405009350051CD172
:10405000C0E6D0E0209151053091520540915305C2
:1040600001E0F02E97D0089501E00093590500E09B
:1040700000935A0500935B0500935C05D8DF0C8123
:104080000D830B810C830A810B830EE20A8312C01D
:104090000AE00093590500E000935A0500935B0580
:1040A00000935C05C4DF0C810D830B810C830EE251
:1040B0000B8300C000E20E830BE60F8380CF0C81E0
:1040C0000D830EE20C8300914405043600914505F2
:1040D000004000914605004008F0E6CE00E30B8367
:1040E000E3CE00EA00934D0506E800934E0501E09B
:1040F00000934F0500E00093500500CFC0E6D0E0EC
:1041000000E2088309830A830B830C830D830E83EB
:104110000F83088709878ACEC0E6D0E02091470543
:104120003091480540E002E0F02E34D000E20F83E9
:104130000D810E830C810D830EE20C8306E508874A
:1041400000E2098771CE00914705005800934705AA
:10415000009148050040009348050DE2E02E3FCE57
:10416000C0E6D0E0209144053091450540914605D8
:1041700001E0F02E0FD00DE608878DCE00E2088317
:1041800009830A830B830C830D830FE30E8300E204
:104190000F8315CF00E3088309830A830B830C8305
:1041A0000D83203A16E8310711E0410738F0205A14
:1041B00036484140088103950883F3CF203117E248
:1041C000310710E0410738F0205137424040098163
:1041D00003950983F3CF283E13E0310710E0410730
:1041E00038F0285E334040400A8103950A83F3CFBC
:1041F000243610E03107410738F024563040404063
:104200000B8103950B83F4CF2A3010E0310741076F
:1042100038F02A50304040400C8103950C83F4CF95
:104220000D81020F0D8308810033F9F400E2088349
:1042300009810033D1F400E2098313E0F116A9F0FB
:104240000A81003391F400E20A8312E0F11669F06A
:104250000B81003351F400E20B8311E0F11629F0D9
:104260000C81003311F400E20C830895442455249A
:10427000E89F1001E99F300C411CF89F300C411C55
:10428000F99F400C511C089540E200E00093510555
:104290000093520500935305009354050093550570
:1042A000009356050093570500935805009151055A
:1042B000000F0093510500915205001F0093520515
:1042C00000915305001F0093530500915405001FF2
:1042D0000093540500914D05000F00934D0500918A
:1042E0004E05001F00934E0500914F05001F0093DF
:1042F0004F0500915005001F009350050091550592
:10430000001F0093550500915605001F00935605A8
:1043100000915705001F0093570500915805001F95
:10432000009358050091550510915905011700910A
:10433000560510915A0501070091570510915B052C
:1043400001070091580510915C05010780F100916B
:1043500051050F5F00935105009152050F4F0093D7
:104360005205009153050F4F0093530500915405DA
:104370000F4F009354050091550510915905011BED
:10438000009355050091560510915A05010B0093B5
:1043900056050091570510915B05010B00935705D9
:1043A0000091580510915C05010B009358054A9542
:1043B00009F07CCF0895AEE1B0E0939A0BED15E0E3
:1043C00001501040E9F700000000000093980BED49
:1043D00015E001501040E9F7000000000000A15076
:1043E000B04059F708958B9A00917900003079F127
:1043F00000917900013009F439D000917900023040
:1044000009F44CD000917900033009F45FD0009199
:104410007900043011F442D059D000917900053070
:1044200011F454D03BD000917900063011F462D0E1
:1044300079D000917900073011F474D05BD00091ED
:104440007900083021F46ED055D06CD053D08B98C1
:1044500000913005083E00913105034011F00E94A3
:104460004D3D24E030E00E9475070895AEE1B0E0D4
:10447000939A0DEE12E001501040E9F700000000A1
:10448000000093980DEE12E001501040E9F7000093
:1044900000000000A150B04059F70895AEE1B0E02F
:1044A000939A06E711E001501040E9F70000000080
:1044B0000000939806E711E001501040E9F7000072
:1044C00000000000A150B04059F70895AEE1B0E0FF
:1044D000939A02E312E001501040E9F7000093982C
:1044E00002E312E001501040E9F70000A150B04093
:1044F00079F70895A0E5B0E0939A0DEE12E001502F
:104500001040E9F700000000000093980DEE12E063
:1045100001501040E9F7000000000000A150B04039
:1045200059F70895ACE3B0E0939A09EA13E001501B
:104530001040E9F70000939809EA13E00150104099
:10454000E9F70000A150B04079F7089524E33EE375
:1045500058E448E000E0F02E09E0E02EEDE5F7E059
:104560000E94B70002E00093780000E000936F0023
:104570000093700000937100829BF7CF209182001E
:104580000E94810004E10093670500E00093660546
:1045900000E000933A050EE60093BE00A0EFB1E004
:1045A00010913A05A10F10E0B11F20E03091BE003C
:1045B00050E848E000E0F02E00E1E02EEA2FFB2F6B
:1045C0000E94B7000091BE000A500093BE00009107
:1045D0003A05085F00933A0500913A050035F0F27C
:1045E00020E138E75EE848E0E0918200F0E00E94D8
:1045F000DB0020E83FE658E141E0EAEDF0E00E9410
:10460000DB0020E837E758E141E0EAEDF0E00E9406
:10461000DB0020E830E751E047E0EAEDF0E00E94FF
:10462000DB0027E930E751E047E0EAEDF0E00E94E7
:10463000DB0009E200933A0500E00093BE00ABE71F
:10464000B0E01091BE00A10F10E0B11F20E8309142
:104650003A0558E148E0EC91F0E00E94DB0000915F
:104660003A05065F00933A050091BE00039500935A
:10467000BE000091BE00073010F353B41BE1511A85
:10468000C0E6D0E0252D30E040E000E0F02E82DDF5
:1046900020E83EE158E148E001E0F02E03E0E02EA2
:1046A000E3E6F0E00E94B700C0E6D0E02091790098
:1046B00030E040E000E0F02E6DDD20E834E158E12C
:1046C00048E001E0F02E03E0E02EE3E6F0E00E9497
:1046D000B7002AE93091670550E148E000E0F02E8C
:1046E00002E0E02EE2E6F7E00E94B700CA9905C2B8
:1046F000009188000130A9F001E00093880000914A
:1047000067050E3671F0C7D000916705065F00930C
:104710006705009166050F5F009366050E944D3D99
:1047200062DEB199EEC1009189000130A9F001E08B
:104730000093890000916705043171F0ACD00091BD
:1047400067050A50009367050091660501500093C4
:1047500066050E944D3D47DEF0906605F694CF0D4C
:1047600010E0D11FA0E0B0E0C9E7D0E010916605ED
:10477000A10F10E0B11F10916605C10F10E0D11F0D
:10478000CB99E8C000918A00003009F4CAC00091BA
:104790008A00013009F4C0C0AEBBBFBBE09A0DB3C4
:1047A00000933A0500913A050F3F09F499C0009132
:1047B0006605023008F4D2C0AEBBBFBBE09A0DB3B1
:1047C00003950DBBE29AE19AE199FECFAEBBBFBB68
:1047D000E09AFDB20AD1088289D000917A0003BD27
:1047E000C999B4C000918B00003009F4A7C00091B2
:1047F0008B00013009F49DC0AEBBBFBBE09A0DB386
:1048000000933A0500913A05003009F45AC000912E
:104810006605023008F4D0C0AEBBBFBBE09A0DB352
:104820000A950DBBE29AE19AE199FECFAEBBBFBB00
:10483000E09AFDB2DAD0088259D000917A0003BD27
:10484000829B24C062D1C0E6D0E0209168053091FF
:10485000690540E001E0F02E9DDC009163000093CB
:1048600062000EE20093630020E733E050E248E08C
:1048700001E0F02E04E0E02EE2E6F0E00E94B70056
:1048800021E330E00E9475074BD782CE27EC30E061
:104890000E94750708952AE93091670550E148E0C4
:1048A000E0918200F0E00E94DB00089500918A0010
:1048B000013071F100918B00013051F12AC093DD7C
:1048C0008CCF00916605013009F008C00BE1AEBB4A
:1048D000BFBB0DBBE29AE19AE199FECF84DDADCF7B
:1048E00000916605013009F457C0E9CF00916605D3
:1048F000093051F420E030E050EB44E80E94990088
:10490000209182000E94810000916605003071F6BE
:104910006ADD0E944D3D08952BE231E00E9475074B
:1049200000C000918A00039500938A00CB9912C0C1
:1049300033CF2BE231E00E94750700C000918B005D
:10494000039500938B00C99901C056CF00E00093F6
:104950008B0076CF00E000938A0042CF009166057D
:10496000003019F100916605013081F0AEBBBFBB8C
:10497000E09A0DB303950DBBE29AE19AE199FECF5F
:10498000AEBBBFBBE09A0DB3088326CF0EE71091F4
:104990003A05011708F0EACF0FE7AEBBBFBB0DBB6E
:1049A000E29AE19AE199FECF8ACF07E010913A05A9
:1049B000011708F484CFD6CF00916605013029F4A1
:1049C00000913A050C3108F481CFAEBBBFBBE09A31
:1049D0000DB30A950DBBE29AE19AE199FECFAEBB09
:1049E000BFBBE09A0DB3088327CFEAEFF9E4EF0DE0
:1049F00010E0F11F059015900895E0E0E0E0E0E0A0
:104A0000E0E4E4E4E4E4E8E8E8E8ECECECECF0F022
:104A1000ECECF0F0F0F0F0F4F4F4F8F8F8F8F8FC5E
:104A2000F8F8FCFCFCFCFCDCDCDCDCDCDCDCDCDCEE
:104A3000BCBCBCBC9C9C9C9C7C9C9C7C7C7C7C5C16
:104A40005C5C5C5C3C3C3C3C3C1C1C1C1C1C1C1C06
:104A50001C1C1C1C1C1C1C1C1D1D1D1D1D1D1D1D8E
:104A60001D1E1E1D1D1E1E1E1E1E1E1E1E1F1F1F66
:104A70001F1F1F1F1F1F1F1F1F1F1F1B1F1F1B1B52
:104A80001B1B1717171713131313130F1313130FDE
:104A90000F0F0F0B0B0B0B0707070707030303038E
:104AA0000303030303030303232323234343434356
:104AB000636363636383838383838383A3A3A3A3E6
:104AC000A3A3C3C3C3C3C3C3C3E3E3E3E3E3E3E316
:104AD000E3E3E3E3E3E2E2E2E2000000242424244F
:104AE00024246D6D6D6D6D6D6D6D6D92929292B6AB
:104AF000B6B6B6DBDBDBFFFFFF0000E0009388000B
:104B000010CE00E00093890027CE00B70F7000BFE1
:104B100000EC07B907EC06B9A4B1B5B1B695A795F5
:104B2000A0936805B09369058399ACC00FE90A1793
:104B300001E00B0708F4CAC003E80A1701E00B07FD
:104B400008F4A6C007E70A1701E00B0708F4A4C0A1
:104B500000E70A1701E00B0708F4A2C008E60A17ED
:104B600001E00B0708F4A0C00CEA00936B0526E9EE
:104B700034E052E046E0EAEDF0E00E94DB0028E994
:104B80003BE055E141E0EAEDF0E00E94DB0028E97E
:104B900032E055E141E0EAEDF0E00E94DB0028E977
:104BA00033E051E048E0EAEDF0E00E94DB002CEA5F
:104BB00033E051E048E0EAEDF0E00E94DB0000E481
:104BC00010916805011701E0109169050107C8F00F
:104BD00000917E000F9300EE00937E0020E138E705
:104BE0005EE848E000E0F02E02E1E02EEDE4F6E0C1
:104BF0000E94B7000F9100937E0023E630E00E94F0
:104C0000750700916805063300916905014008F4B5
:104C100053C00BEA00933A0583994AC000EE009313
:104C20006A0500916B050C3A18F008EA00936B05D1
:104C300000913A0510916B05011718F40AED0093E5
:104C40006A0500913A05073AF9F000913A05023AEF
:104C5000D9F000913A050D39B9F020913A0533E0C9
:104C600051E048E0E0916A05F0E00E94DB0000912D
:104C70003A050A9500933A0508E910913A0501179B
:104C800058F20895949A58CF0AED00936A05E5CF3B
:104C900009E900936B056BCF0EE900936B0567CFB5
:104CA00003EA00936B0563CF08EA00936B055FCFBF
:104CB00004E100936A05BCCF08EE0093300503E0E1
:104CC0000093310590DB0E94C53DDBCF94980091A5
:104CD0007E000F9304EF00937E002EE833E058E24D
:104CE00048E000E0F02E05E0E02EEFE8F6E20E945A
:104CF000B7000F9100937E0026E93BE059E142E0C6
:104D0000E0918200F0E00E94DB0026E931E059E109
:104D100042E0E0918200F0E00E94DB00B2CF208907
:104D20008A20200000917800013009F4ADC0009184
:104D30003505023009F4B3C000913505033009F49C
:104D4000AEC000913505043009F49FC000913505CF
:104D5000053009F49FC0E4EEF7E040913C050E9465
:104D6000CB0EE4EBFDE420903305220CE20D10E0C5
:104D7000F11F05910093C00005910093C1000895B3
:104D800000E00093870099C00091850013B30117DC
:104D900008F0A5C0B3C00091860013B3011708F452
:104DA0009EC09AC000E000938700A8C001E0009375
:104DB000870092C005000100020006000A001400EE
:104DC00032006400C800F4010100020005000A007E
:104DD000140032006400209136053AE0239F0091D0
:104DE0003505013009F44BC000913505033009F455
:104DF00046C013E1010E10E0111E00928E000091DA
:104E00008E00009500938E0000918E000093850027
:104E10000091850002500093850000918E00009360
:104E20008600009186000E5F009386002091360573
:104E300035E0239F18E0010E10E0111E00928F0054
:104E4000002D0F5F002E012D0F4F102E00929000AD
:104E5000002D0F5F002E012D0F4F102E009292009B
:104E600013E0011A10E0110A00929100002D015088
:104E7000002E012D0040102E0092930008951FE097
:104E8000010E10E0111EB9CF7ACFCA9B64CFCC9926
:104E9000FCCF61CFCA9B02C0CC9BFCCF5CCF009102
:104EA0009400013009F46BCF00918E0013B3011709
:104EB00008F466CF01E000938700009135050330C8
:104EC00091F000918700013009F465CF03B3109190
:104ED0008500011708F46ACFCA9B51CFF2CF01E0D9
:104EE0000093940038CF00918700003009F44CCF34
:104EF00003B310918600011708F054CFCA9B3FCF2F
:104F0000F2CF662774E800E70093B10605E000934E
:104F1000B206ACE9B6E0A60F10E0B11F0C91009309
:104F2000AB060091AB06013081F10091AB06053074
:104F300099F10091AB060630B1F11091AC06711BEE
:104F40007C3010F128E0372F50EA4091AC06F09009
:104F5000AB06E090B306E091B106F091B2060E9474
:104F6000B7000091B1061091B306010F0093B1068E
:104F700010E00091B206011F0093B20663957250D3
:104F80001091AF06611728F2089508E00093AC066F
:104F900004E10093B306D1CF00E20093AC060AE02F
:104FA0000093B306CACF00E10093AC060AE0009379
:104FB000B306C3CF0F930FB70F931F932F933F9356
:104FC0004F930F921F92AF93BF93CF93DF93EF93C3
:104FD000FF938F929F92AF92BF92CF920CB10093AA
:104FE0006F0500916F050332D1F400E000936D0569
:104FF00000936E050093B40601E0009397000093C0
:10500000AD0600E00093AF060093AE0600936F007C
:10501000009370000093710005E003BF76C000911B
:10502000AD06013009F071C000916F050A3021F41E
:1050300001E00093AE0669C00091AE060130D1F5E3
:1050400000916F05013309F4C4C000916F0502336C
:1050500009F4B8C000916F05033309F4ACC00091A6
:10506000B4061091B306011708F480C00091B3068E
:105070001091B406011708F465C0ACE9B6E01091D0
:10508000AF06A10F10E0B11F0091AB061C910117F4
:1050900031F00091AB060C9301E000939500009174
:1050A000AF0603950093AF0600E00093AE060093B1
:1050B000B4062BC000916F050D3069F401E0009338
:1050C000980000E00093AD060091AF061091B00685
:1050D000011781F536C0C0E7D5E010916D05C10F0D
:1050E00010916E05D11F00916F05088300916D0529
:1050F0000F5F00936D0500916E050F4F00936E05D5
:105100000091B40603950093B406CF90BF90AF9082
:105110009F908F90FF91EF91DF91CF91BF91AF91D1
:105120001F900F904F913F912F911F910F910FBFA3
:105130000F91189501E0009395000091AF06009340
:10514000B006E3CF0091B4061091B306011B0093A3
:10515000B40600916D051091B406011B00936D0516
:1051600000916E05004000936E0587CF0091B30655
:105170001091B406011B0093B306C0E7D5E010916F
:105180006D05C10F10916E05D11F00E208830091DB
:105190006D050F5F00936D0500916E050F4F009335
:1051A0006E050091B3060A950093B3060091B3060D
:1051B000003019F762CF05E00093AB060AE00093D8
:1051C000B3064DCF06E00093AB060AE00093B306AA
:1051D00046CF01E00093AB0604E10093B3063FCF56
:1051E0000D0D0D130B0D0F0D0D0F0D0D0F0D0D0FE3
:1051F0000D0010916A00311708F06AC026C000E067
:1052000000936A000E94133DE0ECF9E610918300E0
:10521000E10F10918400F11F65907590009183005B
:105220000E5F00938300009184000F4F0093840071
:1052300019E0F116F1F118E0F116F9F017E0F116A6
:1052400051F100916A000417A0F61FEF611609F4EE
:1052500042C050918200C398C4985FB90E94C100B7
:1052600000916A00039500936A0000916A00043778
:1052700019F07A94E9F6C8CF089500916A00109168
:105280009100011708F4DACF0091900010916A00A4
:105290000117B0F4D3CF00916A0010919300011769
:1052A00008F4CFCF0091920010916A00011740F4EA
:1052B000C8CF00916A0010918F00011709F0BBCF91
:1052C00000913505043008F0BCCF50917D00C3CF6C
:1052D00050917F00C0CF50918100BDCF00E000937E
:1052E000870028C000919A00013009F4A4C0009101
:1052F0007800013009F49FC000917800023009F471
:105300009AC020E030E150EB44E70E949900A6ECFF
:10531000B0E0FF24EE2403E010913505011710F1F1
:105320005ADD189600918E001C910117B8F201E029
:10533000009387000091350500FDB9C2A63212E046
:10534000B10709F4A6C2AF5FBF4F009187000130DB
:1053500009F4A2C20C9110918500011708F4A3C2B0
:10536000EDCF18970C9100936B0000916B000095A6
:1053700000936B0000916B00073E18F007EE00935E
:105380006B0000916B000E5F00936B0002E01091C8
:105390006B00011718F002E000936B0000916B00A6
:1053A000069500936B0000E0009383000093840057
:1053B00000EBF02E00E000936D0004E700936E0018
:1053C0000D9100936C0000916C00009500936C00AF
:1053D00000916C00073E18F007EE00936C0001E0AE
:1053E00010916C00011718F001E000936C0007DFCA
:1053F00000916D00031708F449C210916E00411727
:1054000008F441C2FA94E1F652D116D0C39A01E0F1
:1054100000939A000093A40000E000933F050093DE
:105420004205009343050093400500934105009316
:10543000E2020093E30208950091A200003009F413
:10544000D0C00091A300003009F4CBC0A6ECB0E0BE
:1054500000E00093A5000FEF0093A6000091A500C7
:105460001C91011708F40BC10C911091A6000117B3
:1054700008F409C1AF5FBF4FA83D12E0B10771F753
:10548000F090A500F694F092A700F694F694F394A9
:10549000F092A800F090A600F6940091A7000F0DDE
:1054A0000093A700F694F6940091A8000F190093BA
:1054B000A8000091A7000093A9000091A9001091F5
:1054C000A800010F0093A9000091A7000093AA0073
:1054D0000091AA001091A800011B0093AA0000915E
:1054E000A60003950093A6000091A6001091A500C8
:1054F000011708F077C0A6ECB0E000E00093AB0025
:105500000C910093AD00AF5FBF4F0091AD001091C3
:10551000A700011708F4A5C00091A7001091AD00E5
:10552000011708F494C0A83D12E0B10749F70091B3
:10553000AB00003009F456C0A6ECB0E000E00093E8
:10554000AC000091A7001C91011708F494C000E082
:1055500000938700AF5FBF4F00918700003009F4D0
:1055600054C00C911091AA00011708F462C002E324
:105570001091AC00011720F0A83D12E0B10751F7DF
:105580000091AC00023028F00091AC000A95009325
:10559000AC000091AC00063048F1E0EEF1E5F0908F
:1055A0003C05EF0D10E0F11F04910093A80000915D
:1055B000A8001091AC00011708F469C000913C05E7
:1055C00010913305011769F000913C0500933305F4
:1055D00041E0209133050E94401001E000939900C2
:1055E00000C0089500E00093AC00D3CF00913C05CB
:1055F0000D3008F0E3CF00913C0500933305009196
:105600003C05039500933C05E3CF0091A9001C9154
:10561000011708F0ACCF01E0009387000091AB00C8
:10562000023009F4A4CF0091AC0003950093AC00C4
:105630009ECF00E0009387000091AB00013009F499
:1056400096CF0091AC0003950093AC0090CF0091F1
:10565000A7001C91011708F466CF02E00093AB008D
:1056600066CF0C911091A700011708F455CF01E007
:105670000093AB005CCF01E0009387006BCF0C91EF
:105680000093A500F1CE0C910093A600F3CE00E0AC
:1056900010913C05011708F091CF00913C05009353
:1056A000330500913C050A9500933C0591CF00918C
:1056B000A100003009F4E6C00091A300003009F415
:1056C000E1C000916D00033708F0BCC000916E008E
:1056D000003009F4B7C000913B050730A9F00091F4
:1056E0003B05043009F4A3C000913B05013009F4E7
:1056F0009EC000916D00023538F402E210916E00F8
:10570000011708F4AEC000C000913B0510913205AE
:10571000011709F4B7C000913B0500933205AAC0F8
:10572000009178000130F9F1009178000230D9F150
:105730000091A400003089F000E00093A4000091E3
:105740006D0010916E00011B00936D0003E010913D
:105750006D00011710F40C941B3C00913C050B30BC
:1057600011F40C941E3C00913C050C3011F40C9487
:10577000323C00913C050D3011F40C94463C0091F4
:105780003C050E3011F40C945A3C00913C050F304E
:1057900011F40C946E3C00913C05003111F40C9412
:1057A000823C05E003BF04EB0093720006E0009327
:1057B000730000E0009374000CE20093750009ECA4
:1057C0000093760000E00093770000916F00109145
:1057D0007200011700917000109173000107009191
:1057E0007100109174000107F0F00EE103BD00910B
:1057F0006F001091750001170091700010917600F4
:1058000001070091710010917700010760F0839B00
:105810000BC008EE0093300503E0009331050E94B1
:10582000F3210E94C53D0895849BF3CFFCCF0091E6
:105830006D000D3408F068CF07E210916E0001177B
:1058400080F062CF00913B05003009F45DCF0091FC
:105850003B050093320500913B050A9500933B05FB
:1058600009C000913B050093320500913B0503956B
:1058700000933B0540E0209132050E94401001E07A
:1058800000939900089540936E00BCCD30936D0055
:10589000B9CDA6ECB0E066CD009186001C91011751
:1058A00008F45FCD4BCD01E00093870059CDA632BF
:1058B00012E0B10771F3AF5FBF4F00918700003076
:1058C00051F00C9110918600011708F4F0CF00E020
:1058D00000938700ECCF009185001C91011708F020
:1058E00040CDE5CF00780078007800050219000C63
:1058F000024900050004021B0009024C00040003D9
:10590000021D0008024D00030003021D0008024DA5
:1059100000030003021D0008024D00030003021EE5
:10592000000702249202022700030003021E000760
:1059300002239205022500030003021E0007022134
:105940009208022400030003020CFF06020C000769
:105950000220920A022300030003020BFF08020B3D
:105960000007021F920C022200030003020AFF0A32
:10597000020A0007021E920E022100030003020A1F
:10598000FF0A020A0007021D9211021F0003000312
:105990000209FF0C02090007021B9214021E0003F9
:1059A00000030209FF040204FF0402090007021AAF
:1059B0009216021D000300030209FF030206FF0303
:1059C0000209000702199218021C000300030209D1
:1059D000FF030206FF030209000702199219021BC6
:1059E000000300030209FF040204FF040209000788
:1059F00002199218021C000300030209FF050202AB
:105A0000FF0502090007021E920E02210003000397
:105A1000020AFF040202FF04020A0007021E920E9D
:105A2000022100030003020AFF040202FF04020A2B
:105A30000007021E920E022100030003020BFF0268
:105A40000204FF02020B0007021E920E0221000355
:105A50000003020CFF010204FF01020C0007021EFA
:105A6000920E022100030003021E000702119201A0
:105A7000020C920E020C9201021400030003021E9B
:105A8000000702109203020B920E020B9203021304
:105A9000000300030209FF0C02090007020F920431
:105AA000020B920E020B9204021200030003020981
:105AB000FF0C02090007020F9204020B920E020B68
:105AC00092050211000300030209FF0C02090007FE
:105AD000020E92050224920602100003000302093E
:105AE000FF0C02090007020D920602249206021022
:105AF000000300030209FF0C02090007020C920FC9
:105B0000020292100202920F020F00030003020F22
:105B1000FF02020D0007020C921002019210020116
:105B20009211020E00030003020FFF03020C000794
:105B3000020B92110201921002019212020D000357
:105B400000030209FF09020C0007020A9212020177
:105B5000921002019213020C000300030209FF09D4
:105B6000020C000702099213020192100201921323
:105B7000020C000300030209FF09020C00070209DE
:105B800092130201921002019214020B000300030F
:105B90000209FF09020C0007020892140201921088
:105BA00002019215020A000300030209FF08020D18
:105BB0000007020892140201921002019215020AD3
:105BC00000030003021E0007020892140201921053
:105BD00002019214020B00030003021E00070209D7
:105BE00092130201921002019213020C00030003AF
:105BF000020AFF030202FF01020E0007020A9212CC
:105C00000201921002019213020C00030003020928
:105C1000FF050201FF02020D0007020B92110201B3
:105C2000921002019212020D000300030209FF0507
:105C30000201FF03020C0007020B921102019210F5
:105C400002019211020E000300030209FF05020186
:105C5000FF03020C0007020C9210020192100201D5
:105C60009210020F000300030209FF050201FF0367
:105C7000020C0007020D9206020B920E020B920715
:105C8000020F000300030209FF020201FF030201E9
:105C9000FF02020C0007020E920502249206021077
:105CA00000030003020AFF010202FF020201FF02D9
:105CB000020C0007020F9204020C920D020B9205D7
:105CC000021100030003020AFF08020C0007020F82
:105CD0009204020B920F020A9204021200030003C4
:105CE0000209FF09020C000702109203020B920F37
:105CF000020A92030213000300030209FF09020CC7
:105D0000000702119202020B920F020B9202021381
:105D1000000300030209FF08020D0007021E920F94
:105D20000220000300030209FF07020E0007021E03
:105D3000920F022000030003021E0007021E920FB2
:105D4000022000030003021E0007021E920F022021
:105D5000000300030209FF09020C0007021E920F54
:105D60000220000300030209FF09020C0007021EC3
:105D7000920F0220000300030209FF09020C000732
:105D800002199219021B000300030209FF09020C09
:105D9000000702199219021B000300030209FF0900
:105DA000020C000702199219021B00030003020FE4
:105DB000FF02020D0007021B9215021D00030003E3
:105DC000020FFF03020C0007021C9213021E0003C5
:105DD00000030209FF09020C0007021D9211021FB5
:105DE000000300030209FF09020C0007021E920FC4
:105DF0000220000300030209FF09020C0007021F32
:105E0000920D0221000300030209FF09020C0007A2
:105E10000221920A0222000300030209FF07020E78
:105E2000000702229207022400030003020FFF0270
:105E3000020D000702239205022500030003020F52
:105E4000FF03020C00070224920302260003000352
:105E50000209FF09020C0007024D000300030209BA
:105E6000FF09020C0007024D000300030209FF09AD
:105E7000020C0007024D000300030209FF09020C97
:105E80000007020492440205000300030209FF0810
:105E9000020D000702039246020400030003021EE3
:105EA000000702039202034292020204000300036D
:105EB000021E000702039202034292020204000340
:105EC0000003021E00070203920203201C020320AB
:105ED0009202020400030003020BFF05020E0007FA
:105EE0000203920203201C05031D92020204000318
:105EF0000003020AFF07020D0007020392020320BB
:105F00001C07031B9202020400030003020AFF079E
:105F1000020D00070203920203201C0203021C056B
:105F2000031992020204000300030209FF09020C94
:105F300000070203920203201C0203041C0503173E
:105F400092020204000300030209FF09020C000789
:105F50000203920203201C0203071C040315920291
:105F60000204000300030209FF020202FF02020111
:105F7000FF02020C00070203920203201C02030925
:105F80001C04031392020204000300030209FF022F
:105F90000202FF020201FF02020C0007020392024A
:105FA00003201C02030B1C040311920202040003D1
:105FB00000030209FF030201FF05020C00070203B0
:105FC000920203201C02030C1C0403109202020420
:105FD000000300030209FF030201FF05020C000792
:105FE0000203920203201C02030E1C04030E920201
:105FF000020400030003020AFF020201FF04020D73
:1060000000070203920203201C0203101C03030D6D
:106010009202020400030003020AFF020201FF04CD
:10602000020D00070203920203201C0203111C034D
:10603000030C9202020400030003020BFF010201A1
:10604000FF03020E00070203920203201C02031248
:106050001C03030B9202020400030003021E00074C
:106060000203920203201C0203141C02030A920280
:106070000204000300030209FF0C020900070203E7
:10608000920203201C0203151C020309920202045F
:10609000000300030209FF0C020900070203920239
:1060A00003201C0203151C030308920202040003D0
:1060B00000030209FF0C02090007020392020320F9
:1060C0001C0203161C0303079202020400030003D0
:1060D0000209FF0C020900070203920203201C02BE
:1060E00003171C02030792020204000300030209C3
:1060F000FF0C020900070203920203201C0203178F
:106100001C0303069202020400030003021E0007A0
:106110000203920203201C0203181C0203069202CF
:10612000020400030003021E000702039202032080
:106130001C0203181C02030692020204000300035F
:10614000021E00070203920203201C0203181C0215
:1061500003069202020400030003020BFF05020E75
:1061600000070203920203201C0203181C0303050C
:106170009202020400030003020AFF07020D000757
:106180000203920203201C0203181C03030592025F
:10619000020400030003020AFF07020D00070203C6
:1061A000920203201C0203181C020306920202043E
:1061B000000300030209FF09020C00070203920218
:1061C00003201C0203181C020306920202040003AF
:1061D00000030209FF09020C0007020392020320D8
:1061E0001C0203181C0203069202020400030003AF
:1061F0000209FF020202FF020201FF02020C000775
:106200000203920203201C0203171C0203079202DE
:106210000204000300030209FF020202FF0202015E
:10622000FF02020C00070203920203201C02031665
:106230001C03030792020204000300030209FF0388
:106240000201FF05020C00070203920203201C0258
:1062500003161C0203089202020400030003020951
:10626000FF030201FF05020C000702039202032054
:106270001C0203151C02030992020204000300031E
:10628000020AFF020201FF04020D0007020392024C
:1062900003201C0203141C030309920202040003DE
:1062A0000003020AFF020201FF04020D00070203BD
:1062B000920203201C0203131C03030A920202042D
:1062C00000030003020BFF010201FF03020E00079F
:1062D0000203920203201C0203121C03030B92020E
