:100000000C9462000C948A000C948A000C948A0070
:100010000C948A000C948A000C948A000C948A0038
:100020000C948A000C948A000C948A000C948A0028
:100030000C948A000C948A000C9402030C948A009D
:100040000C9460020C948A000C94D0020C94AA02C6
:100050000C948A000C948A000C948A000C948A00F8
:100060000C948A000C948A000000000023002600F3
:10007000290000000008000201000003040700003E
:1000800000000000000000000000250028002B00F8
:1000900000000000240027002A00040404040404D3
:1000A0000404020202020202030303030303010227
:1000B00004081020408001020408102001020408F6
:1000C0001020340411241FBECFEFD8E0DEBFCDBF17
:1000D00011E0A0E0B1E0E0E2F9E002C005900D928D
:1000E000A631B107D9F721E0A6E1B1E001C01D9228
:1000F000A33CB207E1F710E0C2E6D0E004C02197CC
:10010000FE010E948304C136D107C9F70E945A0339
:100110000C948E040C940000CF93DF9390E0FC01CC
:10012000E255FF4F2491FC01E656FF4F849188234E
:10013000C1F090E0880F991FFC01E057FF4FC59177
:10014000D491FC01EA57FF4FA591B4919FB7F89461
:100150008881E22FE0958E2388838C91E823EC93AD
:100160009FBFDF91CF910895CF92DF92EF92FF92E0
:100170000F931F93CF93DF936C017A018B01C0E043
:10018000D0E0CE15DF0581F0D8016D918D01D6014B
:10019000ED91FC910190F081E02DC6010995892B2C
:1001A00011F02196EECF7E01C701DF91CF911F9113
:1001B0000F91FF90EF90DF90CF900895089580E029
:1001C00090E00895FC01538D448D252F30E0842F5D
:1001D00090E0821B930B541710F0CF96089501976F
:1001E0000895FC01918D828D981761F0828DDF0159
:1001F000A80FB11D5D968C91928D9F5F9F73928F1A
:1002000090E008958FEF9FEF0895FC01918D828D0E
:10021000981731F0828DE80FF11D858D90E00895DB
:100220008FEF9FEF0895FC01918D228D892F90E033
:10023000805C9F4F821B91098F739927089586E2F6
:1002400091E00E94130121E0892B09F420E0822F24
:100250000895FC01848DDF01A80FB11DA35ABF4F83
:100260002C91848D90E001968F739927848FA689B5
:10027000B7892C93A089B1898C91837080648C9309
:10028000938D848D981306C00288F389E02D8081B8
:100290008F7D80830895EF92FF920F931F93CF93EA
:1002A000DF93EC0181E0888F9B8D8C8D981305C0C6
:1002B000E889F989808185FD26C0F62E0B8D10E036
:1002C0000F5F1F4F0F731127E02E8C8DE8120CC0AB
:1002D0000FB607FCFACFE889F989808185FFF5CF51
:1002E000CE010E942901F1CF8B8DFE01E80FF11D97
:1002F000E35AFF4FF0829FB7F8940B8FEA89FB898E
:10030000808180620AC09FB7F894EE89FF8960837C
:10031000E889F98980818370806480839FBF81E050
:1003200090E0DF91CF911F910F91FF90EF90089592
:10033000CF93DF93EC01888D8823C9F0EA89FB898C
:10034000808185FD05C0A889B9898C9186FD0FC083
:100350000FB607FCF5CF808185FFF2CFA889B98958
:100360008C9185FFEDCFCE010E942901E7CFDF916F
:10037000CF91089580E090E0892B29F00E941F0121
:1003800081110C940000089590E0FC01EE58FF4F9D
:100390002491FC01E255FF4F3491FC01E656FF4FDA
:1003A000E491EE23B9F1222339F1233091F038F4AE
:1003B0002130A9F0223001F584B58F7D12C027309D
:1003C00091F02830A1F02430B9F4809180008F7D25
:1003D00003C0809180008F77809380000DC084B52A
:1003E0008F7784BD09C08091B0008F7703C0809162
:1003F000B0008F7D8093B000F0E0EE0FFF1FE85952
:10040000FF4FA591B491EC91E32381E090E021F4BA
:1004100080E0089580E090E008958F929F92AF92DF
:10042000BF920F931F93CF93DF93CDB7DEB7A19702
:100430000FB6F894DEBF0FBECDBF19A2423008F44C
:100440004AE08E010F5D1F4F842E912CA12CB12C00
:10045000A50194010E946104E62FB901CA0101506F
:100460001109EA3014F4E05D01C0E95CD801EC93B5
:10047000232B242B252B61F70115110571F0F801B1
:1004800001900020E9F73197AF01401B510BB801F3
:1004900086E291E00E94B40002C080E090E0A19664
:1004A0000FB6F894DEBF0FBECDBFDF91CF911F9185
:1004B0000F91BF90AF909F908F9008950E948904F4
:1004C0001F920F920FB60F9211242F933F938F9389
:1004D0009F93AF93BF938091220190912301A091AC
:1004E0002401B09125013091210123E0230F2D3704
:1004F00020F40196A11DB11D05C026E8230F029628
:10050000A11DB11D2093210180932201909323010D
:10051000A0932401B093250180911D0190911E01AB
:10052000A0911F01B09120010196A11DB11D8093E2
:100530001D0190931E01A0931F01B0932001BF9154
:10054000AF919F918F913F912F910F900FBE0F9080
:100550001F9018951F920F920FB60F9211242F9390
:100560003F934F935F936F937F938F939F93AF933B
:10057000BF93EF93FF9386E291E00E942901FF91E0
:10058000EF91BF91AF919F918F917F916F915F910B
:100590004F913F912F910F900FBE0F901F90189584
:1005A0001F920F920FB60F9211242F938F939F9348
:1005B000EF93FF93E0913601F09137018081E09154
:1005C0003C01F0913D0182FD12C0908180913F017C
:1005D0008F5F8F7320914001821751F0E0913F01AE
:1005E000F0E0EA5DFE4F958F80933F0101C080816E
:1005F000FF91EF919F918F912F910F900FBE0F90D0
:100600001F9018951F920F920FB60F921124CF9240
:10061000DF92EF92FF922F933F934F935F936F93ED
:100620007F938F939F93AF93BF93EF93FF938091AB
:100630001B0190911C01019690931C0180931B015A
:10064000C0901601D09017010D2C000CEE08FF0889
:10065000F7FE0EC06DE286E291E00E944B01662734
:100660007727CB016C197D098E099F094AE003C0E9
:100670004AE0C701B6010E940D0242E050E062E18B
:1006800071E086E291E00E94B400FF91EF91BF918A
:10069000AF919F918F917F916F915F914F913F911A
:1006A0002F91FF90EF90DF90CF900F900FBE0F90A3
:1006B0001F901895789484B5826084BD84B581605C
:1006C00084BD85B5826085BD85B5816085BD80911D
:1006D0006E00816080936E00109281008091810095
:1006E000826080938100809181008160809381008D
:1006F000809180008160809380008091B10084604F
:100700008093B1008091B00081608093B0008091AF
:100710007A00846080937A0080917A00826080936E
:100720007A0080917A00816080937A0080917A00CB
:10073000806880937A001092C10082E00E948C0051
:1007400083E00E948C0084E00E948C00E0913601DE
:10075000F091370182E08083E0913201F091330122
:100760001082E0913401F09135018FEC808310927A
:100770003E01E0913A01F0913B0186E08083E091F7
:100780003801F0913901808180618083E0913801E6
:10079000F0913901808188608083E0913801F09187
:1007A0003901808180688083E0913801F0913901BE
:1007B00080818F7D808384B5826084BD85B585BD51
:1007C00089EF87BD80916E00866080936E00F894FB
:1007D00011E080911B0190911C014E9724F08091B3
:1007E0001A0181112FC0C0911801D0E082E00E944F
:1007F000C401C817D90719F180911A0181111FC0CE
:1008000082E00E94C40121E0892B09F420E02093BA
:10081000190182E00E94C401892B71F483E00E94D7
:10082000C401892BD9F0809116019091170101968E
:10083000909317018093160110931A0178940E94E7
:10084000BA01C7CFF89410921C0110921B011092AC
:100850001A018091190180931801C5CF809116016A
:10086000909117010197E4CFE6E2F1E01382128242
:1008700088EE93E0A0E0B0E084839583A683B783FD
:1008800084E091E09183808385EC90E09587848774
:1008900084EC90E09787868780EC90E0918B808B4A
:1008A00081EC90E0938B828B82EC90E0958B848B33
:1008B00086EC90E0978B868B118E128E138E148EA1
:1008C0000895A1E21A2EAA1BBB1BFD010DC0AA1F91
:1008D000BB1FEE1FFF1FA217B307E407F50720F0A9
:1008E000A21BB30BE40BF50B661F771F881F991F24
:1008F0001A9469F760957095809590959B01AC016D
:10090000BD01CF010895EE0FFF1F0590F491E02D7A
:10091000099481E090E0F8940C948E04F894FFCF51
:10092000000000004B01B400E20098011301F10047
:0609300005010D0A0000A4
:107E0000112484B714BE81FFF0D085E080938100F7
:107E100082E08093C00088E18093C10086E0809377
:107E2000C20080E18093C4008EE0C9D0259A86E02C
:107E300020E33CEF91E0309385002093840096BBD3
:107E4000B09BFECF1D9AA8958150A9F7CC24DD24C4
:107E500088248394B5E0AB2EA1E19A2EF3E0BF2EE7
:107E6000A2D0813461F49FD0082FAFD0023811F036
:107E7000013811F484E001C083E08DD089C08234E0
:107E800011F484E103C0853419F485E0A6D080C0E4
:107E9000853579F488D0E82EFF2485D0082F10E0AE
:107EA000102F00270E291F29000F111F8ED06801E7
:107EB0006FC0863521F484E090D080E0DECF843638
:107EC00009F040C070D06FD0082F6DD080E0C81688
:107ED00080E7D80618F4F601B7BEE895C0E0D1E017
:107EE00062D089930C17E1F7F0E0CF16F0E7DF06D8
:107EF00018F0F601B7BEE89568D007B600FCFDCFD4
:107F0000A601A0E0B1E02C9130E011968C91119780
:107F100090E0982F8827822B932B1296FA010C0160
:107F200087BEE89511244E5F5F4FF1E0A038BF0790
:107F300051F7F601A7BEE89507B600FCFDCF97BE46
:107F4000E89526C08437B1F42ED02DD0F82E2BD052
:107F50003CD0F601EF2C8F010F5F1F4F84911BD097
:107F6000EA94F801C1F70894C11CD11CFA94CF0C13
:107F7000D11C0EC0853739F428D08EE10CD085E9AC
:107F80000AD08FE07ACF813511F488E018D01DD067
:107F900080E101D065CF982F8091C00085FFFCCF94
:107FA0009093C60008958091C00087FFFCCF809118
:107FB000C00084FD01C0A8958091C6000895E0E648
:107FC000F0E098E1908380830895EDDF803219F02E
:107FD00088E0F5DFFFCF84E1DECF1F93182FE3DFCA
:107FE0001150E9F7F2DF1F91089580E0E8DFEE27F6
:047FF000FF270994CA
:027FFE00040479
:0400000300007E007B
:00000001FF