:100000000C94DB000C9403010C9403010C94030189
:100010000C9403010C9403010C9403010C94030150
:100020000C9403010C9403010C94B7030C94290461
:100030000C9403010C9403010C9403010C94030130
:100040000C9403010C9403010C9403010C94030120
:100050000C9403010C9403010C9403010C946706A7
:100060000C9403010C9403010C9403010C94030100
:100070000C9403010C9403010C9403010C940301F0
:100080000C9403010C9403010C9403010C940301E0
:100090000C9403010C9403010C9403010C940301D0
:1000A0000C9403010C9403010C9403019D07A00719
:1000B0008F0793079707C107C107C107A407A807C0
:1000C000AC07B207B607C107BC0700000000240058
:1000D00027002A002D003000000000002500280025
:1000E0002B002E0031000404040404030405020262
:1000F00002020403020202020606060606060404C1
:100100000202020404040802011040804010204052
:1001100080408008020401804020100201108010FD
:10012000204040200000000200090F0000030401ED
:10013000000C0000000000000000000000000000B3
:10014000000000080B000202020100090400000187
:10015000020200000524001001052401010104240D
:10016000020605240600010705810310004009046A
:100170000100020A00000007050202400000070516
:1001800083024000000403090412010002EF02018F
:1001900040412341800001010203014172647569FD
:1001A0006E6F204C4C430041726475696E6F20592C
:1001B000756E0000F20711241FBECFEFDAE0DEBF3C
:1001C000CDBF11E0A0E0B1E0E4EEF5E102C00590A2
:1001D0000D92A832B107D9F721E0A8E2B1E001C041
:1001E0001D92AE39B207E1F710E0CBEDD0E004C0CC
:1001F0002197FE010E940708CA3DD107C9F70E9456
:10020000B1060C94F00A0C94000020919701211182
:1002100003C08FEF9FEF08955FB7F89422E020931B
:10022000E9002091F20030E01216130614F421E0E8
:1002300030E0422FFC0184E6415038F0289880934A
:1002400096019091F1009193F7CF2115310521F09E
:100250008091F200882319F05FBFC90108958BE6F1
:100260008093E800F9CF2FB7F89483E08093E900FA
:100270009091E800892F807295FF04C09091F20060
:1002800080E4891B2FBF089580918E0181110DC0DC
:1002900082E080938A0184E080938B0110928D012B
:1002A00010928C0181E080938E018AE891E008959C
:1002B0004091840150918501209182013091830108
:1002C00042175307B4F49091E8009570E1F39091D0
:1002D000E80092FD19C08093F10080918401909113
:1002E000850101968F739927892B19F48EEF8093DE
:1002F000E800809184019091850101969093850199
:100300008093840181E0089580E00895DF92EF9268
:10031000FF920F931F93CF93DF93D82EF92EE42EE5
:10032000062F10E0C8010196880F0E94580183E053
:100330000E945801CD2DDF2D0C0F1D1FC017D107B6
:1003400089F0E7FE03C0FE01849101C088810E940C
:100350005801F82E80E00E9458018F2121968111CA
:10036000EDCF01C081E0DF91CF911F910F91FF9000
:10037000EF90DF900895DF92EF92FF920F931F931B
:10038000CF93DF93D82E8A017B01E40EF51EEB019B
:10039000CE15DF0571F0D7FE03C0FE01849101C0C8
:1003A00088810E94580121968111F2CF8FEF9FEF33
:1003B00001C0C801DF91CF911F910F91FF90EF9085
:1003C000DF9008950F931F93CF93DF931F92CDB7C4
:1003D000DEB782E0898342E450E063E471E080E8C4
:1003E0000E94BB010E944401DC0112960D911C91F8
:1003F00013970115110589F0D801ED91FC91028048
:10040000F381E02DBE016F5F7F4FC801099597FD15
:1004100004C0F80100851185ECCF89810F90DF9130
:10042000CF911F910F910895615030F02091F1000C
:10043000FC0120830196F8CF289884E680939601EA
:100440000895CF92DF92EF92FF920F931F93CF9375
:10045000DF936C017A018B01C0E0D0E0CE15DF059F
:1004600081F0D8016D918D01D601ED91FC91019043
:10047000F081E02DC6010995892B11F02196EECF70
:100480007E01C701DF91CF911F910F91FF90EF90F7
:10049000DF90CF900895CF93DF931F92CDB7DEB753
:1004A0006983DC01ED91FC910280F381E02D41E054
:1004B00050E0BE016F5F7F4F09950F90DF91CF91A4
:1004C000089583E08093E9008091F200882319F079
:1004D0008AE38093E80008950E94330190E0089534
:1004E000CF93DF931F92CDB7DEB7FC01848595854E
:1004F00097FD05C02FEF3FEF358724870BC0CE0156
:1005000001960E940501019719F4898190E002C0CB
:100510008FEF9FEF0F90DF91CF9108950F931F936F
:10052000CF93DF931F92CDB7DEB78C01FC0184859A
:10053000958597FF0EC0CE0101960E940501019797
:1005400019F4898190E002C08FEF9FEFF801958741
:100550008487F801848595850F90DF91CF911F9155
:100560000F910895FC018485958597FD0BC09FB779
:10057000F89482E08093E9008091F2009FBF90E0C0
:10058000019608959FB7F89482E08093E9008091E6
:10059000F2009FBF90E00895089580E090E00895F4
:1005A0003FB7F89480912D0190912E01A0912F01D9
:1005B000B091300126B5A89B05C02F3F19F00196D8
:1005C000A11DB11D3FBFBA2FA92F982F8827820FD9
:1005D000911DA11DB11DBC01CD0142E0660F771F29
:1005E000881F991F4A95D1F708958F929F92AF92D5
:1005F000BF92CF92DF92EF92FF926B017C010E943B
:10060000D0024B015C01C114D104E104F104F1F00A
:100610000E94D002DC01CB0188199909AA09BB0903
:10062000883E9340A105B10570F321E0C21AD108BC
:10063000E108F10888EE880E83E0981EA11CB11C29
:10064000C114D104E104F10419F7DDCFFF90EF905C
:10065000DF90CF90BF90AF909F908F9008958F9232
:100660009F92AF92BF92CF92DF92EF92FF920F9341
:100670001F93CF93DF936C017B018A0180910B0163
:10068000882309F45CC080919701882309F457C03E
:100690008091880180FF05C08091E0008260809396
:1006A000E000E801B12C8AEFA82E93E0892E2AE31E
:1006B000922E209711F4BB20D9F10E9433018111B1
:1006C0000AC0AA94AA20D9F161E070E080E090E02D
:1006D0000E94F502EECF282F30E0C217D3070CF4AA
:1006E0008C2F9FB7F8948092E9002091E80025FFB5
:1006F0001DC0282F30E0C21BD30BF701815020F022
:1007000041914093F100FACFE20EF31EBB2019F0A5
:100710009092E8000AC08091E80085FD07C09092A1
:10072000E800BB24B394209709F0B12C9FBFC1CF40
:100730005D9884E6809389011016110644F081E0EB
:1007400090E0F6019383828380E090E001C0C801CD
:10075000DF91CF911F910F91FF90EF90DF90CF909D
:10076000BF90AF909F908F9008950E940D081F92A8
:100770000F920FB60F9211248F939F938091E100F7
:100780009091E100937F9093E10083FF0FC010925E
:10079000E90091E09093EB001092EC0092E39093CB
:1007A000ED001092970198E09093F00082FF20C036
:1007B00093E09093E9009091F200992319F09AE365
:1007C0009093E80090918901992339F090918901E3
:1007D000915090938901992389F1909196019923E1
:1007E00039F090919601915090939601992341F19F
:1007F00084FF10C08091E2008E7E81608093E200D1
:100800008091E1008F7E8093E100809188018E7E4F
:10081000806111C080FF16C08091E2008E7E8061F1
:100820008093E2008091E1008E7E8093E1008091D0
:1008300088018E7E81608093880104C05D9ACDCF4F
:10084000289AD6CF9F918F910F900FBE0F901F9037
:1008500018951F920F920FB60F921124CF92DF922C
:10086000EF92FF920F931F932F933F934F935F93BA
:100870006F937F938F939F93AF93BF93EF93FF9368
:10088000CF93DF93CDB7DEB76C97DEBFCDBF1092AD
:10089000E9008091E80083FFFBC168E0CE01459646
:1008A0000E94140282EF8093E8008D8987FF05C0C3
:1008B0009091E80090FFFCCF03C09EEF9093E8007A
:1008C000982F907609F0C6C09E894F89588D2F8940
:1008D000F88C91110CC0803829F4809187018093A5
:1008E000F10002C01092F1001092F10045C1913068
:1008F00051F4811141C14130510509F03DC1809150
:1009000087018D7F0BC0933061F4811135C1413077
:10091000510509F031C18091870182608093870180
:100920002BC1953049F48091E80080FFFCCF822FE5
:1009300080688093E30020C1963009F05EC00B8D83
:100940001C8D22E01092E900109285011092840122
:10095000F21232C010928301109282010E94E201D1
:1009600099E0BE016F5F7F4FDB01E92F1D92EA9591
:10097000E9F79983FA8291E09E8390EA98879AEF4B
:1009800099872091840130918501275F3F4F3C83F7
:100990002B838D831092E9001092850110928401BF
:1009A000109383010093820149E050E080E00E94AF
:1009B000BB010E94E201E0C0109383010093820119
:1009C0000E944401DC0112960D911C9113970115B0
:1009D000110509F4BBC0D801ED91FC910480F581AB
:1009E000E02DBE016B5E7F4FC8010995009709F0AD
:1009F000C7C0F80100851185EACF973009F445C1D9
:100A0000983021F481E08093F100B6C0993009F06C
:100A1000B3C0837009F039C1EFE1F1E081E031E06A
:100A200096E32081211109C08EE78093EA0010929D
:100A3000EA008F89809397019FC08093E9003093EB
:100A4000EB0021912093EC009093ED008F5F8730B5
:100A500041F7EACF8B8D9C8D1092E90010928501B1
:100A6000109284019093830180938201898D81117A
:100A700053C08E899D89913A49F4813209F005C1AC
:100A800047E050E064E071E080E0BBC0913209F0E3
:100A9000FCC0833269F48F89988DA0E0B0E0809328
:100AA000000190930101A0930201B093030164C07F
:100AB000803269F48091E80082FFFCCF67E084E037
:100AC00091E00E9414028BEF8093E80055C08232BF
:100AD00009F052C08F8980930B01EEEFFFE78591FB
:100AE00094918B3F9C4D19F0E0E0F8E002C0EEEFEE
:100AF000FAE08091040190910501A0910601B09166
:100B00000701803B9440A105B10509F09EC080918A
:100B10000B0180FF79C099C00E944401FC01028151
:100B200013810115110509F4B0C0D801ED91FC91B4
:100B30000190F081E02DBE016B5E7F4FC8010995E9
:100B400081111AC0F80100851185EBCFF1E0FF1685
:100B500009F44EC0F3E0FF1298C08F89882309F48E
:100B60004AC0823089F440E86BE087EA91E00E9455
:100B70008601882309F489C08EEF8093E80088C03D
:100B800018161906CCF381C0813029F440E86BE0D7
:100B90008BE991E0ECCF833009F077C00E944401EB
:100BA000DC011296ED90FC9013978E010F5F1F4FA2
:100BB0006801E114F10479F0D701ED91FC91068010
:100BC000F781E02DB801C7010995080F111DF70144
:100BD000E084F184EECFD8011C92F6010190002050
:100BE000E9F73197BF016C197D0940E0C601BFCF1D
:100BF00069E871E002C065E871E0FB01449150E0F2
:100C000080E80E94BB01B8CFEE3F2AE0F20751F026
:100C1000808191818737A7E79A0721F09093FF0A97
:100C20008093FE0A87E797E7918380838091600035
:100C3000809386019BE088E10FB6F894A895809395
:100C400060000FBE9093600097CF808191818737BD
:100C5000974709F091CFA8958091600088618093B3
:100C600060008091860180936000EE3FBAE0FB0750
:100C700039F08091FE0A9091FF0A918380837CCFA6
:100C80001092FF0A1092FE0A77CF81E28093EB0068
:100C90006C960FB6F894DEBF0FBECDBFDF91CF913B
:100CA000FF91EF91BF91AF919F918F917F916F9144
:100CB0005F914F913F912F911F910F91FF90EF9076
:100CC000DF90CF900F900FBE0F901F9018951F923E
:100CD0000F920FB60F9211242F933F938F939F93F0
:100CE000AF93BF938091290190912A01A0912B018C
:100CF000B0912C013091280123E0230F2D3720F4EF
:100D00000196A11DB11D05C026E8230F0296A11D65
:100D1000B11D209328018093290190932A01A0936B
:100D20002B01B0932C0180912D0190912E01A09167
:100D30002F01B09130010196A11DB11D80932D01AD
:100D400090932E01A0932F01B0933001BF91AF91EA
:100D50009F918F913F912F910F900FBE0F901F90F9
:100D60001895789484B5826084BD84B5816084BD13
:100D700085B5826085BD85B5816085BD80916E0039
:100D8000816080936E00109281008091810082606A
:100D900080938100809181008160809381008091A7
:100DA00080008160809380008091910082608093B8
:100DB00091008091910081608093910080919000DA
:100DC0008160809390008091C10084608093C10015
:100DD0008091C10082608093C1008091C1008160D8
:100DE0008093C1008091C30081608093C300809193
:100DF000C00082608093C0008091C20081608093B7
:100E0000C20080917A00846080937A0080917A0099
:100E1000826080937A0080917A00816080937A006A
:100E200080917A00806880937A00109297011092E6
:100E30008701109288018091D70081608093D7004C
:100E400080EA8093D80089B5806189BD89B58260C8
:100E500089BD09B400FEFDCF61E070E080E090E064
:100E60000E94F5028091D8008F7C80618093D80029
:100E70008091E000807F8093E0008091E1008E7E91
:100E80008093E1008DE08093E200559A209AC2E1C0
:100E9000D1E0FE01249103EF10E0F8018491882352
:100EA00099F090E0880F991FFC01E653FF4FA59140
:100EB000B491FC01E852FF4F859194919FB7F8944B
:100EC0008C91822B8C939FBF8FEF9FEF90933E016D
:100ED00080933D0191E3C92E91E0D92E25E2E22EC7
:100EE00021E0F22E9924939430E0A32E30E0B32E2B
:100EF000F6014491FE019491F8018491882309F44C
:100F000053C0209181014423E1F150E0FA0131976F
:100F1000EF30F105B0F5EA5AFF4F0C940708309115
:100F200080003F7707C0309180003F7D03C0309143
:100F30008000377F3093800024C034B53F7702C0F3
:100F400034B53F7D34BD1DC0309190003F7707C060
:100F5000309190003F7D03C030919000377F3093F7
:100F600090000FC03091C0003F7703C03091C000A7
:100F70003F7D3093C00005C03091C200377F309371
:100F8000C200E82FF0E0EE0FFF1FE852FF4FA591DF
:100F9000B4913FB7F8948C91211103C09095982398
:100FA00001C0982B9C933FBF809181011F928F932A
:100FB000FF92EF920E94120880918101892580930F
:100FC000810168EE73E080E090E00E94F5020F90EE
:100FD0000F900F900F90A114B10409F489CF0E94D3
:100FE000000086CFE1E3F1E01382128288EE93E005
:100FF000A0E0B0E084839583A683B78380E191E08D
:10100000918380838FEF9FEF958784870895EE0FFC
:10101000FF1F0590F491E02D099481E090E0F89491
:101020000C94F00AA0E0B0E0E8E1F8E00C94C90A02
:10103000AE014B5F5F4FFA0161917191AF018091F9
:101040009A0190919B010E942808E2E00C94E50A25
:10105000ABE0B0E0EEE2F8E00C94B90A6C017B0181
:101060008A01FC0117821682838181FFCCC1CE01E7
:1010700001963C01F6019381F70193FD859193FF61
:1010800081917F01882309F4BAC1853239F493FD37
:10109000859193FF81917F01853229F4B60190E01B
:1010A0000E941F0AE7CF912C212C312CFFE1F31570
:1010B000D8F08B3279F038F4803279F08332A1F4B1
:1010C000232D20611DC08D3261F0803369F4232D02
:1010D000216016C0832D8260382EE32DE4603E2E01
:1010E0002AC0F32DF8601DC037FC2DC020ED280F5D
:1010F0002A3040F08E32B9F436FC81C1232D2064B1
:10110000322E19C036FE06C08AE0989E200D1124AA
:10111000922E11C0EAE02E9E200D1124222EF32DD6
:10112000F0623F2E08C08C3621F4832D8068382E63
:1011300002C0883641F4F70193FD859193FF8191B8
:101140007F018111B3CF982F9F7D9554933028F460
:101150000C5F1F4F9FE399830DC0833631F08337B7
:1011600071F0833509F059C021C0F801808189836D
:101170000E5F1F4F88248394912C530113C02801C4
:10118000F2E04F0E511CF801A080B18036FE03C082
:10119000692D70E002C06FEF7FEFC5010E94140A55
:1011A0004C018201F32DFF773F2E16C0280122E06B
:1011B000420E511CF801A080B18036FE03C0692D9B
:1011C00070E002C06FEF7FEFC5010E94090A4C0179
:1011D000F32DF0683F2E820133FC1BC0822D90E07E
:1011E00088169906B0F4B60180E290E00E941F0ACA
:1011F0002A94F4CFF50137FC859137FE81915F0188
:10120000B60190E00E941F0A21102A9421E0821A60
:1012100091088114910471F7E8C0843611F0893681
:1012200041F5F80137FE07C06081718182819381A9
:101230000C5F1F4F08C060817181072E000C880B66
:10124000990B0E5F1F4FF32DFF763F2E97FF09C0BE
:1012500090958095709561957F4F8F4F9F4FF06867
:101260003F2E2AE030E0A3010E945B0A882E8618F8
:1012700045C0853731F4232D2F7EB22E2AE030E091
:1012800025C0932D997FB92E8F36C1F018F488357B
:1012900079F0B5C0803719F0883721F0B0C0E92F58
:1012A000E061BE2EB4FE0DC0FB2DF460BF2E09C060
:1012B00034FE0AC0292F2660B22E06C028E030E096
:1012C00005C020E130E002C020E132E0F801B7FEC5
:1012D00007C060817181828193810C5F1F4F06C0BE
:1012E0006081718180E090E00E5F1F4FA3010E943A
:1012F0005B0A882E8618FB2DFF773F2E36FE0DC029
:10130000232D2E7FA22E891458F434FE0BC032FCFC
:1013100009C0832D8E7EA82E05C0B82CA32C03C037
:10132000B82C01C0B92CA4FE0FC0FE01E80DF11DC0
:101330008081803321F49A2D997EA92E09C0A2FEC6
:1013400006C0B394B39404C08A2D867809F0B39490
:10135000A3FC11C0A0FE06C0B21488F4280C922C85
:101360009B180EC0B21460F4B60180E290E00E94B7
:101370001F0AB394F7CFB21418F42B1802C0982C9C
:10138000212CA4FE10C0B60180E390E00E941F0A49
:10139000A2FE17C0A1FC03C088E790E002C088E568
:1013A00090E0B6010CC08A2D867859F0A1FE02C0EB
:1013B0008BE201C080E2A7FC8DE2B60190E00E94C2
:1013C0001F0A891438F4B60180E390E00E941F0AD6
:1013D0009A94F7CF8A94F301E80DF11D8081B6014C
:1013E00090E00E941F0A8110F5CF222009F442CE1E
:1013F000B60180E290E00E941F0A2A94F6CFF6011F
:101400008681978102C08FEF9FEF2B96E2E10C94CB
:10141000D50AFC010590615070400110D8F7809505
:1014200090958E0F9F1F0895FC01615070400190B0
:101430000110D8F7809590958E0F9F1F08950F93F8
:101440001F93CF93DF93FB01238121FD03C08FEF17
:101450009FEF2CC022FF16C0468157812481358121
:101460004217530744F4A081B1819D012F5F3F4F84
:10147000318320838C93268137812F5F3F4F3783C1
:10148000268314C08B01EC01FB010084F185E02D63
:101490000995892BE1F6D80116968D919C911797A5
:1014A000019617969C938E931697CE01DF91CF915C
:1014B0001F910F910895FA01AA27283051F1203188
:1014C00081F1E8946F936E7F6E5F7F4F8F4F9F4FD8
:1014D000AF4FB1E03ED0B4E03CD0670F781F891F1A
:1014E0009A1FA11D680F791F8A1F911DA11D6A0FE8
:1014F000711D811D911DA11D20D009F468943F919B
:101500002AE0269F11243019305D3193DEF6CF0199
:101510000895462F4770405D4193B3E00FD0C9F75F
:10152000F6CF462F4F70405D4A3318F0495D31FDCC
:101530004052419302D0A9F7EACFB4E0A69597951F
:10154000879577956795BA95C9F7009761057105F5
:1015500008959B01AC010A2E06945795479537953F
:101560002795BA95C9F7620F731F841F951FA01D99
:1015700008952F923F924F925F926F927F928F9237
:101580009F92AF92BF92CF92DF92EF92FF920F9312
:101590001F93CF93DF93CDB7DEB7CA1BDB0B0FB61C
:1015A000F894DEBF0FBECDBF09942A8839884888D9
:1015B0005F846E847D848C849B84AA84B984C8846F
:1015C000DF80EE80FD800C811B81AA81B981CE0F66
:1015D000D11D0FB6F894DEBF0FBECDBFED0108954B
:0415E000F894FFCFAD
:1015E400FFFFFFFF00E1000000000000000000001A
:1015F4004B022F036C026102B20270028E0200C120
:08160400808100000025640054
:1070000055C000006EC000006CC000006AC00000E7
:1070100068C0000066C0000064C0000062C00000DC
:1070200060C000005EC00000FCC400005AC0000048
:1070300058C0000056C0000054C0000052C00000FC
:1070400050C000005DC000004CC000004AC00000FD
:1070500048C0000046C0000044C0000042C000001C
:1070600040C000003EC000003CC000003AC000002C
:1070700038C0000036C0000034C0000032C000003C
:1070800030C000002EC000002CC000002AC000004C
:1070900028C0000026C0000024C0000022C000005C
:1070A00020C000001EC000001CC0000011241FBE34
:1070B000CFEFDAE0DEBFCDBF11E0A0E0B1E0E6E463
:1070C000FFE702C005900D92A63AB107D9F711E08B
:1070D000A6EAB1E001C01D92AF3BB107E1F74FD383
:1070E00030C78ECFF89410926F001092810081E02B
:1070F00085BF15BE47985D9A289A0C9400000895A4
:107100001F920F920FB60F9211242F938F939F937C
:10711000EF93FF9310928500109284008091A60156
:107120009091A701009741F001979093A701809358
:10713000A601892B09F45D9A8091A8019091A9017B
:10714000009741F001979093A9018093A801892BA2
:1071500009F4289A8091AC019091AD010196909329
:10716000AD018093AC01E0E0F0E0859194918F5FF8
:107170009F4F49F08091AA019091AB0101969093A5
:10718000AB018093AA01FF91EF919F918F912F9175
:107190000F900FBE0F901F90189584E08093E90028
:1071A0000DC08091E8008B778093E80003C08EB318
:1071B000882351F08091E80082FFF9CF8091E800A8
:1071C00085FFEFCF8091F1000895982F83E08093A1
:1071D000E9008091E80085FD0DC08091E8008E7780
:1071E0008093E80003C08EB3882369F08091E800A3
:1071F00080FFF9CF9093F1005D9884E690E0909342
:10720000A7018093A60108954F925F926F927F929B
:107210008F929F92AF92BF92CF92DF92EF92FF92A6
:107220000F931F93CF93DF9384E08093E9008091C5
:10723000E80082FF57C2289884E690E09093A90165
:107240008093A801AADF182F853481F48CE49DE196
:107250009093AB018093AA0107B600FCFDCFF9998A
:10726000FECF81E180935700E89503C0843519F47F
:1072700094DF8DE00DC28C34E1F38035D1F3843797
:1072800021F484E4A2DF80E003C2813611F489E5B1
:10729000FFC18134B1F481DF182F7FDF90E0880FC8
:1072A000991FAA2797FDA095BA2F312F330F20E001
:1072B000442737FD4095542F822B932BA42BB52BBD
:1072C000B8C1803711F483E5E3C1833549F4C0E0E8
:1072D000D1E089917ADF21E0C730D207D1F7D9C157
:1072E000863521F481E371DF80E3D2C1833731F445
:1072F00087E86BDF85E969DF8EE1CAC18536B9F4BD
:10730000E0E0F0E093E085E090935700E89507B661
:1073100000FCFDCF80935700E89507B600FCFDCF39
:10732000E058FF4FA0E7E030FA0771F7A2CF8237AD
:1073300039F4E1E0F0E089E0809357008491A8C13E
:10734000863439F4E0E0F0E089E0809357008491DE
:107350009FC18E3439F4E3E0F0E089E08093570078
:10736000849196C1813539F4E2E0F0E089E08093C0
:10737000570084918DC1823631F489E526DF80E0A3
:1073800024DF80E885C1823419F0873609F0E5C032
:107390001092AB011092AA0100DF082FFEDEF82E3A
:1073A000FCDE682E8554823008F071C1902F80E099
:1073B000CF2DD0E0C82BD92B10926F00173609F0D3
:1073C0004BC081E180935700E895DD24CC24C39421
:1073D0003FC0E090AF01F090B0010091B101109179
:1073E000B201B6E46B16D9F4ED2DF0E0EE29FF29D9
:1073F000E4918E2FEADEDD2081F082E090E0A0E0D3
:10740000B0E0E80EF91E0A1F1B1FE092AF01F092D8
:10741000B0010093B1011093B201DC2418C0D8016F
:10742000C701B695A7959795879575D5CEDE82E06D
:1074300090E0A0E0B0E0E80EF91E0A1F1B1FE092EA
:10744000AF01F092B0010093B1011093B201219706
:10745000209709F0BECF7DC08090AF019090B00121
:10746000A090B101B090B20196E4691609F05DC038
:1074700083E0F40180935700E89507B600FCFDCF48
:1074800054C0F6E46F1661F5772031F1E090AF015A
:10749000F090B0010091B1011091B2017EDED82EC2
:1074A000CC24852D90E08C299D29F7010C01409278
:1074B0005700E895112482E090E0A0E0B0E0E80EEB
:1074C000F91E0A1F1B1FE092AF01F092B00100935A
:1074D000B1011093B20102C060DE582E742423C0A3
:1074E000E090AF01F090B0010091B1011091B201B4
:1074F00016950795F794E79450DE682FC70113D5CA
:107500008091AF019091B001A091B101B091B20111
:107510000296A11DB11D8093AF019093B001A0937D
:10752000B101B093B201219704C0552477244424BB
:107530004394209709F0A5CF96E4691641F485E0BD
:10754000F40180935700E89507B600FCFDCF8DE06D
:107550003CDE82E080936F009CC0833471F4009124
:10756000AF011091B00119DE90E021E0F8010C01AB
:1075700020935700E89511247CCE833619F5E090CE
:10758000AF01F090B0010091B1011091B20105DEA0
:10759000F701E16090E021E00C0120935700E895AD
:1075A000112482E090E0A0E0B0E0E80EF91E0A1F8E
:1075B0001B1FE092AF01F092B0010093B101109354
:1075C000B20157CE8D3661F4E091AF01F091B00178
:1075D00085E080935700E89507B600FCFDCF49CEC3
:1075E000823551F4E091AF01F091B0010591149111
:1075F000812FEBDD802F4CC0843421F5E090AF016A
:10760000F090B0010091B1011091B201169507956B
:10761000F794E794C2DD682FC70185D48091AF014C
:107620009091B001A091B101B091B2010296A11D5B
:10763000B11D8093AF019093B001A093B101B093BD
:10764000B20117CE843609F5E090AF01F090B00199
:107650000091B1011091B201D801C701B695A7956B
:107660009795879558D4B1DD82E090E0A0E0B0E036
:10767000E80EF91E0A1F1B1FE092AF01F092B00145
:107680000093B1011093B20104C08B3111F08FE36C
:107690009CDD83E08093E9009091E8008091E80010
:1076A0008E778093E80095FF04C010C08EB38823C6
:1076B000C9F08091E80080FFF9CF8091E8008E77D3
:1076C0008093E80003C08EB3882361F08091E800C6
:1076D00080FFF9CF84E08093E9008091E8008B7708
:1076E0008093E800DF91CF911F910F91FF90EF9071
:1076F000DF90CF90BF90AF909F908F907F906F90D2
:107700005F904F9008959091B701892F8F778132C4
:1077100049F58091B8018032A1F0813219F5913A92
:1077200009F58091E800877F8093E8008CE091E084
:1077300067E070E027D28091E8008B778093E800C3
:107740000895913279F48091E800877F8093E80072
:107750008CE091E067E070E079D28091E8008E776C
:107760008093E800089582E061EC42E0D1D083E0AC
:1077700061E842E1CDD084E060E842E1C9C01F93F6
:10778000209100081092000844B714BE88E10FB69B
:10779000F89480936000109260000FBE80E8E0E0F3
:1077A000F0E00FB6F89480936100E09361000FBEA3
:1077B00031E035BF92E095BF3F9A209A559A809369
:1077C00061001092610047985D9A289A1092890092
:1077D0008AEF8093880090936F0083E0809381000C
:1077E000859194918F5F9F4F11F03093AE01942F4C
:1077F00041FF19C0809109012817A9F08093000862
:10780000789480911301882339F08091AC01909194
:10781000AD018F5E9240C8F310920008F89481E0A9
:10782000809313010CC090FF04C08091AE018823A7
:1078300051F493FF09C080910901281729F0809124
:10784000AE01882309F04EDCD4D078941092AB01BD
:107850001092AA011EEF20C0D7DC4BD38091AA0161
:107860009091AB0181549F4110F0109213018091CF
:10787000B3019091B40101969093B4018093B30148
:10788000292F97FF03C0512F591B252F220F28178F
:1078900010F4479801C0479A809113018823E1F6BC
:1078A0008091E00081608093E0001CDC80E090E04B
:1078B0001F910895FA01923049F0933061F09130B0
:1078C000F9F484E191E022E130E01EC086E291E02B
:1078D0002EE330E019C0882329F484E691E024E007
:1078E00030E012C0813029F488E691E022E230E0F5
:1078F0000BC0823029F48CE891E028E130E004C02C
:1079000080E090E020E030E091838083C901089519
:107910008093E9008091EB0081608093EB001092EE
:10792000ED006093EC004093ED008091EE00881F25
:107930008827881F08958091B70188238CF403C09D
:107940008EB38823B1F08091E80082FFF9CF809157
:10795000E8008B778093E80008958EB3882349F080
:107960008091E80080FFF9CF8091E8008E778093C6
:10797000E8000895EF92FF920F931F9345D04CD0EB
:1079800008ED10E0F80180818F7780838081806826
:10799000808380818F7D808319BC1EBA1092B501CF
:1079A00080EEE82EF12CF70180818B7F8083F80137
:1079B00080818160808380E060E042E0A9DFE1EEC9
:1079C000F0E080818E7F8083E2EEF0E08081816054
:1079D0008083808188608083F70180818E7F8083AF
:1079E000F8018081806180831F910F91FF90EF905B
:1079F0000895E7EDF0E08081816080838AE482BFB2
:107A000081E08093B601B6CFE8EDF0E080818E7F13
:107A100080831092E20008951092DA001092E10043
:107A200008951F920F920FB60F9211242F933F9338
:107A30004F935F936F937F938F939F93AF93BF9376
:107A4000EF93FF938091DA0080FF1BC08091D800F4
:107A500080FF17C08091DA008E7F8093DA008091DA
:107A6000D90080FF0BC080E189BD82E189BD09B4E6
:107A700000FEFDCF81E08EBB3BD203C019BC1EBA15
:107A800037D28091E10080FF17C08091E20080FF33
:107A900013C08091E2008E7F8093E2008091E2002B
:107AA00080618093E2008091D80080628093D8004A
:107AB00019BC85E08EBB1CD28091E10084FF2CC0F4
:107AC0008091E20084FF28C080E189BD82E189BD08
:107AD00009B400FEFDCF8091D8008F7D8093D8003F
:107AE0008091E1008F7E8093E1008091E2008F7EA3
:107AF0008093E2008091E20081608093E2008091B7
:107B0000B501882331F48091E30087FD02C081E054
:107B100001C084E08EBBECD18091E10083FF21C0E5
:107B20008091E20083FF1DC08091E100877F8093F8
:107B3000E10082E08EBB1092B5018091E1008E7F62
:107B40008093E1008091E2008E7F8093E20080913B
:107B5000E20080618093E20080E060E042E0D8DEF5
:107B6000C7D1FF91EF91BF91AF919F918F917F917D
:107B70006F915F914F913F912F910F900FBE0F909A
:107B80001F9018959C014091BD015091BE01461770
:107B9000570718F4F90190E044C06115710511F020
:107BA000AB01F8CF8091E8008E778093E80040E049
:107BB00050E0F0CF8EB3882309F444C0853009F437
:107BC00043C08091E80083FF02C081E00895809166
:107BD000E80082FD31C08091E80080FF22C08091E2
:107BE000F3009091F200782F60E0292F30E0262BEF
:107BF000372B07C081918093F100415050402F5F97
:107C00003F4F4115510519F02830310598F390E0A8
:107C10002830310509F491E08091E8008E77809357
:107C2000E8004115510531F6992321F605C08EB3C0
:107C3000882341F0853041F08091E80082FFF7CF42
:107C400080E0089582E0089583E008959C01611525
:107C5000710529F48091E8008B778093E800F901A1
:107C600026C08EB3882391F1853091F18091E80090
:107C700083FF02C081E008958091E80082FFF1CF88
:107C800006C08091F10081936150704059F02091BD
:107C9000F3008091F200322F20E090E0822B932BB2
:107CA000892B79F78091E8008B778093E800611544
:107CB0007105B9F605C08EB3882341F0853041F0D7
:107CC0008091E80080FFF7CF80E0089582E008957A
:107CD00083E008950F931F93DF93CF9300D0CDB728
:107CE000DEB7E7EBF1E08091F100819381E0EF3BBB
:107CF000F807C9F708DD8091E80083FFE4C08091B0
:107D0000B7019091B801953009F46DC0963040F4F8
:107D1000913081F1913070F0933009F0D4C02AC0D5
:107D2000983009F4A3C0993009F4B2C0963009F034
:107D3000CAC07CC0803809F4C6C0823809F0C3C00C
:107D40008091BB0187708093E9008091EB001092D5
:107D5000E9002091E800277F2093E80090E025E0EB
:107D6000969587952A95E1F781708093F10010929E
:107D7000F10087C0882319F0823009F0A4C08F7108
:107D8000823009F0A0C08091B901882331F520919B
:107D9000BB01277009F497C02093E9008091EB00A4
:107DA00080FF1BC0933021F48091EB00806213C0F0
:107DB0008091EB0080618093EB0081E090E002C055
:107DC000880F991F2A95E2F78093EA001092EA0043
:107DD0008091EB0088608093EB001092E900809125
:107DE000E800877F51C0882309F06DC01091B90168
:107DF0001F770FB7F8948091E800877F8093E800A1
:107E00009ADD8091E80080FFFCCF8091E3008078CC
:107E1000812B8093E30080688093E300112311F4A9
:107E200082E001C083E08EBB0FBF4DC0805882301E
:107E300008F049C08091B9019091BA016091BB01ED
:107E4000AE014F5F5F4F36DDBC01009709F43BC0C8
:107E50008091E800877F8093E80089819A8192DE93
:107E60008091E8008B778093E8002DC0803859F529
:107E70008091E800877F8093E8008091B50180932E
:107E8000F1008091E8008E778093E80054DD1BC0FC
:107E90008823C9F49091B9019230A8F48091E80048
:107EA000877F8093E8009093B50145DD8091B5010F
:107EB000882331F48091E30087FD02C081E001C096
:107EC00084E08EBB50DC8091E80083FF0AC0809183
:107ED000EB0080628093EB008091E800877F8093C5
:107EE000E8000F900F90CF91DF911F910F910895AF
:107EF00008951F938EB3882361F01091E9001092CA
:107F0000E9008091E80083FF01C0E4DE1770109360
:107F1000E9001F910895F999FECF92BD81BDF89AAD
:107F2000992780B50895262FF999FECF1FBA92BDE3
:107F300081BD20BD0FB6F894FA9AF99A0FBE01964A
:067F40000895F894FFCF44
:107F46004341544552494E41007700080000000065
:107F5600000008011201100102000008412341003F
:107F660001000201000109023E00020100803209FF
:107F7600040000010202010005240010010424028D
:107F8600040524060001070582030800FF09040111
:107F960000020A000000070504021000010705831D
:107FA6000210000104030904220341007200640068
:107FB600750069006E006F002000590075006E00A4
:107FC60020002000200020002000000018034100AF
:107FD60072006400750069006E006F0020004C009E
:067FE6004C004300000006
:040000030000700089
:00000001FF