:100000000C94DB000C9403010C9403010C94030189
:100010000C9403010C9403010C9403010C94030150
:100020000C9403010C9403010C94B7030C94290461
:100030000C9403010C9403010C9403010C94030130
:100040000C9403010C9403010C9403010C94030120
:100050000C9403010C9403010C9403010C946706A7
:100060000C9403010C9403010C9403010C94030100
:100070000C9403010C9403010C9403010C940301F0
:100080000C9403010C9403010C9403010C940301E0
:100090000C9403010C9403010C9403010C940301D0
:1000A0000C9403010C9403010C9403019D07A00719
:1000B0008F0793079707C107C107C107A407A807C0
:1000C000AC07B207B607C107BC0700000000240058
:1000D00027002A002D003000000000002500280025
:1000E0002B002E0031000404040404030405020262
:1000F00002020403020202020606060606060404C1
:100100000202020404040802011040804010204052
:1001100080408008020401804020100201108010FD
:10012000204040200000000200090F0000030401ED
:10013000000C0000000000000000000000000000B3
:10014000000000080B000202020100090400000187
:10015000020200000524001001052401010104240D
:10016000020605240600010705810310004009046A
:100170000100020A00000007050202400000070516
:1001800083024000000403090412010002EF02018F
:1001900040412341800001010203014172647569FD
:1001A0006E6F204C4C430041726475696E6F20592C
:1001B000756E0000F20711241FBECFEFDAE0DEBF3C
:1001C000CDBF11E0A0E0B1E0E4EEF5E102C00590A2
:1001D0000D92A832B107D9F721E0A8E2B1E001C041
:1001E0001D92AE39B207E1F710E0CBEDD0E004C0CC
:1001F0002197FE010E940708CA3DD107C9F70E9456
:10020000B1060C94F00A0C94000020919701211182
:1002100003C08FEF9FEF08955FB7F89422E020931B
:10022000E9002091F20030E01216130614F421E0E8
:1002300030E0422FFC0184E6415038F0289880934A
:1002400096019091F1009193F7CF2115310521F09E
:100250008091F200882319F05FBFC90108958BE6F1
:100260008093E800F9CF2FB7F89483E08093E900FA
:100270009091E800892F807295FF04C09091F20060
:1002800080E4891B2FBF089580918E0181110DC0DC
:1002900082E080938A0184E080938B0110928D012B
:1002A00010928C0181E080938E018AE891E008959C
:1002B0004091840150918501209182013091830108
:1002C00042175307B4F49091E8009570E1F39091D0
:1002D000E80092FD19C08093F10080918401909113
:1002E000850101968F739927892B19F48EEF8093DE
:1002F000E800809184019091850101969093850199
:100300008093840181E0089580E00895DF92EF9268
:10031000FF920F931F93CF93DF93D82EF92EE42EE5
:10032000062F10E0C8010196880F0E94580183E053
:100330000E945801CD2DDF2D0C0F1D1FC017D107B6
:1003400089F0E7FE03C0FE01849101C088810E940C
:100350005801F82E80E00E9458018F2121968111CA
:10036000EDCF01C081E0DF91CF911F910F91FF9000
:10037000EF90DF900895DF92EF92FF920F931F931B
:10038000CF93DF93D82E8A017B01E40EF51EEB019B
:10039000CE15DF0571F0D7FE03C0FE01849101C0C8
:1003A00088810E94580121968111F2CF8FEF9FEF33
:1003B00001C0C801DF91CF911F910F91FF90EF9085
:1003C000DF9008950F931F93CF93DF931F92CDB7C4
:1003D000DEB782E0898342E450E063E471E080E8C4
:1003E0000E94BB010E944401DC0112960D911C91F8
:1003F00013970115110589F0D801ED91FC91028048
:10040000F381E02DBE016F5F7F4FC801099597FD15
:1004100004C0F80100851185ECCF89810F90DF9130
:10042000CF911F910F910895615030F02091F1000C
:10043000FC0120830196F8CF289884E680939601EA
:100440000895CF92DF92EF92FF920F931F93CF9375
:10045000DF936C017A018B01C0E0D0E0CE15DF059F
:1004600081F0D8016D918D01D601ED91FC91019043
:10047000F081E02DC6010995892B11F02196EECF70
:100480007E01C701DF91CF911F910F91FF90EF90F7
:10049000DF90CF900895CF93DF931F92CDB7DEB753
:1004A0006983DC01ED91FC910280F381E02D41E054
:1004B00050E0BE016F5F7F4F09950F90DF91CF91A4
:1004C000089583E08093E9008091F200882319F079
:1004D0008AE38093E80008950E94330190E0089534
:1004E000CF93DF931F92CDB7DEB7FC01848595854E
:1004F00097FD05C02FEF3FEF358724870BC0CE0156
:1005000001960E940501019719F4898190E002C0CB
:100510008FEF9FEF0F90DF91CF9108950F931F936F
:10052000CF93DF931F92CDB7DEB78C01FC0184859A
:10053000958597FF0EC0CE0101960E940501019797
:1005400019F4898190E002C08FEF9FEFF801958741
:100550008487F801848595850F90DF91CF911F9155
:100560000F910895FC018485958597FD0BC09FB779
:10057000F89482E08093E9008091F2009FBF90E0C0
:10058000019608959FB7F89482E08093E9008091E6
:10059000F2009FBF90E00895089580E090E00895F4
:1005A0003FB7F89480912D0190912E01A0912F01D9
:1005B000B091300126B5A89B05C02F3F19F00196D8
:1005C000A11DB11D3FBFBA2FA92F982F8827820FD9
:1005D000911DA11DB11DBC01CD0142E0660F771F29
:1005E000881F991F4A95D1F708958F929F92AF92D5
:1005F000BF92CF92DF92EF92FF926B017C010E943B
:10060000D0024B015C01C114D104E104F104F1F00A
:100610000E94D002DC01CB0188199909AA09BB0903
:10062000883E9340A105B10570F321E0C21AD108BC
:10063000E108F10888EE880E83E0981EA11CB11C29
:10064000C114D104E104F10419F7DDCFFF90EF905C
:10065000DF90CF90BF90AF909F908F9008958F9232
:100660009F92AF92BF92CF92DF92EF92FF920F9341
:100670001F93CF93DF936C017B018A0180910B0163
:10068000882309F45CC080919701882309F457C03E
:100690008091880180FF05C08091E0008260809396
:1006A000E000E801B12C8AEFA82E93E0892E2AE31E
:1006B000922E209711F4BB20D9F10E9433018111B1
:1006C0000AC0AA94AA20D9F161E070E080E090E02D
:1006D0000E94F502EECF282F30E0C217D3070CF4AA
:1006E0008C2F9FB7F8948092E9002091E80025FFB5
:1006F0001DC0282F30E0C21BD30BF701815020F022
:1007000041914093F100FACFE20EF31EBB2019F0A5
:100710009092E8000AC08091E80085FD07C09092A1
:10072000E800BB24B394209709F0B12C9FBFC1CF40
:100730005D9884E6809389011016110644F081E0EB
:1007400090E0F6019383828380E090E001C0C801CD
:10075000DF91CF911F910F91FF90EF90DF90CF909D
:10076000BF90AF909F908F9008950E940D081F92A8
:100770000F920FB60F9211248F939F938091E100F7
:100780009091E100937F9093E10083FF0FC010925E
:10079000E90091E09093EB001092EC0092E39093CB
:1007A000ED001092970198E09093F00082FF20C036
:1007B00093E09093E9009091F200992319F09AE365
:1007C0009093E80090918901992339F090918901E3
:1007D000915090938901992389F1909196019923E1
:1007E00039F090919601915090939601992341F19F
:1007F00084FF10C08091E2008E7E81608093E200D1
:100800008091E1008F7E8093E100809188018E7E4F
:10081000806111C080FF16C08091E2008E7E8061F1
:100820008093E2008091E1008E7E8093E1008091D0
:1008300088018E7E81608093880104C05D9ACDCF4F
:10084000289AD6CF9F918F910F900FBE0F901F9037
:1008500018951F920F920FB60F921124CF92DF922C
:10086000EF92FF920F931F932F933F934F935F93BA
:100870006F937F938F939F93AF93BF93EF93FF9368
:10088000CF93DF93CDB7DEB76C97DEBFCDBF1092AD
:10089000E9008091E80083FFFBC168E0CE01459646
:1008A0000E94140282EF8093E8008D8987FF05C0C3
:1008B0009091E80090FFFCCF03C09EEF9093E8007A
:1008C000982F907609F0C6C09E894F89588D2F8940
:1008D000F88C91110CC0803829F4809187018093A5
:1008E000F10002C01092F1001092F10045C1913068
:1008F00051F4811141C14130510509F03DC1809150
:1009000087018D7F0BC0933061F4811135C1413077
:10091000510509F031C18091870182608093870180
:100920002BC1953049F48091E80080FFFCCF822FE5
:1009300080688093E30020C1963009F05EC00B8D83
:100940001C8D22E01092E900109285011092840122
:10095000F21232C010928301109282010E94E201D1
:1009600099E0BE016F5F7F4FDB01E92F1D92EA9591
:10097000E9F79983FA8291E09E8390EA98879AEF4B
:1009800099872091840130918501275F3F4F3C83F7
:100990002B838D831092E9001092850110928401BF
:1009A000109383010093820149E050E080E00E94AF
:1009B000BB010E94E201E0C0109383010093820119
:1009C0000E944401DC0112960D911C9113970115B0
:1009D000110509F4BBC0D801ED91FC910480F581AB
:1009E000E02DBE016B5E7F4FC8010995009709F0AD
:1009F000C7C0F80100851185EACF973009F445C1D9
:100A0000983021F481E08093F100B6C0993009F06C
:100A1000B3C0837009F039C1EFE1F1E081E031E06A
:100A200096E32081211109C08EE78093EA0010929D
:100A3000EA008F89809397019FC08093E9003093EB
:100A4000EB0021912093EC009093ED008F5F8730B5
:100A500041F7EACF8B8D9C8D1092E90010928501B1
:100A6000109284019093830180938201898D81117A
:100A700053C08E899D89913A49F4813209F005C1AC
:100A800047E050E064E071E080E0BBC0913209F0E3
:100A9000FCC0833269F48F89988DA0E0B0E0809328
:100AA000000190930101A0930201B093030164C07F
:100AB000803269F48091E80082FFFCCF67E084E037
:100AC00091E00E9414028BEF8093E80055C08232BF
:100AD00009F052C08F8980930B01EEEFFFE78591FB
:100AE00094918B3F9C4D19F0E0E0F8E002C0EEEFEE
:100AF000FAE08091040190910501A0910601B09166
:100B00000701803B9440A105B10509F09EC080918A
:100B10000B0180FF79C099C00E944401FC01028151
:100B200013810115110509F4B0C0D801ED91FC91B4
:100B30000190F081E02DBE016B5E7F4FC8010995E9
:100B400081111AC0F80100851185EBCFF1E0FF1685
:100B500009F44EC0F3E0FF1298C08F89882309F48E
:100B60004AC0823089F440E86BE087EA91E00E9455
:100B70008601882309F489C08EEF8093E80088C03D
:100B800018161906CCF381C0813029F440E86BE0D7
:100B90008BE991E0ECCF833009F077C00E944401EB
:100BA000DC011296ED90FC9013978E010F5F1F4FA2
:100BB0006801E114F10479F0D701ED91FC91068010
:100BC000F781E02DB801C7010995080F111DF70144
:100BD000E084F184EECFD8011C92F6010190002050
:100BE000E9F73197BF016C197D0940E0C601BFCF1D
:100BF00069E871E002C065E871E0FB01449150E0F2
:100C000080E80E94BB01B8CFEE3F2AE0F20751F026
:100C1000808191818737A7E79A0721F09093FF0A97
:100C20008093FE0A87E797E7918380838091600035
:100C3000809386019BE088E10FB6F894A895809395
:100C400060000FBE9093600097CF808191818737BD
:100C5000974709F091CFA8958091600088618093B3
:100C600060008091860180936000EE3FBAE0FB0750
:100C700039F08091FE0A9091FF0A918380837CCFA6
:100C80001092FF0A1092FE0A77CF81E28093EB0068
:100C90006C960FB6F894DEBF0FBECDBFDF91CF913B
:100CA000FF91EF91BF91AF919F918F917F916F9144
:100CB0005F914F913F912F911F910F91FF90EF9076
:100CC000DF90CF900F900FBE0F901F9018951F923E
:100CD0000F920FB60F9211242F933F938F939F93F0
:100CE000AF93BF938091290190912A01A0912B018C
:100CF000B0912C013091280123E0230F2D3720F4EF
:100D00000196A11DB11D05C026E8230F0296A11D65
:100D1000B11D209328018093290190932A01A0936B
:100D20002B01B0932C0180912D0190912E01A09167
:100D30002F01B09130010196A11DB11D80932D01AD
:100D400090932E01A0932F01B0933001BF91AF91EA
:100D50009F918F913F912F910F900FBE0F901F90F9
:100D60001895789484B5826084BD84B5816084BD13
:100D700085B5826085BD85B5816085BD80916E0039
:100D8000816080936E00109281008091810082606A
:100D900080938100809181008160809381008091A7
:100DA00080008160809380008091910082608093B8
:100DB00091008091910081608093910080919000DA
:100DC0008160809390008091C10084608093C10015
:100DD0008091C10082608093C1008091C1008160D8
:100DE0008093C1008091C30081608093C300809193
:100DF000C00082608093C0008091C20081608093B7
:100E0000C20080917A00846080937A0080917A0099
:100E1000826080937A0080917A00816080937A006A
:100E200080917A00806880937A00109297011092E6
:100E30008701109288018091D70081608093D7004C
:100E400080EA8093D80089B5806189BD89B58260C8
:100E500089BD09B400FEFDCF61E070E080E090E064
:100E60000E94F5028091D8008F7C80618093D80029
:100E70008091E000807F8093E0008091E1008E7E91
:100E80008093E1008DE08093E200559A209AC2E1C0
:100E9000D1E0FE01249103EF10E0F8018491882352
:100EA00099F090E0880F991FFC01E653FF4FA59140
:100EB000B491FC01E852FF4F859194919FB7F8944B
:100EC0008C91822B8C939FBF8FEF9FEF90933E016D
:100ED00080933D0191E3C92E91E0D92E25E2E22EC7
:100EE00021E0F22E9924939430E0A32E30E0B32E2B
:100EF000F6014491FE019491F8018491882309F44C
:100F000053C0209181014423E1F150E0FA0131976F
:100F1000EF30F105B0F5EA5AFF4F0C940708309115
:100F200080003F7707C0309180003F7D03C0309143
:100F30008000377F3093800024C034B53F7702C0F3
:100F400034B53F7D34BD1DC0309190003F7707C060
:100F5000309190003F7D03C030919000377F3093F7
:100F600090000FC03091C0003F7703C03091C000A7
:100F70003F7D3093C00005C03091C200377F309371
:100F8000C200E82FF0E0EE0FFF1FE852FF4FA591DF
:100F9000B4913FB7F8948C91211103C09095982398
:100FA00001C0982B9C933FBF809181011F928F932A
:100FB000FF92EF920E94120880918101892580930F
:100FC000810168EE73E080E090E00E94F5020F90EE
:100FD0000F900F900F90A114B10409F489CF0E94D3
:100FE000000086CFE1E3F1E01382128288EE93E005
:100FF000A0E0B0E084839583A683B78380E191E08D
:10100000918380838FEF9FEF958784870895EE0FFC
:10101000FF1F0590F491E02D099481E090E0F89491
:101020000C94F00AA0E0B0E0E8E1F8E00C94C90A02
:10103000AE014B5F5F4FFA0161917191AF018091F9
:101040009A0190919B010E942808E2E00C94E50A25
:10105000ABE0B0E0EEE2F8E00C94B90A6C017B0181
:101060008A01FC0117821682838181FFCCC1CE01E7
:1010700001963C01F6019381F70193FD859193FF61
:1010800081917F01882309F4BAC1853239F493FD37
:10109000859193FF81917F01853229F4B60190E01B
:1010A0000E941F0AE7CF912C212C312CFFE1F31570
:1010B000D8F08B3279F038F4803279F08332A1F4B1
:1010C000232D20611DC08D3261F0803369F4232D02
:1010D000216016C0832D8260382EE32DE4603E2E01
:1010E0002AC0F32DF8601DC037FC2DC020ED280F5D
:1010F0002A3040F08E32B9F436FC81C1232D2064B1
:10110000322E19C036FE06C08AE0989E200D1124AA
:10111000922E11C0EAE02E9E200D1124222EF32DD6
:10112000F0623F2E08C08C3621F4832D8068382E63
:1011300002C0883641F4F70193FD859193FF8191B8
:101140007F018111B3CF982F9F7D9554933028F460
:101150000C5F1F4F9FE399830DC0833631F08337B7
:1011600071F0833509F059C021C0F801808189836D
:101170000E5F1F4F88248394912C530113C02801C4
:10118000F2E04F0E511CF801A080B18036FE03C082
:10119000692D70E002C06FEF7FEFC5010E94140A55
:1011A0004C018201F32DFF773F2E16C0280122E06B
:1011B000420E511CF801A080B18036FE03C0692D9B
:1011C00070E002C06FEF7FEFC5010E94090A4C0179
:1011D000F32DF0683F2E820133FC1BC0822D90E07E
:1011E00088169906B0F4B60180E290E00E941F0ACA
:1011F0002A94F4CFF50137FC859137FE81915F0188
:10120000B60190E00E941F0A21102A9421E0821A60
:1012100091088114910471F7E8C0843611F0893681
:1012200041F5F80137FE07C06081718182819381A9
:101230000C5F1F4F08C060817181072E000C880B66
:10124000990B0E5F1F4FF32DFF763F2E97FF09C0BE
:1012500090958095709561957F4F8F4F9F4FF06867
:101260003F2E2AE030E0A3010E945B0A882E8618F8
:1012700045C0853731F4232D2F7EB22E2AE030E091
:1012800025C0932D997FB92E8F36C1F018F488357B
:1012900079F0B5C0803719F0883721F0B0C0E92F58
:1012A000E061BE2EB4FE0DC0FB2DF460BF2E09C060
:1012B00034FE0AC0292F2660B22E06C028E030E096
:1012C00005C020E130E002C020E132E0F801B7FEC5
:1012D00007C060817181828193810C5F1F4F06C0BE
:1012E0006081718180E090E00E5F1F4FA3010E943A
:1012F0005B0A882E8618FB2DFF773F2E36FE0DC029
:10130000232D2E7FA22E891458F434FE0BC032FCFC
:1013100009C0832D8E7EA82E05C0B82CA32C03C037
:10132000B82C01C0B92CA4FE0FC0FE01E80DF11DC0
:101330008081803321F49A2D997EA92E09C0A2FEC6
:1013400006C0B394B39404C08A2D867809F0B39490
:10135000A3FC11C0A0FE06C0B21488F4280C922C85
:101360009B180EC0B21460F4B60180E290E00E94B7
:101370001F0AB394F7CFB21418F42B1802C0982C9C
:10138000212CA4FE10C0B60180E390E00E941F0A49
:10139000A2FE17C0A1FC03C088E790E002C088E568
:1013A00090E0B6010CC08A2D867859F0A1FE02C0EB
:1013B0008BE201C080E2A7FC8DE2B60190E00E94C2
:1013C0001F0A891438F4B60180E390E00E941F0AD6
:1013D0009A94F7CF8A94F301E80DF11D8081B6014C
:1013E00090E00E941F0A8110F5CF222009F442CE1E
:1013F000B60180E290E00E941F0A2A94F6CFF6011F
:101400008681978102C08FEF9FEF2B96E2E10C94CB
:10141000D50AFC010590615070400110D8F7809505
:1014200090958E0F9F1F0895FC01615070400190B0
:101430000110D8F7809590958E0F9F1F08950F93F8
:101440001F93CF93DF93FB01238121FD03C08FEF17
:101450009FEF2CC022FF16C0468157812481358121
:101460004217530744F4A081B1819D012F5F3F4F84
:10147000318320838C93268137812F5F3F4F3783C1
:10148000268314C08B01EC01FB010084F185E02D63
:101490000995892BE1F6D80116968D919C911797A5
:1014A000019617969C938E931697CE01DF91CF915C
:1014B0001F910F910895FA01AA27283051F1203188
:1014C00081F1E8946F936E7F6E5F7F4F8F4F9F4FD8
:1014D000AF4FB1E03ED0B4E03CD0670F781F891F1A
:1014E0009A1FA11D680F791F8A1F911DA11D6A0FE8
:1014F000711D811D911DA11D20D009F468943F919B
:101500002AE0269F11243019305D3193DEF6CF0199
:101510000895462F4770405D4193B3E00FD0C9F75F
:10152000F6CF462F4F70405D4A3318F0495D31FDCC
:101530004052419302D0A9F7EACFB4E0A69597951F
:10154000879577956795BA95C9F7009761057105F5
:1015500008959B01AC010A2E06945795479537953F
:101560002795BA95C9F7620F731F841F951FA01D99
:1015700008952F923F924F925F926F927F928F9237
:101580009F92AF92BF92CF92DF92EF92FF920F9312
:101590001F93CF93DF93CDB7DEB7CA1BDB0B0FB61C
:1015A000F894DEBF0FBECDBF09942A8839884888D9
:1015B0005F846E847D848C849B84AA84B984C8846F
:1015C000DF80EE80FD800C811B81AA81B981CE0F66
:1015D000D11D0FB6F894DEBF0FBECDBFED0108954B
:0415E000F894FFCFAD
:1015E400FFFFFFFF00E1000000000000000000001A
:1015F4004B022F036C026102B20270028E0200C120
:08160400808100000025640054
:00000001FF
