:100000000C9462000C948A000C948A000C948A0070
:100010000C948A000C948A000C948A000C948A0038
:100020000C948A000C948A000C948A000C948A0028
:100030000C948A000C948A000C948A000C948A0018
:100040000C94C0020C948A000C948E020C946802EA
:100050000C948A000C948A000C948A000C948A00F8
:100060000C948A000C948A000000000025002800EF
:100070002B0000000000240027002A0000000000E0
:1000800023002600290004040404040404040202DA
:100090000202020203030303030301020408102007
:1000A0004080010204081020010204081020000012
:1000B0000008000201000003040700000000000027
:1000C0000000340411241FBECFEFD8E0DEBFCDBF47
:1000D00011E0A0E0B1E0E0E2F9E002C005900D928D
:1000E000AE31B107D9F721E0AEE1B1E001C01D9218
:1000F000A43CB207E1F710E0C2E6D0E004C02197CB
:10010000FE010E948304C136D107C9F70E940A0389
:100110000C948E040C940000CF92DF92EF92FF9229
:100120000F931F93CF93DF936C017A018B01C0E093
:10013000D0E0CE15DF0581F0D8016D918D01D6019B
:10014000ED91FC910190F081E02DC6010995892B7C
:1001500011F02196EECF7E01C701DF91CF911F9163
:100160000F91FF90EF90DF90CF900895089580E079
:1001700090E00895FC01538D448D252F30E0842FAD
:1001800090E0821B930B541710F0CF9608950197BF
:100190000895FC01918D828D981761F0828DDF01A9
:1001A000A80FB11D5D968C91928D9F5F9F73928F6A
:1001B00090E008958FEF9FEF0895FC01918D828D5F
:1001C000981731F0828DE80FF11D858D90E008952C
:1001D0008FEF9FEF0895FC01918D228D892F90E084
:1001E000805C9F4F821B91098F739927089587E246
:1001F00091E00E94EB0021E0892B09F420E0822F9E
:100200000895FC01848DDF01A80FB11DA35ABF4FD3
:100210002C91848D90E001968F739927848FA68905
:10022000B7892C93A089B1898C91837080648C9359
:10023000938D848D981306C00288F389E02D808108
:100240008F7D80830895EF92FF920F931F93CF933A
:10025000DF93EC0181E0888F9B8D8C8D981305C016
:10026000E889F989808185FD26C0F62E0B8D10E086
:100270000F5F1F4F0F731127E02E8C8DE8120CC0FB
:100280000FB607FCFACFE889F989808185FFF5CFA1
:10029000CE010E940101F1CF8B8DFE01E80FF11D0F
:1002A000E35AFF4FF0829FB7F8940B8FEA89FB89DE
:1002B000808180620AC09FB7F894EE89FF896083CD
:1002C000E889F98980818370806480839FBF81E0A1
:1002D00090E0DF91CF911F910F91FF90EF900895E3
:1002E000CF93DF93EC01888D8823C9F0EA89FB89DD
:1002F000808185FD05C0A889B9898C9186FD0FC0D4
:100300000FB607FCF5CF808185FFF2CFA889B989A8
:100310008C9185FFEDCFCE010E940101E7CFDF91E7
:10032000CF91089580E090E0892B29F00E94F7009A
:1003300081110C94000008958E3008F08E50877063
:10034000806480937C0080917A00806480937A003E
:1003500080917A0086FDFCCF809178002091790011
:1003600090E0922B08953FB7F894809123019091EB
:100370002401A0912501B091260126B5A89B05C0B6
:100380002F3F19F00196A11DB11D3FBFBA2FA92F14
:10039000982F8827820F911DA11DB11DBC01CD0191
:1003A00042E0660F771F881F991F4A95D1F708957D
:1003B000009769F0FC0101900020E9F73197AF0147
:1003C000481B590BBC0187E291E00C948C0080E043
:1003D00090E008958F929F92AF92BF92CF92DF925A
:1003E000EF92FF920F931F93CF93DF93CDB7DEB7BA
:1003F000A1970FB6F894DEBF0FBECDBF6C01990F69
:10040000EE08FF08F7FE2BC06DE287E291E00E9444
:1004100023018C0122273327A9012C193D094E09FC
:100420005F0919A2CE0181967C019AE0892E912C58
:10043000A12CB12CCA01B901A50194010E9461044B
:10044000605DF70162937F0121153105410551057A
:1004500089F7CF010E94D801080F191F1EC0A701FC
:10046000960119A28E010F5D1F4F8AE0C82ED12C74
:10047000E12CF12CCA01B901A70196010E94610487
:10048000605DF80162938F01211531054105510529
:1004900089F7CF010E94D8018C0182E191E00E948E
:1004A000D801800F911FA1960FB6F894DEBF0FBE42
:1004B000CDBFDF91CF911F910F91FF90EF90DF9013
:1004C000CF90BF90AF909F908F9008950E94890425
:1004D0001F920F920FB60F9211242F933F934F93B9
:1004E0005F936F937F938F939F93AF93BF93EF939C
:1004F000FF9387E291E00E940101FF91EF91BF918C
:10050000AF919F918F917F916F915F914F913F91AB
:100510002F910F900FBE0F901F9018951F920F9262
:100520000FB60F9211242F938F939F93EF93FF9306
:10053000E0913701F09138018081E0913D01F09127
:100540003E0182FD12C09081809140018F5F8F73C8
:1005500020914101821751F0E0914001F0E0E95D06
:10056000FE4F958F8093400101C08081FF91EF91F4
:100570009F918F912F910F900FBE0F901F90189504
:100580001F920F920FB60F9211242F933F938F93C8
:100590009F93AF93BF9380911F0190912001A091F1
:1005A0002101B091220130911E0123E0230F2D374C
:1005B00020F40196A11DB11D05C026E8230F029667
:1005C000A11DB11D20931E0180931F019093200156
:1005D000A0932101B09322018091230190912401E5
:1005E000A0912501B09126010196A11DB11D809316
:1005F000230190932401A0932501B0932601BF917C
:10060000AF919F918F913F912F910F900FBE0F90BF
:100610001F901895789484B5826084BD84B58160FC
:1006200084BD85B5826085BD85B5816085BD8091BD
:100630006E00816080936E00109281008091810035
:10064000826080938100809181008160809381002D
:10065000809180008160809380008091B1008460EF
:100660008093B1008091B00081608093B000809150
:100670007A00846080937A0080917A00826080930F
:100680007A0080917A00816080937A0080917A006C
:10069000806880937A001092C100E0913701F09158
:1006A000380182E08083E0913301F09134011082BF
:1006B000E0913501F09136018FEC808310923F017B
:1006C000E0913B01F0913C0186E08083E0913901AB
:1006D000F0913A01808180618083E0913901F0914D
:1006E0003A01808188608083E0913901F0913A017C
:1006F000808180688083E0913901F0913A018081A6
:100700008F7D8083C1EAD0E0FE0144910DE810E0C6
:10071000F80184918823C9F090E0880F991FFC01AB
:10072000EE58FF4F25913491FC01E859FF4FA591F8
:10073000B4915FB7F894F9019081842F8095982344
:1007400090838C91842B8C935FBF25EBE22E20E06D
:10075000F22E85E191E00E94D8018EE00E949C017A
:100760000E94EA0188E191E00E94D8018FE00E9496
:100770009C010E94EA018BE191E00E94D801F701FF
:100780008491FE012491F8013491332309F43CC093
:10079000882349F18330A1F038F48130B9F08230F8
:1007A00011F594B59F7D14C08730A1F08830B1F069
:1007B0008430C9F4909180009F7D9093800013C095
:1007C000809180008F77809380000DC094B59F77D3
:1007D00094BD09C09091B0009F7703C09091B00084
:1007E0009F7D9093B000E32FF0E0EE0FFF1FE458E1
:1007F000FF4FA591B4918C91822331E020E009F460
:1008000030E0832F922F02C080E090E0F1E08F274C
:100810000E94EA010E94B3014B015C0184EF482E63
:1008200055245394612C712C0E94B301DC01CB013F
:1008300088199909AA09BB09883E9340A105B10509
:1008400098F321E0421A51086108710888EE880E79
:1008500083E0981EA11CB11C411451046104710471
:1008600019F70E94920175CFE7E2F1E0138212823C
:1008700088EE93E0A0E0B0E084839583A683B783FD
:1008800084E091E09183808385EC90E09587848774
:1008900084EC90E09787868780EC90E0918B808B4A
:1008A00081EC90E0938B828B82EC90E0958B848B33
:1008B00086EC90E0978B868B118E128E138E148EA1
:1008C0000895A1E21A2EAA1BBB1BFD010DC0AA1F91
:1008D000BB1FEE1FFF1FA217B307E407F50720F0A9
:1008E000A21BB30BE40BF50B661F771F881F991F24
:1008F0001A9469F760957095809590959B01AC016D
:10090000BD01CF010895EE0FFF1F0590F491E02D7A
:10091000099481E090E0F8940C948E04F894FFCF51
:100920000000000023018C00BA007001EB00C90038
:0E093000DD000D0A005820005920005A20005A
:107E0000112484B714BE81FFF0D085E080938100F7
:107E100082E08093C00088E18093C10086E0809377
:107E2000C20080E18093C4008EE0C9D0259A86E02C
:107E300020E33CEF91E0309385002093840096BBD3
:107E4000B09BFECF1D9AA8958150A9F7CC24DD24C4
:107E500088248394B5E0AB2EA1E19A2EF3E0BF2EE7
:107E6000A2D0813461F49FD0082FAFD0023811F036
:107E7000013811F484E001C083E08DD089C08234E0
:107E800011F484E103C0853419F485E0A6D080C0E4
:107E9000853579F488D0E82EFF2485D0082F10E0AE
:107EA000102F00270E291F29000F111F8ED06801E7
:107EB0006FC0863521F484E090D080E0DECF843638
:107EC00009F040C070D06FD0082F6DD080E0C81688
:107ED00080E7D80618F4F601B7BEE895C0E0D1E017
:107EE00062D089930C17E1F7F0E0CF16F0E7DF06D8
:107EF00018F0F601B7BEE89568D007B600FCFDCFD4
:107F0000A601A0E0B1E02C9130E011968C91119780
:107F100090E0982F8827822B932B1296FA010C0160
:107F200087BEE89511244E5F5F4FF1E0A038BF0790
:107F300051F7F601A7BEE89507B600FCFDCF97BE46
:107F4000E89526C08437B1F42ED02DD0F82E2BD052
:107F50003CD0F601EF2C8F010F5F1F4F84911BD097
:107F6000EA94F801C1F70894C11CD11CFA94CF0C13
:107F7000D11C0EC0853739F428D08EE10CD085E9AC
:107F80000AD08FE07ACF813511F488E018D01DD067
:107F900080E101D065CF982F8091C00085FFFCCF94
:107FA0009093C60008958091C00087FFFCCF809118
:107FB000C00084FD01C0A8958091C6000895E0E648
:107FC000F0E098E1908380830895EDDF803219F02E
:107FD00088E0F5DFFFCF84E1DECF1F93182FE3DFCA
:107FE0001150E9F7F2DF1F91089580E0E8DFEE27F6
:047FF000FF270994CA
:027FFE00040479
:0400000300007E007B
:00000001FF