:100000000C9465000C948D000C948D000C948D0064
:100010000C948D000C948D000C948D000C948D002C
:100020000C948D000C948D000C948D000C948D001C
:100030000C948D000C948D000C948D000C948D000C
:100040000C9462020C948D000C94E90C0C94C30C7B
:100050000C948D000C948D000C948D000C948D00EC
:100060000C948D000C948D007C3C3E5E2B3D3F2F0C
:100070005B5D3B2C2A225C000000000800020100AE
:100080000003040700000000000000000000000062
:10009000250028002B0000000000240027002A0073
:1000A000040404040404040402020202020203031E
:1000B0000303030301020408102040800102040826
:1000C0001020010204081020B21311241FBECFEF2C
:1000D000D8E0DEBFCDBF11E0A0E0B1E0EAEDFAE28A
:1000E00002C005900D92A63DB107D9F724E0A6ED18
:1000F000B1E001C01D92A03FB207E1F710E0C5E6F4
:10010000D0E004C02197FE010E941414C436D10728
:10011000C9F70E9407110C946B150C940000FC01A8
:10012000538D448D252F30E0842F90E0821B930B5C
:10013000541710F0CF96089501970895FC01918D02
:10014000828D981761F0828DDF01A80FB11D5D9639
:100150008C91928D9F5F9F73928F90E008958FEFA7
:100160009FEF0895FC01918D828D981731F0828D5B
:10017000E80FF11D858D90E008958FEF9FEF0895B2
:10018000FC01918D228D892F90E0805C9F4F821B16
:1001900091098F739927089580E090E0892B29F0C9
:1001A0000E94B90C81110C9400000895DC0159964D
:1001B000ED91FC915A973097B9F083899489A5897C
:1001C000B6894285538564857585841B950BA60B7E
:1001D000B70B811520E89207A105B10538F08FEF24
:1001E0009FE7A0E0B0E0089580E090E00895CF930D
:1001F000DF931F92CDB7DEB76983DC01ED91FC91EF
:100200000280F381E02D41E050E0BE016F5F7F4F3F
:1002100009950F90DF91CF910895089580E090E0C7
:1002200008950E944A151F93CF93DF93EC0180E25B
:10023000689FF0011124E751FE4F9385917129F0D9
:10024000842F827411F080E04FC0142F6A8B80914C
:10025000000190910101A0910201B09103018E87EC
:100260009F87A88BB98B4489558960E070E0BA01FB
:1002700055274427828D938DA0E0B0E0482B592B61
:100280006A2B7B2B4F8B588F698F7A8F8385887170
:1002900051F4848D958DA68DB78D8B8B9C8BAD8BFA
:1002A000BE8B81E00CC0803171F69E012D5E3F4F08
:1002B0008B8D9C8D0E94560E882329F284E08D83BD
:1002C000812F8F708C831E821F82188619861A8652
:1002D0001B861C861D8616FF06C0CE01DF91CF91BE
:1002E0001F910C94C90D81E0DF91CF911F9108956A
:1002F000FC01848DDF01A80FB11DA35ABF4F2C91C3
:10030000848D90E001968F739927848FA689B78991
:100310002C93A089B1898C91837080648C93938D88
:10032000848D981306C00288F389E02D80818F7D2B
:1003300080830895EF92FF920F931F93CF93DF93E3
:10034000EC0181E0888F9B8D8C8D981305C0E88926
:10035000F989808185FD26C0F62E0B8D10E00F5F98
:100360001F4F0F731127E02E8C8DE8120CC00FB6B3
:1003700007FCFACFE889F989808185FFF5CFCE01A6
:100380000E947801F1CF8B8DFE01E80FF11DE35A39
:10039000FF4FF0829FB7F8940B8FEA89FB89808129
:1003A00080620AC09FB7F894EE89FF896083E8896C
:1003B000F98980818370806480839FBF81E090E0B1
:1003C000DF91CF911F910F91FF90EF900895CF9300
:1003D000DF93EC01888D8823C9F0EA89FB8980814D
:1003E00085FD05C0A889B9898C9186FD0FC00FB61F
:1003F00007FCF5CF808185FFF2CFA889B9898C9160
:1004000085FFEDCFCE010E947801E7CFDF91CF913C
:10041000089590E0FC01E858FF4F2491FC01EC5452
:10042000FF4F3491FC01E056FF4FE491EE2309F4B5
:100430003CC0222339F1233091F038F42130A9F067
:10044000223001F584B58F7D12C0273091F028301D
:10045000A1F02430B9F4809180008F7D03C0809199
:1004600080008F77809380000DC084B58F7784BD26
:1004700009C08091B0008F7703C08091B0008F7D5C
:100480008093B000F0E0EE0FFF1FE457FF4FA591FF
:10049000B4919FB7F894611104C08C9130953823C2
:1004A00002C0EC913E2B3C939FBF08952FB7F89468
:1004B0006091E2017091E3018091E4019091E50186
:1004C0002FBF08951F920F920FB60F9211242F93F2
:1004D0003F938F939F93AF93BF938091E20190914D
:1004E000E301A091E401B091E5013091E10123E045
:1004F000230F2D3720F40196A11DB11D05C026E85C
:10050000230F0296A11DB11D2093E1018093E2010A
:100510009093E301A093E401B093E5018091DD01A4
:100520009091DE01A091DF01B091E0010196A11D43
:10053000B11D8093DD019093DE01A093DF01B093A4
:10054000E001BF91AF919F918F913F912F910F90BB
:100550000FBE0F901F9018958FB7F8948091D70118
:100560008FBF089561E0FC0184810E94090280919F
:10057000D60181111092D60108958EBD00000DB4F0
:1005800007FEFDCF8EB508958FEF0C94BD020F933B
:100590001F93CF93DF93EB010E9456028B010E94C1
:1005A000C4028F3F49F00E945602601B710B6C170A
:1005B0007D07A8F380E001C081E0DF91CF911F911A
:1005C0000F910895CF93DF93EC018E81882389F0FA
:1005D0008F8198859C012F5F3F4F38872F83823012
:1005E000924018F40E94C402F3CFCE010E94B202DE
:1005F0001E82DF91CF9108958CBD9DBD0895CF934C
:10060000DF93EC018091D601811109C081E08093D4
:10061000D60180918604909187040E94FC0260E0DC
:100620008C81DF91CF910C9409028F929F92AF92AF
:10063000BF92FF920F931F93CF93DF93EC01F62E9F
:1006400049015A010E94E202CE010E94FF026CE2BF
:1006500071E0CE010E94C7028F2D80640E94BD020E
:1006600008E110E0D501C401002E04C0B695A7959D
:10067000979587950A94D2F70E94BD0208501109F8
:10068000083F8FEF180771F7FF2029F088E0F81274
:1006900004C087E803C085E901C08FEF0E94BD0256
:1006A00010E00E94C4028A8787FF04C01F3F11F038
:1006B0001F5FF7CFDF91CF911F910F91FF90BF90F8
:1006C000AF909F908F900895AF92BF92CF92DF929C
:1006D000EF92FF920F931F93CF93DF93EC01690189
:1006E000C801820F931F8130924008F070C08E8144
:1006F000882371F088819981AA81BB81841795072D
:10070000A607B70729F48F819885C816D906B0F5D2
:10071000488359836A837B838B85833039F089E0F2
:10072000440F551F661F771F8A95D1F79A01AB01B9
:1007300061E1CE010E941503882319F083E08D83C7
:1007400046C00E9456025B010E94C4028A878F3F06
:1007500049F40E9456026A197B096D327140A0F378
:100760008FE003C08E3F31F08DE08D83CE010E947B
:10077000B2022DC018861F8281E08E838F819885FA
:100780008C159D0540F40E94C4028F8198850196C6
:1007900098878F83F3CF6701E00EF11EEC14FD0400
:1007A00031F00E94C402F60181936F01F7CF8F816F
:1007B0009885080F191F18870F838985882319F0DA
:1007C0000115124048F0CE010E94E20205C0CE01A0
:1007D0000E94B20280E001C081E0DF91CF911F91C1
:1007E0000F91FF90EF90DF90CF90BF90AF90089562
:1007F000EF92FF920F931F93CF93DF93EC01790158
:10080000411551056105710511F482E13CC08B85EC
:10081000833039F089E0440F551F661F771F8A9592
:10082000D1F79A01AB0168E1CE010E94150388233C
:1008300011F084E028C08EEF0E94BD0287018EEF88
:10084000F81AF80181918F010E94BD02E016F106AD
:10085000C1F78FEF0E94BD028FEF0E94BD020E9480
:10086000C4028A878F71853031F081E18D83CE019A
:100870000E94B20209C068E572E0CE010E94C70280
:10088000811107C085E18D83CE010E94B20280E014
:1008900014C020E030E0A9016DE0CE010E941503F4
:1008A000811109C00E94C402811105C0CE010E94BD
:1008B000B20281E002C084E1E6CFDF91CF911F91C7
:1008C0000F91FF90EF9008958091D8018823A9F1AE
:1008D000409100015091010160910201709103016A
:1008E00029EE31E08091E7019091E8010E94F80340
:1008F000811102C080E008954091D9015091DA0140
:100900006091DB017091DC014115510561057105B4
:1009100091F029EE31E08091E7019091E8010E9489
:10092000F803882339F31092D9011092DA0110925A
:10093000DB011092DC011092D80181E008958F92C2
:100940009F92AF92BF92EF92FF920F931F93CF931C
:100950004B015C01C42F8091000190910101A09195
:100960000201B091030188159905AA05BB0501F1A3
:100970000E946404811102C080E020C089EEE82E4C
:1009800081E0F82E00E012E020E030E0B501A401A3
:100990008091E7019091E8010E946403882361F34C
:1009A0008092000190920101A0920201B092030195
:1009B0008091D801C82BC093D80181E0CF911F91BD
:1009C0000F91FF90EF90BF90AF909F908F90089500
:1009D0004F925F926F927F928F929F92AF92BF924F
:1009E000CF92DF92EF92FF920F931F93CF93DF93FB
:1009F000EC01423051056105710510F480E078C0CA
:100A000089859A85AB85BC850196A11DB11D84178A
:100A10009507A607B70790F3CB88DC88ED88FE889A
:100A20008F89803129F4BB27A72F962F852F09C0E6
:100A3000DB01CA01E7E0B695A79597958795EA95FA
:100A4000D1F7480159012A013B01C80ED91EEA1EFF
:100A5000FB1E8091000190910101A0910201B091D3
:100A60000301C816D906EA06FB0681F48F89803196
:100A7000A9F4B301A201552766277727440F551F14
:100A8000FA01E751FE4F9182808219C040E0C70110
:100A9000B6010E949F048111E9CFB0CFB301A2013A
:100AA0004F77552766277727440F551F440F551F4B
:100AB000FA01E751FE4F80829182A282B382809137
:100AC000D80181608093D8018A89823080F08D813D
:100AD0009E81AF81B885C80ED91EEA1EFB1EC0924A
:100AE000D901D092DA01E092DB01F092DC0181E0E1
:100AF000DF91CF911F910F91FF90EF90DF90CF90FA
:100B0000BF90AF909F908F907F906F905F904F902D
:100B100008958F929F92AF92BF92CF92DF92EF9201
:100B2000FF920F931F93CF93DF93FC0181859285F2
:100B3000A385B4850196A11DB11D84179507A6074D
:100B4000B70710F480E05BC083889488A588B688D6
:100B50008789803129F4BB27A72F962F852F09C0BD
:100B6000DB01CA01C7E0B695A79597958795CA9509
:100B7000D1F7E9016A017B018F01BC01CD01680D4C
:100B8000791D8A1D9B1D8090000190900101A0900D
:100B90000201B0900301681579058A059B0591F45F
:100BA000F80187898031A1F4DD24EE24FF24C601F9
:100BB000880F991FFC01E751FE4F80819181A0E0D1
:100BC000B0E018C040E00E949F048111E9CFBACF85
:100BD000E894C7F8DD24EE24FF24C601880F991F8E
:100BE000880F991FFC01E751FE4F80819181A281FE
:100BF000B381BF7088839983AA83BB8381E0DF912F
:100C0000CF911F910F91FF90EF90DF90CF90BF9009
:100C1000AF909F908F9008958F929F92AF92BF92C6
:100C2000CF92DF92EF92FF920F931F93CF93DF93B8
:100C3000EC018D81811102C080E078C00B891C8994
:100C40002D893E890417150726073707A8F36A017F
:100C50007B01823029F4CA86DB86EC86FD860DC0D6
:100C6000C114D104E104F10451F41E821F821886DC
:100C700019861A861B861C861D8681E057C08A84C9
:100C80009B84AC84BD84EB8DFC8D258530E0275F93
:100C90003F4FB501A4014150510961097109022E6C
:100CA00004C076956795579547950A94D2F7D70172
:100CB000C6010197A109B10904C0B695A7959795FA
:100CC00087952A95D2F784179507A607B70720F0CE
:100CD00089288A288B2871F44F89588D698D7A8DDF
:100CE0004E835F83688779874C015D018E010A5FBF
:100CF0001F4F16C0841B950BA60BB70BF5CF4E816B
:100D00005F816885798598018B8D9C8D0E9489050E
:100D100091E0891A9108A108B108882309F48CCFC1
:100D200081149104A104B10451F795CFDF91CF91C3
:100D30001F910F91FF90EF90DF90CF90BF90AF90F9
:100D40009F908F9008953F924F925F926F927F9203
:100D50008F929F92AF92BF92CF92DF92EF92FF92CB
:100D60000F931F93CF93DF93CDB7DEB72C970FB6BA
:100D7000F894DEBF0FBECDBF5C01DC015B968D90A9
:100D80009C905C971696CD90DD90ED90FC90199715
:100D9000C114D104E104F10439F0BFEFCB1ADB0A2E
:100DA000EB0AFB0A312C07C0F401C080D180E2803D
:100DB000F38033243394F40181859285A385B4852F
:100DC0009C01AD012F5F3F4F4F4F5F4F29873A87FF
:100DD0004B875C87260137011D821E821F82188681
:100DE000F40181859285A385B4852D813E814F8153
:100DF0005885281739074A075B0708F063C08985BB
:100E00009A85AB85BC858C159D05AE05BF0550F454
:100E100082E0C82ED12CE12CF12C92E0492E512CED
:100E2000612C712C9E012F5F3F4FB701A601C401B9
:100E30000E948905882309F445C089819A81AB8184
:100E4000BC81892B8A2B8B2B41F0260137019FEF28
:100E5000491A590A690A790A05C0C414D504E60476
:100E6000F70491F02D813E814F8158852F5F3F4FD0
:100E70004F4F5F4F2D833E834F8358873FEFC31AF9
:100E8000D30AE30AF30AACCF0FEF1FEF2FEF3FE0D7
:100E9000B301A201C4010E94E804882399F0D5019E
:100EA00016964D915D916D917C9119974115510563
:100EB0006105710549F093018201C4010E94E804B3
:100EC000811102C080E02AC0D50116964D925D9234
:100ED0006D927C921997332051F0D301C201019693
:100EE000A11DB11DF40180839183A283B383F50119
:100EF0008789908DA18DB28D892B8A2B8B2B69F4DC
:100F0000D50157964D925D926D927C925A971496A8
:100F10008C911497806814968C9381E02C960FB670
:100F2000F894DEBF0FBECDBFDF91CF911F910F911F
:100F3000FF90EF90DF90CF90BF90AF909F908F90F9
:100F40007F906F905F904F903F9008954F925F9287
:100F50006F927F92AF92BF92CF92DF92EF92FF9209
:100F60000F931F93CF93DF931F92CDB7DEB7FC0192
:100F70002581222309F4C1C0848180FFBEC08389FA
:100F80009489A589B68942845384648475848415C0
:100F90009505A605B70509F4B0C06F015201F1E04F
:100FA000BF22D6015B968D919C915C97B301A20103
:100FB00039E076956795579547953A95D1F7223060
:100FC00071F4FC01828D938DA48DB58D8A019B01F6
:100FD000080F191F2A1F3B1FC901B8014AC0DC01B5
:100FE00014961C9111501423A114B104F9F4111199
:100FF0001DC045284628472851F4F6018789908D61
:10100000A18DB28D86839783A087B1870FC0D6014B
:1010100016964D915D916D917C91199796012A5F7D
:101020003F4F0E948905882309F467C0F601238D8C
:10103000348D86819781A085B1850297A109B10978
:10104000AC01BD01F901058404C0440F551F661FA2
:10105000771F0A94D2F786859785A089B189840F76
:10106000951FA61FB71FBC01CD01610F711D811D0A
:10107000911DD60114962C9126FF0DC040900001C1
:1010800050900101609002017090030146165706CE
:101090006806790699F440E00E949F04882369F16C
:1010A000F501E751FE4FDE0111969F012F5F3F4F83
:1010B0002E173F0799F081918D93FACFFE0131965B
:1010C0007F0101E010E09501AB01BC018091E701D7
:1010D0009091E8010E946403882379F0F6018285EB
:1010E0009385A485B5850196A11DB11D828793873F
:1010F000A487B587898190E002C08FEF9FEF0F90A2
:10110000DF91CF911F910F91FF90EF90DF90CF90E3
:10111000BF90AF907F906F905F904F900895FC01CB
:10112000818D928D009711F00C94A6078FEF9FEFA1
:1011300008950F931F93CF93DF93FC01818D928DC0
:101140000097B9F0EF010E94A6078C010F3F8FEFC7
:10115000180791F0898D9A8DFC014285538564852D
:10116000758541505109610971090E940C06C80139
:1011700005C080E090E002C08FEF9FEFDF91CF913C
:101180001F910F9108952F923F924F925F926F920D
:101190007F928F929F92AF92BF92CF92DF92EF9207
:1011A000FF920F931F93CF93DF93CDB7DEB72B97AB
:1011B0000FB6F894DEBF0FBECDBF7C01FE013196A5
:1011C000CE010C966F0130E231938E179F07E1F745
:1011D000DA0130E087E09D91992331F19E3231F4BC
:1011E0008A3009F45AC138E08AE0F5CFE8E6F0E049
:1011F0004491442321F031969413FACF4EC18317C2
:1012000008F44BC14FED490F4E3508F046C141E09F
:10121000430FF601E30FF11D3FE9390F3A3108F4AE
:1012200090529083342FD7CF8981803209F435C111
:10123000322E8B01DB015B968D919C915C97F701BF
:10124000948F838F16961D921D921D921C92199752
:10125000FB011286138614861586B12CF80182854F
:101260009385A485B58543895489658976898417D2
:101270009507A607B70708F05BC025E0B695A795C8
:10128000979587952A95D1F7F82FFF70AF2ED80143
:1012900015968C91823008F400C1C8010E94A607FF
:1012A00097FDFBC0F80182859385A485B5854F968F
:1012B000A11DB11D82879387A487B587F0E2AF9EF9
:1012C000B001112467517E4F6115710509F4E5C025
:1012D000DB018C91882319F0853EC1F4E0C0B11088
:1012E0000EC0F701A28A8091000190910101A091A6
:1012F0000201B091030186879787A08BB18BDB0138
:101300008C91882399F0BB24B394A8CF4BE050E094
:10131000C6010E944F15892B09F0A0CF832D807341
:10132000803309F4BAC0432D6A2DB3C0BB24B394F3
:10133000832D8271823109F0B0C0BB2039F0C70122
:101340000E94B00D009709F078C0A7C0F801858110
:10135000823009F4A2C0C8010E94A306882309F4C0
:101360009CC0D8015B96ED91FC915C9716968D9090
:101370009D90AD90BC901997B2E08B1A9108A1088E
:10138000B108058404C0880C991CAA1CBB1C0A94D3
:10139000D2F786859785A089B189880E991EAA1EE5
:1013A000BB1E2480E1E08E1A9108A108B10822201A
:1013B00009F124013501420C511C611C711C0E9471
:1013C0006404882309F469C0E9EEF1E0119223E096
:1013D000E93EF207D9F74092000150920101609274
:1013E0000201709203018091D80181608093D8013D
:1013F0002A94DDCFD8015B96ED91FC915C9780E05B
:1014000092E0A0E0B0E0058404C0880F991FAA1FF5
:10141000BB1F0A94D2F7F8014389548965897689FC
:10142000840F951FA61FB71F838B948BA58BB68B3C
:10143000D70152961C9289EE91E020E2FC011192B4
:101440002A95E9F72BE0F601DC0101900D922A952F
:10145000E1F721E238E2DC0151963C932E9350975C
:1014600040E058E01F965C934E931E9753963C9332
:101470002E93529759963C932E93589757965C9378
:101480004E9356970E946404882339F0432DF70148
:101490006289C7010E94130105C080E003C0B1103A
:1014A00032CF1FCF2B960FB6F894DEBF0FBECDBF45
:1014B000DF91CF911F910F91FF90EF90DF90CF9030
:1014C000BF90AF909F908F907F906F905F904F9064
:1014D0003F902F900895CF93DF93EC018D81882367
:1014E00019F18C8187FF1CC0CE010E94B00DFC0158
:1014F000892BD1F08D81823040F48B899C89AD8914
:10150000BE89848F958FA68FB78F8F89988DA98D6F
:10151000BA8D938F828FB58BA48B8C818F778C83C0
:10152000DF91CF910C94640480E0DF91CF91089516
:10153000CF93DF93EC010E946B0A882311F01D8288
:1015400081E0DF91CF910895FC01818D928D00970C
:1015500011F00C946B0A08952F923F924F925F9274
:101560006F927F928F929F92AF92BF92CF92DF92B3
:10157000EF92FF920F931F93CF93DF9300D000D091
:10158000CDB7DEB78C015B011A01DC0115968C9199
:1015900015978130C9F414968C9181FF15C082FF94
:1015A0001DC0F801438954896589768982859385B0
:1015B000A485B58584179507A607B70779F0C801F4
:1015C0000E940C0681110AC081E090E0D8011396B8
:1015D0009C938E93129780E090E036C1610183C0A6
:1015E0005B968D919C915C97FC0174802FEF270D89
:1015F0002A013B0139E076946794579447943A95D1
:10160000D1F7722E74207A01F1E0FF22772009F4DD
:1016100076C080E092E08E199F0946018C159D05E9
:1016200008F44C01D8015B962D913C915C9716967D
:101630008D919D910D90BC91A02D0297A109B109AA
:10164000F901058404C0880F991FAA1FBB1F0A94C3
:10165000D2F74685578560897189840F951FA61F2B
:10166000B71F9C01AD01270D311D411D511D2901E1
:101670003A01811432E0930609F088C0809100019C
:1016800090910101A0910201B09103014816590601
:101690006A067B0659F48FEF9FEFDC01809300010F
:1016A00090930101A0930201B09303019501B3014E
:1016B000A2018091E7019091E8010E94F80388233C
:1016C00009F482CF9EEFB91AC818D908F8018285AB
:1016D0009385A485B585880D991DA11DB11D8287AF
:1016E0009387A487B587D8011A964D915D916D9126
:1016F0007C911D97C114D10409F072CF87C0E11409
:10170000F10409F086CF16964D915D916D917C9113
:101710001997411551056105710559F457968D9139
:101720009D910D90BC91A02D0097A105B10541F5AB
:1017300021C09E012F5F3F4F0E948905882309F435
:101740004BCF89819A81AB81BC81F801238D348D87
:10175000F9012789203129F048EF5FEF6FEF7FE033
:1017600004C048EF5FEF60E070E084179507A607BC
:10177000B70730F0C8010E94A30681114ACF24CFD9
:10178000F80186839783A087B18743CFE114F104E2
:1017900029F5D8011A964D915D916D917C911D9717
:1017A00053968D919D910D90BC91A02D481759078E
:1017B0006A077B0798F00E946404882309F404CF29
:1017C0004092000150920101609202017092030167
:1017D0008091D80181608093D80108C041E0C301A5
:1017E000B2010E949F04882309F4EECED501F701CF
:1017F000E751FE4F9F01280D391D2E173F0719F0A5
:101800008D918193FACFA80CB91C5ECFF801838922
:101810009489A589B68984179507A607B70738F470
:10182000438B548B658B768B848180688483F8012D
:10183000848183FD02C0C10107C0C8010E946B0AF8
:10184000882309F4C1CEF7CF0F900F900F900F901F
:10185000DF91CF911F910F91FF90EF90DF90CF908C
:10186000BF90AF909F908F907F906F905F904F90C0
:101870003F902F900895CF93DF931F92CDB7DEB79F
:10188000698341E050E0BE016F5F7F4F0E94AC0A68
:101890000F90DF91CF910895CF93DF93EC01898D65
:1018A0009A8D009739F481E090E09B838A8380E0F1
:1018B00090E00BC0FC01138212820E94AC0AE98DF9
:1018C000FA8D22813381232B71F7DF91CF91089517
:1018D000FC01DB0112968D919C9113979383828377
:1018E00080E291E09183808314968C911497848395
:1018F00015968C911597858316964D915D916D91F6
:101900007C91199746835783608771871A964D910A
:101910005D916D917C911D97428753876487758790
:101920001E964D915D916D917C9151974687578799
:10193000608B718B52968C915297828B53964D91FE
:101940005D916D917C915697438B548B658B768B13
:1019500057964D915D916D917C915A97478B508F21
:10196000618F728F5B968D919C915C97948F838F22
:10197000089589EE93E00E94C00021E0892B09F4CC
:1019800020E0822F08951F920F920FB60F9211241C
:101990002F933F934F935F936F937F938F939F9377
:1019A000AF93BF93EF93FF9389EE93E00E9478018A
:1019B000FF91EF91BF91AF919F918F917F916F9127
:1019C0005F914F913F912F910F900FBE0F901F90FD
:1019D00018951F920F920FB60F9211242F938F9389
:1019E0009F93EF93FF93E091F903F091FA038081C5
:1019F000E091FF03F091000482FD12C0908180917C
:101A000002048F5F8F7320910304821751F0E091DD
:101A10000204F0E0E751FC4F958F8093020401C06F
:101A20008081FF91EF919F918F912F910F900FBE29
:101A30000F901F901895CF92DF92EF92FF920F9325
:101A40001F93CF93DF936C017A018B01C0E0D0E04C
:101A5000CE15DF0581F0D8016D918D01D601ED9194
:101A6000FC910190F081E02DC6010995892B11F0C0
:101A70002196EECF7E01C701DF91CF911F910F918B
:101A8000FF90EF90DF90CF900895EF92FF920F9329
:101A90001F93CF93DF93EC017B018A011B821A8293
:101AA00088EE93E0A0E0B0E08C839D83AE83BF839B
:101AB00088E391E0998388838DE190E00E94291466
:101AC0009A8F898F009779F02DE1F701DC01019061
:101AD0000D922A95E1F74CE050E0B801CE010C964A
:101AE0000E945C15188EDF91CF911F910F91FF908E
:101AF000EF900895CF93DF93FC01828193819093BF
:101B0000D4048093D30484819581A681B781809386
:101B1000D5049093D604A093D704B093D8048085BD
:101B20009185A285B3858093D9049093DA04A0931C
:101B3000DB04B093DC04EF012C96ADEDB4E08991A9
:101B40008D9384E0AA3EB807D1F7818D928D909352
:101B5000EB048093EA0481ED94E0DF91CF91089546
:101B6000CF93DF93EC016E857F858889998941E069
:101B70000E949F04882341F08A8920E2829FC0014D
:101B8000112487519E4F02C080E090E0DF91CF91F9
:101B900008958F929F92AF92BF92CF92DF92EF9271
:101BA000FF920F931F93CF93DF9300D000D0CDB758
:101BB000DEB7FC018581813079F5948191FF2CC0DD
:101BC0004389548965897689452B462B472B09F42F
:101BD0005CC07F0140E050E0BA01CF010E940C06DA
:101BE0008823D1F0F7018788908CA18CB28CC38CAC
:101BF000D48C82E090E0A0E0B0E0F6018083918395
:101C0000A283B3839E012F5F3F4FB501A401C6019C
:101C10000E948905811102C080E037C000E010E019
:101C20009801B501A401C6010E94E8048823A1F32C
:101C300089809A80AB80BC80F6018789803129F049
:101C400088EF9FEFAFEFBFE004C088EF9FEFA0E009
:101C5000B0E088169906AA06BB06A0F2F701178A1B
:101C6000108E118E128E138A148A158A168A848118
:101C700080688483C7010E946B0A882369F240E070
:101C800050E0BA01C7010E940C060F900F900F9010
:101C90000F90DF91CF911F910F91FF90EF90DF9008
:101CA000CF90BF90AF909F908F9008954F925F928A
:101CB0006F927F92AF92BF92CF92DF92EF92FF929C
:101CC0000F931F93CF93DF9300D000D0CDB7DEB733
:101CD0008C0149835A836B837C835901C12CD12C9D
:101CE0007601412C82E0582E612C712C49815A8159
:101CF0006B817C819E012F5F3F4FC8010E94890547
:101D0000882351F1D301C201F801058404C0880F72
:101D1000991FAA1FBB1F0A94D2F7C80ED91EEA1E2C
:101D2000FB1E49815A816B817C818789803129F032
:101D300088EF9FEFAFEFBFE004C088EF9FEFA0E018
:101D4000B0E0481759076A077B0780F2F501C082A7
:101D5000D182E282F38281E00F900F900F900F907A
:101D6000DF91CF911F910F91FF90EF90DF90CF9077
:101D7000BF90AF907F906F905F904F900895CF93FA
:101D8000DF93FC012581222311F080E049C0EC01A2
:101D90008091AB048031C1F482E08583178A108E74
:101DA000118E128E8091AC049091AD04A0E0B0E051
:101DB00025E0880F991FAA1FBB1F2A95D1F7838B97
:101DC000948BA58BB68B19C08032F9F683E085839E
:101DD0004091AE045091AF046091B0047091B10491
:101DE000478B508F618F728F9F012D5E3F4F84E92B
:101DF00094E00E94560E882341F284E994E09C8F7F
:101E00008B8F81E08C831E821F82188619861A862A
:101E10001B861C861D861E861F86188A198A1A8AAA
:101E2000DF91CF910895CF92DF92FF920F931F938E
:101E3000CF93DF93CDB7DEB7C755D1090FB6F8946E
:101E4000DEBF0FBECDBF8C01F62E1C821B8280E24E
:101E5000C82E81E0D82EDA82C9821E82CE01019678
:101E60000E94BF0EBE016F5F7F4FCE01CB960E94D6
:101E7000680C19A218A2DF8ECE8E1BA221968FAD00
:101E80002197811113C0F8011382128288EE93E02A
:101E9000A0E0B0E084839583A683B78388E391E0D4
:101EA00091838083128E118E14862BC02F2D40ECCF
:101EB00051E0BE01655C7F4FCE014E960E94C30883
:101EC000882309F3CE01CB960E94980A8F2D867045
:101ED000863041F449A95AA96BA97CA9CE014E9636
:101EE0000E940C06BE01625E7F4FCE0101960E94E9
:101EF000680C40EC51E0BE016F5F7F4FC8010E944B
:101F0000450DC801C95ADF4F0FB6F894DEBF0FBEAA
:101F1000CDBFDF91CF911F910F91FF90DF90CF90B8
:101F200008958F929F92AF92BF92CF92DF92EF92DD
:101F3000FF92CF93DF93C82F88E894E09093E80155
:101F40008093E701CC2369F1C53010F080E00CC12B
:101F500040E060E070E0CB010E949F048823B1F371
:101F600020E1C29FC001112487529E4FFC01E25420
:101F7000FE4F20812F7751F73C964081518162813D
:101F80007381443651056105710500F33497C080B3
:101F9000D180E280F380C114D104E104F10421F482
:101FA000D5CFC12CD12C760140E0C701B6010E94EB
:101FB0009F04882359F28091F4019091F5018115D5
:101FC000924021F6A091F901AA2309F4BFCF6091B4
:101FD000F7017091F8016115710509F4B7CF2091EF
:101FE000F601222309F4B2CFA093A604209398040B
:101FF00080E030E041E050E0C82FFA01082E02C036
:10200000EE0FFF1F0A94E2F72E173F0739F08F5F9C
:10201000C83091F789E08093A10498CF8093A10400
:102020002091FF01309100022115310519F040E0A7
:1020300050E008C020910D0230910E0240910F0235
:10204000509110022093990430939A0440939B047A
:1020500050939C0446015701860E971EA11CB11C8B
:102060008092A7049092A804A092A904B092AA0416
:10207000E091FA01F091FB01F093AD04E093AC0420
:10208000B0E00E940914860E971EA81EB91E809209
:10209000AE049092AF04A092B004B092B10485E077
:1020A000EE0FFF1F8A95E1F7E150FE4FEF2FFF275C
:1020B000E6958E0E9F1EA11CB11C8092A2049092E8
:1020C000A304A092A404B092A5042091FC01309135
:1020D000FD012115310521F0A90160E070E008C083
:1020E0004091090250910A0260910B0270910C021A
:1020F000D701C60188199909AA09BB09840F951F40
:10210000A61FB71F04C0B695A79597958795CA9542
:10211000D2F780939D0490939E04A0939F04B09364
:10212000A004853F2FE09207A105B10510F48CE0D3
:1021300018C0853F9F4FA105B10510F480E111C083
:102140008091150290911602A0911702B091180289
:102150008093AE049093AF04A093B004B093B10405
:1021600080E28093AB0481E0DF91CF91FF90EF900C
:10217000DF90CF90BF90AF909F908F90089590E0A8
:10218000FC01EC54FF4F2491FC01E056FF4F849179
:10219000882399F090E0880F991FFC01EA56FF4FC1
:1021A000A591B491FC01E457FF4F859194918FB7AD
:1021B000F894EC91E22BEC938FBF089561157105B3
:1021C00079F0FB0101900020E9F73197AF01461B40
:1021D000570BDC01ED91FC910280F381E02D099415
:1021E00080E090E008950F931F93CF93DF93EC016D
:1021F0000E94DE108C0163ED71E0CE010E94DE10C2
:10220000800F911FDF91CF911F910F910895CF9370
:10221000DF93CDB7DEB7C456D1090FB6F894DEBF51
:102220000FBECDBF789484B5826084BD84B58160D3
:1022300084BD85B5826085BD85B5816085BD809191
:102240006E00816080936E00109281008091810009
:102250008260809381008091810081608093810001
:10226000809180008160809380008091B1008460C3
:102270008093B1008091B00081608093B000809124
:102280007A00846080937A0080917A0082608093E3
:102290007A0080917A00816080937A0080917A0040
:1022A000806880937A001092C100E091F903F09168
:1022B000FA0382E08083E091F503F091F603108247
:1022C000E091F703F091F8038FEC80831092010402
:1022D000E091FD03F091FE0386E08083E091FB0333
:1022E000F091FC03808180618083E091FB03F09199
:1022F000FC03808188608083E091FB03F091FC0304
:10230000808180688083E091FB03F091FC038081F1
:102310008F7D808366E471E089EE93E00E94DE1099
:102320008091B704882321F082EB94E00E94980A00
:10233000109293041092910410928E0410928D04C6
:1023400084E080938C040E9456028B0180918C045F
:102350000E94BF1061E080918C040E940902FFB6C8
:10236000F8948091E601811124C0EAEAF0E08491BA
:10237000EEEBF0E09491E82FF0E0EE0FFF1FEA564D
:10238000FF4FA591B491EC91E92321F461E08AE03B
:102390000E9409028AE00E94BF108CB580618CBD4A
:1023A0008CB580648CBD8DE00E94BF108BE00E94D4
:1023B000BF108091E6018F5F8093E601FFBE82E54A
:1023C00080938604109287048091860490918704FC
:1023D0000E94FC022AE0F22E8FEF0E94BD02FA94C6
:1023E000F110FACF88E894E00E94FF0220E030E08C
:1023F000A90160E088E894E00E941503F82E80931C
:10240000920481E0F81649F00E945602601B710B9D
:10241000613D774058F381E056C02AEA31E040E060
:1024200050E068E088E894E00E94150382FF03C052
:10243000F092930410C094E0F92E0E94C40280939D
:102440009204FA94F110F9CF8A3A11F082E03BC07D
:1024500082E08093930480919304823021F0C12C18
:10246000D12C760105C0C12CD12CE12C80E4F82EB2
:1024700020E030E0A90167E388E894E00E941503BA
:10248000A701960169E288E894E00E941503809311
:102490009204882349F00E945602601B710B613D33
:1024A000774030F388E00FC080919304823001F5CB
:1024B00020E030E0A9016AE388E894E00E94150377
:1024C000882341F086E080938D0488E894E00E94A0
:1024D000B20228C00E94C402807C803C19F483E0D0
:1024E000809393040E94C4020E94C4020E94C4020A
:1024F00088E894E00E94B20280E5809386041092FE
:10250000870481E00E94910F882339F082EB94E0E8
:102510000E94BF0E882331F00CC080E00E94910F12
:102520008111F4CF6EE571E089EE93E00E94F31023
:10253000FEC065E771E089EE93E00E94F31067E169
:10254000CE0101960E94130FCE0101960E947A0DD2
:10255000E091EA04F091EB04309721F18581882322
:1025600009F16AE871E089EE93E00E94DE1061EA09
:1025700071E081ED94E00E94F3108091EA04909163
:10258000EB04009761F00E94980A8091EA04909110
:10259000EB040E94C1141092EB041092EA0464E868
:1025A00071E002C062EB71E089EE93E00E94F310EB
:1025B00061E0CE0101960E94130FCE0101960E94A8
:1025C0007A0DE091EA04F091EB04309761F1858196
:1025D000882349F169EC71E089EE93E00E94F310E1
:1025E00081ED94E00E94D600892B51F081ED94E0BA
:1025F0000E948F08682F89EE93E00E949A01F0CF25
:102600008091EA049091EB04009799F00E94980A57
:102610008091EA049091EB040E94C1141092EB04A3
:102620001092EA0406C062EB71E089EE93E00E942A
:10263000F3101EAE1DAE80E291E09CAF8BAF2196F1
:102640001FAE219719A218A29F8F8E8F1BA2D12C8B
:10265000C12C7E018BE3E80EF11C02EB14E08D2D02
:102660009C2DFC01E054FE4F20812F3209F401968D
:10267000DC01A054BE4FFE01E85AFF4F20E030E0DD
:10268000AF016D916F3249F0662339F02F5F3F4FF4
:10269000019661932C303105A1F7FA01E20FF31F87
:1026A0001082FC01E054FE4F20812F3209F4019684
:1026B000D82EC92EFC01E054FE4F8081811124C028
:1026C0001C821B8280E291E09A8389831E8222E031
:1026D000B801CE0101960E94C3088823F1F1CE0112
:1026E00001960E94C90D8823C1F1CE0101960E9476
:1026F000B00D009791F125EEFC0120831E820E940F
:102700006404882351F116C0F7018581811125C029
:1027100021E0B801C7010E94C308B82E84E0023B43
:10272000180781F0C8010E94980AB11010C00E94D9
:10273000CC00FDCFE4E0023B1E07C9F3C8010E94B4
:10274000980AF5CFBB2099F38E01025E1F4F902FA0
:10275000812F8701E92EF82E82CFF4E0023B1F077C
:1027600031F3ECCFE9EEF3E01382128288EE93E0CE
:10277000A0E0B0E084839583A683B7832EE031E0A8
:102780003183208325EC30E03587248724EC30E04A
:102790003787268720EC30E0318B208B21EC30E02E
:1027A000338B228B22EC30E0358B248B26EC30E00F
:1027B000378B268B118E128E138E148EE6E8F4E082
:1027C00020E520831182E8E8F4E015821682118664
:1027D000138642E050E060E070E0448755876687EA
:1027E000778713A215A614A620E231E033A722A70B
:1027F00017A6E1EDF4E01382128284839583A68309
:10280000B78388E391E091838083128E118E1486C2
:1028100008950E941A14A59F900DB49F900DA49F37
:10282000800D911D11240895EE0FFF1F0590F49166
:10283000E02D0994A29FB001B39FC001A39F700D2A
:10284000811D1124911DB29F700D811D1124911DB8
:1028500008950F931F93CF93DF938230910510F467
:1028600082E090E0E091EE04F091EF0420E030E0AF
:10287000A0E0B0E0309719F14081518102811381CD
:1028800048175907C8F08417950769F4109731F075
:1028900012960C93129713961C9327C00093EE0484
:1028A0001093EF0422C02115310519F04217530788
:1028B00018F49A01BD01EF01DF01F801DBCF21150A
:1028C0003105F9F0281B390B2430310580F48A8159
:1028D0009B816115710521F0FB019383828304C004
:1028E0009093EF048093EE04FE01329644C0FE0103
:1028F000E20FF31F8193919322503109398328838A
:102900003AC02091EC043091ED04232B41F4209146
:102910000601309107013093ED042093EC042091DF
:102920000401309105012115310541F42DB73EB761
:102930004091080150910901241B350BE091EC04F2
:10294000F091ED04E217F307A0F42E1B3F0B2817BC
:10295000390778F0AC014E5F5F4F2417350748F018
:102960004E0F5F1F5093ED044093EC0481939193BD
:1029700002C0E0E0F0E0CF01DF91CF911F910F9115
:102980000895CF93DF93009709F481C0FC0132973B
:1029900013821282A091EE04B091EF04109781F49B
:1029A00020813181820F931F2091EC043091ED043E
:1029B0002817390751F5F093ED04E093EC0467C054
:1029C000ED0120E030E0CE17DF0740F44A815B8163
:1029D0009E0141155105F1F0EA01F5CFD383C28381
:1029E00040815181840F951FC817D90759F48881F8
:1029F0009981840F951F0296918380838A819B81A0
:102A0000938382832115310529F4F093EF04E09339
:102A1000EE043DC0E901FB83EA8349915991C40F5B
:102A2000D51FEC17FD0761F480819181840F951FFC
:102A30000296E90199838883828193819B838A83AB
:102A4000E0E0F0E012968D919C911397009719F0B9
:102A5000FD01DC01F7CF8D919C9111979D012E5FB7
:102A60003F4F820F931F2091EC043091ED04281703
:102A7000390769F4309729F41092EF041092EE04AC
:102A800002C013821282B093ED04A093EC04DF9194
:102A9000CF91089581E090E0F8940C946B15FB01C0
:102AA000DC0104C08D910190801921F44150504007
:102AB000C8F7881B990B0895FB01DC014150504079
:102AC00048F001900D920020C9F701C01D924150BD
:0A2AD0005040E0F70895F894FFCF9E
:102ADA00FFFFFFFF0000F0048000000000009A01E1
:102AEA001B0D8F00E701C0009E00B200000000002D
:102AFA003B0C1B0D0E010D010000000011011B0D06
:102B0A000E010D0100000000F7004C0C0E01A40A92
:102B1A00D6008F089908496E697469616C697A6987
:102B2A006E6720534420636172642E2E2E00696EF4
:102B3A00697469616C697A6174696F6E206661692A
:102B4A006C65642100696E697469616C697A617483
:102B5A00696F6E20646F6E652E0057726974696EB4
:102B6A006720746F20746573742E7478742E2E2EF9
:102B7A000074657374696E6720312C20322C2033FF
:102B8A002E006572726F72206F70656E696E6720B3
:102B9A00746573742E74787400746573742E747803
:062BAA00743A000D0A0060
:00000001FF
