:100000000C9461000C9473000C9473000C947300B6
:100010000C9473000C9473000C9473000C94730094
:100020000C9473000C9473000C9473000C94730084
:100030000C9473000C9473000C940C010C947300DA
:100040000C94C2000C9473000C9473000C94730015
:100050000C9473000C9473000C9473000C94730054
:100060000C9473000C94730000000000240027001F
:100070002A0000000000250028002B0000000000DE
:1000800023002600290004040404040404040202DA
:100090000202020203030303030301020408102007
:1000A0004080010204081020010204081020000012
:1000B0000008000201000003040700000000000027
:1000C000000011241FBECFEFD8E0DEBFCDBF21E07E
:1000D000A0E0B1E001C01D92AF30B207E1F70E948D
:1000E00023010C94FB010C940000833081F028F470
:1000F000813099F08230A1F008958730A9F08830DE
:10010000B9F08430D1F4809180008F7D03C080915C
:1001100080008F7780938000089584B58F7702C028
:1001200084B58F7D84BD08958091B0008F7703C022
:100130008091B0008F7D8093B0000895CF93DF93BE
:10014000E0EBF0E08491ECE9F0E0D491E8E8F0E055
:10015000C491CC2391F081110E947500EC2FF0E046
:10016000EE0FFF1FE458FF4FA591B491EC91ED23E2
:1001700081E090E021F480E002C080E090E0DF9137
:10018000CF9108951F920F920FB60F9211242F93C3
:100190003F938F939F93AF93BF9380910B01909167
:1001A0000C01A0910D01B0910E0130910A0123E0E4
:1001B000230F2D3720F40196A11DB11D05C026E89F
:1001C000230F0296A11DB11D20930A0180930B01FC
:1001D00090930C01A0930D01B0930E018091060144
:1001E00090910701A0910801B09109010196A11D0C
:1001F000B11D8093060190930701A0930801B0936D
:100200000901BF91AF919F918F913F912F910F90D5
:100210000FBE0F901F9018951F920F920FB60F925E
:1002200011248F939F938091040190910501019671
:1002300090930501809304019F918F910F900FBEC1
:100240000F901F901895789484B5826084BD84B512
:10025000816084BD85B5826085BD85B5816085BDC1
:1002600080916E00816080936E0010928100809179
:100270008100826080938100809181008160809301
:100280008100809180008160809380008091B10026
:1002900084608093B1008091B00081608093B00051
:1002A00080917A00846080937A0080917A008260E5
:1002B00080937A0080917A00816080937A008091A7
:1002C0007A00806880937A001092C100C7EAD0E07B
:1002D000FE01249103E910E0F8018491882399F04C
:1002E00090E0880F991FFC01E859FF4FA591B49148
:1002F000FC01EE58FF4F859194919FB7F8948C9133
:10030000822B8C939FBF84B5826084BD85B585BDEB
:1003100089EF87BD80916E00866080936E00F894AF
:10032000882483949BEBE92E90E0F92E20E0C22EE6
:1003300020E0D22E9924939480910401909105019C
:100340004497BCF080910301882399F0F8941092AF
:10035000050110920401109203018091020188238B
:1003600021F0809101018823B1F0809102018093F6
:100370000101A0900101B12C0E949E00A816B906AF
:1003800021F080910301882351F1C114D104A1F21D
:100390000E940000D1CFA0900001A824A0920001EB
:1003A000F7018491FE01B490F80174907720E9F28E
:1003B00081110E947500E72DF0E0EE0FFF1FEE584F
:1003C000FF4FA591B4919FB7F8948C91A11003C0F1
:1003D000B094B82201C0B82ABC929FBFC6CF0E9479
:1003E0009E0021E0892B09F420E0209302017894FB
:0A03F00090920301CACFF894FFCFEA
:00000001FF
