:100000000C945D000C9485000C9485000C94850084
:100010000C9485000C9485000C9485000C9485004C
:100020000C9485000C9485000C9485000C9485003C
:100030000C9485000C9485000C9485000C9485002C
:100040000C9475030C9485000C9443030C941D03CD
:100050000C9485000C9485000C9485000C9485000C
:100060000C9485000C9485000000000025002800F9
:100070002B000000000023002600290004040404D3
:100080000404040402020202020203030303030342
:10009000010204081020408001020408102001021F
:1000A00004081020000000080002010000030407FB
:1000B0000000000000000000BF0311241FBECFEFAE
:1000C000D8E0DEBFCDBF23E0A6ECB2E001C01D92B8
:1000D000A63BB207E1F712E0A0E0B1E0EAEAFDE0FA
:1000E00002C005900D92A63CB107D9F710E0CDE50E
:1000F000D0E004C02197FE010E94CD06CC35D10787
:10010000C9F70E94FE030C94D3060C940000E3EDA3
:10011000F2E0A089B18982E08C93A485B5851C9218
:10012000A685B7858FEC8C93108EA489B58986E05F
:100130008C93A289B3898C9180618C93A289B389B5
:100140008C9188608C93A289B3898C9180688C9300
:100150000288F389E02D80818F7D80830895AF929E
:10016000BF92CF92DF92EF92FF920F931F93CF93A4
:10017000DF936C017B018B01040F151FEB015E0106
:10018000AE18BF08C017D10759F06991D601ED919B
:10019000FC910190F081E02DC6010995892B79F73A
:1001A000C501DF91CF911F910F91FF90EF90DF90EC
:1001B000CF90BF90AF900895FC01538D448D252FB3
:1001C00030E0842F90E0821B930B541710F0CF96F1
:1001D000089501970895FC01918D828D981761F023
:1001E000A28DAE0FBF2FB11D5D968C91928D9F5F3A
:1001F0009F73928F90E008958FEF9FEF0895FC0119
:10020000918D828D981731F0828DE80FF11D858DCB
:1002100090E008958FEF9FEF0895FC01918D228D5E
:10022000892F90E0805C9F4F821B91098F739927E3
:10023000089583ED92E00E940D0121E0892B09F4DD
:1002400020E0822F089580E090E0892B29F00E9421
:10025000190181110C9400000895FC01A48DA80FD0
:10026000B92FB11DA35ABF4F2C91848D90E00196F8
:100270008F739927848FA689B7892C93A089B18918
:100280008C91837080648C93938D848D981306C0B9
:100290000288F389E02D80818F7D80830895EF921D
:1002A000FF920F931F93CF93DF93EC0181E0888F30
:1002B0009B8D8C8D98131AC0E889F989808185FF00
:1002C00015C09FB7F894EE89FF896083E889F989A2
:1002D00080818370806480839FBF81E090E0DF91A4
:1002E000CF911F910F91FF90EF900895F62E0B8DF7
:1002F00010E00F5F1F4F0F731127E02E8C8D8E11B2
:100300000CC00FB607FCFACFE889F989808185FF18
:10031000F5CFCE010E942D01F1CFEB8DEC0FFD2F1B
:10032000F11DE35AFF4FF0829FB7F8940B8FEA89D3
:10033000FB8980818062CFCFCF93DF93EC01888DE2
:100340008823B9F0AA89BB89E889F9898C9185FD50
:1003500003C0808186FD0DC00FB607FCF7CF8C91DE
:1003600085FFF2CF808185FFEDCFCE010E942D0168
:10037000E9CFDF91CF910895833081F028F4813067
:1003800099F08230A9F008958730A9F08830C9F03B
:100390008430B1F4809180008F7D03C08091800013
:1003A0008F7780938000089584B58F7784BD0895FA
:1003B00084B58F7DFBCF8091B0008F778093B000A4
:1003C00008958091B0008F7DF9CF1F93CF93DF9375
:1003D000282F30E0F901EC55FF4F8491F901E057E7
:1003E000FF4FD491F901E458FF4FC491CC23A9F0F9
:1003F000162F81110E94BC01EC2FF0E0EE0FFF1FC1
:10040000E859FF4FA591B4918FB7F894EC91111171
:1004100008C0D095DE23DC938FBFDF91CF911F9171
:100420000895DE2BF8CF3FB7F8948091CB029091DE
:10043000CC02A091CD02B091CE0226B5A89B05C0FA
:100440002F3F19F00196A11DB11D3FBFBA2FA92F53
:10045000982F8827BC01CD01620F711D811D911D50
:1004600042E0660F771F881F991F4A95D1F70895BC
:100470008F929F92AF92BF92CF92DF92EF92FF92B4
:100480004B015C010E9413026B017C010E9413026C
:100490006C197D098E099F09683E7340810591059D
:1004A000A8F321E0821A9108A108B10888EEC80ECD
:1004B00083E0D81EE11CF11C81149104A104B10455
:1004C00029F7FF90EF90DF90CF90BF90AF909F9073
:1004D0008F9008952FB7F8946091C7027091C80269
:1004E0008091C9029091CA022FBF089560E08AE00E
:1004F0000E94E50161E08BE00C94E50161E08AE097
:100500000E94E50160E08BE00C94E50161E083E18D
:100510000E94E5016AE070E080E090E00E9438020D
:1005200060E083E10E94E5016AE070E080E090E035
:100530000C94380260E081E10E94E5016AE070E01D
:1005400080E090E00E94380261E081E10E94E501D4
:100550006AE070E080E090E00C943802FC010190C9
:100560000020E9F73197AF01481B590BBC0183ED1F
:1005700092E00C94AF008F929F92AF92BF920F9334
:100580001F93CF93DF93CDB7DEB7A1970FB6F89443
:10059000DEBF0FBECDBF19A2423008F44AE08E0183
:1005A0000F5D1F4F842E912CB12CA12CA50194011D
:1005B0000E94AB06E62FB901CA01EA30F4F4E05D0F
:1005C000D801EE938D01232B242B252B79F790E076
:1005D00080E0109719F0CD010E94AE02A1960FB6EF
:1005E000F894DEBF0FBECDBFDF91CF911F910F9169
:1005F000BF90AF909F908F900895E95CE1CFCF932B
:10060000DF930E94AE02EC0182E192E00E94AE0212
:100610008C0F9D1FDF91CF91089585E192E00E949C
:10062000FF0280E392E00E94FF028AE492E00E94CF
:10063000FF0284E692E00C94FF021F920F920FB625
:100640000F9211242F933F934F935F936F937F9358
:100650008F939F93AF93BF93EF93FF9383ED92E0BC
:100660000E942D01FF91EF91BF91AF919F918F91CA
:100670007F916F915F914F913F912F910F900FBE9E
:100680000F901F9018951F920F920FB60F92112482
:100690002F938F939F93EF93FF93E091E302F09159
:1006A000E4028081E091E902F091EA0282FD1BC040
:1006B00090818091EC028F5F8F732091ED02821701
:1006C00041F0E091EC02F0E0ED52FD4F958F809308
:1006D000EC02FF91EF919F918F912F910F900FBEA0
:1006E0000F901F9018958081F4CF1F920F920FB634
:1006F0000F9211242F933F938F939F93AF93BF93A8
:100700008091C7029091C802A091C902B091CA021B
:100710003091C60223E0230F2D3758F50196A11D15
:10072000B11D2093C6028093C7029093C802A09384
:10073000C902B093CA028091CB029091CC02A091E1
:10074000CD02B091CE020196A11DB11D8093CB02C6
:100750009093CC02A093CD02B093CE02BF91AF9103
:100760009F918F913F912F910F900FBE0F901F90EF
:10077000189526E8230F0296A11DB11DD2CFE3EDF7
:10078000F2E01382128288EE93E0A0E0B0E084836E
:100790009583A683B78384E092E09183808385EC80
:1007A00090E09587848784EC90E09787868780EC3B
:1007B00090E0918B808B81EC90E0938B828B82EC2C
:1007C00090E0958B848B86EC90E0978B868B118ED6
:1007D000128E138E148EE0E7F3E0168217821086D5
:1007E0001186128613861486158616861786108A39
:1007F000118A128A138A148A158A0895789484B506
:10080000826084BD84B5816084BD85B5826085BD0C
:1008100085B5816085BD80916E00816080936E009A
:10082000109281008091810082608093810080918C
:10083000810081608093810080918000816080933D
:1008400080008091B10084608093B1008091B000FD
:1008500081608093B00080917A00846080937A00F8
:1008600080917A00826080937A0080917A00816022
:1008700080937A0080917A00806880937A00109249
:10088000C1001092B2031092B3031092B4031092FD
:10089000B5031092720310927303109274031092B6
:1008A00075030E946A026B017C014B015C0128EB1D
:1008B000820E2BE0921EA11CB11C0E946A026C15D4
:1008C0007D058E059F0528F086169706A806B906B1
:1008D000A0F768EE73E080E090E00E9438020E948A
:1008E00087000E946A02609372037093730380937F
:1008F00074039093750384E792E00E94AE020E9415
:100900006A026B017C014B015C013AE0830E911C91
:10091000A11CB11C0E946A026C157D058E059F0505
:1009200028F086169706A806B906A0F781E08093FE
:10093000860361E080E10E94E50160E081E10E94C0
:10094000E50160E082E10E94E50161E083E10E944F
:10095000E50160E083E10E94E5010E947E020E94C1
:1009600087000E940D0374EF472E55245394612C89
:10097000712C0E946A02672B682B692B09F4DBC07B
:100980000E946A020091CF021091D0022091D10200
:100990003091D202601771078207930708F46CC187
:1009A0000091CF021091D0022091D1023091D20259
:1009B0006B017C01C01AD10AE20AF30A9701860191
:1009C0000A3F11052105310508F4BDC06093CF022F
:1009D0007093D0028093D1029093D20240927E0312
:1009E00050927F0360928003709281031092820381
:1009F00010928303109284031092850380917603F2
:100A000090917703A0917803B091790380937A0352
:100A100090937B03A0937C03B0937D030E946A02B2
:100A200060937603709377038093780390937903B0
:100A30000E946A026093720370937303809374033D
:100A4000909375030E946A026B017C0185E892E035
:100A50000E94AE024AE061E070E080E090E00E9417
:100A6000BB028CE892E00E94AE024AE0C701B601E8
:100A70000E94BB028EE892E00E94AE028091760353
:100A800090917703A0917803B0917903A701960123
:100A9000281B390B4A0B5B0BCA01B9014AE00E94C3
:100AA000BB028EE892E00E94AE02609176037091E4
:100AB0007703809178039091790300917A031091E4
:100AC0007B0320917C0330917D03601B710B820BB3
:100AD000930B4AE00E94BB0280E992E00E94AE02C2
:100AE0000E946A024AE00E94BB0282E992E00E94F0
:100AF000FF020E946A024B015C017C016B0135E040
:100B0000C30ED11CE11CF11C0E946A026815790514
:100B10008A059B0528F0C616D706E806F906A0F751
:100B20000E946A0260937603709377038093780340
:100B30009093790308C00E946A02623071058105B2
:100B4000910508F01DCF83ED92E00E940D0118166B
:100B500019060CF07CC083ED92E00E94EB0081331B
:100B6000910509F495C08933910509F4E8C0C0974F
:100B700009F0EAC00E947E0260E080E10E94E50187
:100B800060E08FE00E94E50161E08EE00E94E501F7
:100B90000E948602F12CE12C10E000E0CC24C394EA
:100BA000D12CC2E0D0E0FE01EC55FF4F8491FE0154
:100BB000E057FF4F3490FE01E458FF4F249022206D
:100BC00009F463C081110E94BC01E22DF0E0EE0F38
:100BD000FF1FEE58FF4FA591B491EC913E2231E0FA
:100BE00020E009F430E0832F922F8C9D90018D9DA1
:100BF000300D9C9D300D1124020F131FCC0CDD1CF9
:100C00002196CA30D10509F0CECFC7018F70992740
:100C1000892B21F483E192E00E94FF02B801110FB9
:100C2000880B990B40E10E94BB0289E992E00E9487
:100C3000AE020E949A024FEFE41AF40AE11451E066
:100C4000F50609F0A9CF0E9476020E94760264E6BA
:100C500070E080E090E00E94380280E0E82E80E0C2
:100C6000F82EEF2809F485CE0E941901882309F493
:100C700080CE0E9400007DCE6093CF027093D002A0
:100C80008093D1029093D2028BCE90E080E0ADCFE2
:100C90000E947E0261E08FE00E94E50161E08EE04B
:100CA0000E94E5010E948602C0E0D1E060E080E1A0
:100CB0000E94E50160E08EE00E94E50161E070E0E5
:100CC00080E090E00E94380232E0F32E01E010E074
:100CD0008881082E000C990B8023912361E0892BD9
:100CE00009F460E08F2D0E94E501000F111FF394BD
:100CF0008AE0F812EDCF61E070E080E090E00E94C1
:100D0000380261E08EE00E94E50161E070E080E081
:100D100090E00E94380261E080E10E94E5010E94BB
:100D20009A02219690E0C92E92E0D92ECC16DD06CB
:100D300009F0BCCF60E08FE00E94E50186CF0E9401
:100D40007E020E940D0381CF8BE992E00E94FF0298
:100D50000E940D037CCFA1E21A2EAA1BBB1BFD0132
:100D60000DC0AA1FBB1FEE1FFF1FA217B307E4078A
:100D7000F50720F0A21BB30BE40BF50B661F771FE2
:100D8000881F991F1A9469F76095709580959095C2
:100D90009B01AC01BD01CF010895EE0FFF1F05902F
:0A0DA000F491E02D0994F894FFCFC0
:100DAA00DB00D310C30000000000000000000000B8
:100DBA000000000000000000000000000000000029
:100DCA000000000000000000000000000000000019
:100DDA000000000000000000000000000000000009
:100DEA0000000000000000000000000000000000F9
:100DFA0000000000000000000000000000000000E9
:100E0A0000000000000000000000000000000000D8
:100E1A0000000000000000000000000000000000C8
:100E2A0000000000000000000000000000000000B8
:100E3A0000000000000000000000000000000000A8
:100E4A000000000000000000000000000000000098
:100E5A000000000000000000000000000000000088
:100E6A000000000000000000000000000000000078
:100E7A000000000000000000000000000000000068
:100E8A000000000000000000000000000000000058
:100E9A000000000000000000000000000000000048
:100EAA00000000004F01AF00DC009C010D01EB00C7
:100EBA00FF000D0A00436F6D6D616E6420666F72EC
:100ECA002050726F6772616D5F454550524F4D00F9
:100EDA0030092D2D09526561642066726F6D2045B7
:100EEA004550524F4D204845580031092D2D09577C
:100EFA0072697465206461746120746F204545507D
:100F0A00524F4D0039092D2D095072696E74204DCA
:100F1A00656E7500564D4450565F317C315F564DB3
:100F2A004450560A00564D4450455F003A323A0042
:100F3A007C005F564D445045000900596F75722078
:100F4A00636F6D6D616E64206E6F7420657869736E
:100F5A007420282C20636865636B2069742061679C
:060F6A0061696E210A001E
:00000001FF
